BL51 BANKED LINKER/LOCATER V6.22.2.0                                                    03/09/2024  10:29:54  PAGE 1


BL51 BANKED LINKER/LOCATER V6.22.2.0, INVOKED BY:
D:\KEIL_V5\C51\BIN\BL51.EXE .\Objects\main.obj, .\Objects\delay.obj, .\Objects\LCD1602.obj, .\Objects\MatrixKey.obj TO .
>> \Objects\Project PRINT (.\Listings\Project.m51) RAMSIZE (256) DISABLEWARNING (16)


MEMORY MODEL: SMALL


INPUT MODULES INCLUDED:
  .\Objects\main.obj (MAIN)
  .\Objects\delay.obj (DELAY)
  .\Objects\LCD1602.obj (LCD1602)
  .\Objects\MatrixKey.obj (MATRIXKEY)
  D:\KEIL_V5\C51\LIB\C51S.LIB (?C_STARTUP)
  D:\KEIL_V5\C51\LIB\C51S.LIB (?C?CLDOPTR)
  D:\KEIL_V5\C51\LIB\C51S.LIB (?C?IMUL)
  D:\KEIL_V5\C51\LIB\C51S.LIB (?C?UIDIV)
  D:\KEIL_V5\C51\LIB\C51S.LIB (?C_INIT)


LINK MAP OF MODULE:  .\Objects\Project (MAIN)


            TYPE    BASE      LENGTH    RELOCATION   SEGMENT NAME
            -----------------------------------------------------

            * * * * * * *   D A T A   M E M O R Y   * * * * * * *
            REG     0000H     0008H     ABSOLUTE     "REG BANK 0"
            DATA    0008H     0009H     UNIT         _DATA_GROUP_
            DATA    0011H     0007H     UNIT         ?DT?_LCD_SHOWSIGNEDNUM?LCD1602
            DATA    0018H     0005H     UNIT         ?DT?_LCD_SHOWHEXNUM?LCD1602
            DATA    001DH     0005H     UNIT         ?DT?_LCD_SHOWBINNUM?LCD1602
            DATA    0022H     0001H     UNIT         ?DT?MAIN
            IDATA   0023H     0001H     UNIT         ?STACK

            * * * * * * *   C O D E   M E M O R Y   * * * * * * *
            CODE    0000H     0003H     ABSOLUTE     
            CODE    0003H     0189H     UNIT         ?PR?GETMATRIXKEY?MATRIXKEY
            CODE    018CH     0094H     UNIT         ?C?LIB_CODE
            CODE    0220H     008CH     UNIT         ?C_C51STARTUP
            CODE    02ACH     004BH     UNIT         ?PR?_LCD_SHOWHEXNUM?LCD1602
            CODE    02F7H     004AH     UNIT         ?PR?_LCD_SHOWSIGNEDNUM?LCD1602
            CODE    0341H     003DH     UNIT         ?PR?_LCD_SHOWBINNUM?LCD1602
            CODE    037EH     0031H     UNIT         ?PR?_LCD_POW?LCD1602
            CODE    03AFH     0028H     UNIT         ?PR?MAIN?MAIN
            CODE    03D7H     0024H     UNIT         ?PR?_LCD_SHOWNUM?LCD1602
            CODE    03FBH     0023H     UNIT         ?PR?_LCD_SHOWSTRING?LCD1602
            CODE    041EH     001EH     UNIT         ?PR?_LCD_WRITEDATA?LCD1602
            CODE    043CH     001EH     UNIT         ?PR?_LCD_SETCURSOR?LCD1602
            CODE    045AH     0014H     UNIT         ?PR?_DELAY?DELAY
            CODE    046EH     0014H     UNIT         ?PR?LCD_INIT?LCD1602
            CODE    0482H     000FH     UNIT         ?PR?LCD_DELAY?LCD1602
            CODE    0491H     000BH     UNIT         ?CO?MAIN
            CODE    049CH     000AH     UNIT         ?PR?_LCD_WRITECOMMAND?LCD1602
            CODE    04A6H     000AH     UNIT         ?PR?_LCD_SHOWCHAR?LCD1602
            CODE    04B0H     0004H     UNIT         ?C_INITSEG


BL51 BANKED LINKER/LOCATER V6.22.2.0                                                  03/09/2024  10:29:54  PAGE 2



OVERLAY MAP OF MODULE:   .\Objects\Project (MAIN)


SEGMENT                                  DATA_GROUP 
  +--> CALLED SEGMENT                  START    LENGTH
------------------------------------------------------
?C_C51STARTUP                          -----    -----
  +--> ?PR?MAIN?MAIN
  +--> ?C_INITSEG

?PR?MAIN?MAIN                          -----    -----
  +--> ?PR?LCD_INIT?LCD1602
  +--> ?CO?MAIN
  +--> ?PR?_LCD_SHOWSTRING?LCD1602
  +--> ?PR?GETMATRIXKEY?MATRIXKEY
  +--> ?PR?_LCD_SHOWNUM?LCD1602

?PR?LCD_INIT?LCD1602                   -----    -----
  +--> ?PR?_LCD_WRITECOMMAND?LCD1602

?PR?_LCD_WRITECOMMAND?LCD1602          -----    -----
  +--> ?PR?LCD_DELAY?LCD1602

?PR?_LCD_SHOWSTRING?LCD1602            0008H    0003H
  +--> ?PR?_LCD_SETCURSOR?LCD1602
  +--> ?PR?_LCD_WRITEDATA?LCD1602

?PR?_LCD_SETCURSOR?LCD1602             -----    -----
  +--> ?PR?_LCD_WRITECOMMAND?LCD1602

?PR?_LCD_WRITEDATA?LCD1602             -----    -----
  +--> ?PR?LCD_DELAY?LCD1602

?PR?GETMATRIXKEY?MATRIXKEY             0008H    0001H
  +--> ?PR?_DELAY?DELAY

?PR?_LCD_SHOWNUM?LCD1602               0008H    0005H
  +--> ?PR?_LCD_SETCURSOR?LCD1602
  +--> ?PR?_LCD_POW?LCD1602
  +--> ?PR?_LCD_WRITEDATA?LCD1602

?PR?_LCD_POW?LCD1602                   000DH    0004H



SYMBOL TABLE OF MODULE:  .\Objects\Project (MAIN)

  VALUE           TYPE          NAME
  ----------------------------------

  -------         MODULE        MAIN
  C:0000H         SYMBOL        _ICE_DUMMY_
  C:03AFH         PUBLIC        main
  D:0022H         PUBLIC        keyNumber
  -------         PROC          MAIN
  C:03AFH         LINE#         7
BL51 BANKED LINKER/LOCATER V6.22.2.0                                                  03/09/2024  10:29:54  PAGE 3


  C:03AFH         LINE#         8
  C:03AFH         LINE#         9
  C:03B2H         LINE#         10
  C:03BFH         LINE#         12
  C:03BFH         LINE#         13
  C:03BFH         LINE#         14
  C:03C4H         LINE#         15
  C:03C8H         LINE#         16
  C:03C8H         LINE#         17
  C:03D5H         LINE#         18
  C:03D5H         LINE#         20
  -------         ENDPROC       MAIN
  -------         ENDMOD        MAIN

  -------         MODULE        DELAY
  C:0000H         SYMBOL        _ICE_DUMMY_
  C:045AH         PUBLIC        _delay
  -------         PROC          _DELAY
  D:0006H         SYMBOL        xms
  -------         DO            
  D:0005H         SYMBOL        i
  D:0004H         SYMBOL        j
  -------         ENDDO         
  C:045AH         LINE#         1
  C:045AH         LINE#         2
  C:045AH         LINE#         5
  C:045EH         LINE#         6
  C:045EH         LINE#         7
  C:0460H         LINE#         8
  C:0462H         LINE#         10
  C:0462H         LINE#         11
  C:0464H         LINE#         12
  C:0466H         LINE#         13
  C:046BH         LINE#         14
  C:046DH         LINE#         15
  -------         ENDPROC       _DELAY
  -------         ENDMOD        DELAY

  -------         MODULE        LCD1602
  C:0000H         SYMBOL        _ICE_DUMMY_
  D:0080H         PUBLIC        P0
  D:00A0H         PUBLIC        P2
  C:049CH         PUBLIC        _LCD_WriteCommand
  C:03D7H         PUBLIC        _LCD_ShowNum
  C:0341H         PUBLIC        _LCD_ShowBinNum
  C:0488H         PUBLIC        LCD_Delay
  C:02ACH         PUBLIC        _LCD_ShowHexNum
  C:0432H         PUBLIC        _LCD_WriteData
  B:00A0H.7       PUBLIC        LCD_EN
  C:046EH         PUBLIC        LCD_Init
  C:03FBH         PUBLIC        _LCD_ShowString
  C:04A6H         PUBLIC        _LCD_ShowChar
  B:00A0H.6       PUBLIC        LCD_RS
  B:00A0H.5       PUBLIC        LCD_RW
  C:043CH         PUBLIC        _LCD_SetCursor
  C:02F7H         PUBLIC        _LCD_ShowSignedNum
  C:0388H         PUBLIC        _LCD_Pow
BL51 BANKED LINKER/LOCATER V6.22.2.0                                                  03/09/2024  10:29:54  PAGE 4


  -------         PROC          L?0047
  -------         ENDPROC       L?0047
  -------         PROC          LCD_DELAY
  -------         DO            
  D:0007H         SYMBOL        i
  D:0006H         SYMBOL        j
  -------         ENDDO         
  C:0488H         LINE#         15
  C:0488H         LINE#         16
  C:0488H         LINE#         19
  C:048AH         LINE#         20
  C:048CH         LINE#         22
  C:048CH         LINE#         23
  C:048EH         LINE#         24
  C:0490H         LINE#         25
  -------         ENDPROC       LCD_DELAY
  -------         PROC          _LCD_WRITECOMMAND
  D:0007H         SYMBOL        Command
  C:049CH         LINE#         32
  C:049CH         LINE#         33
  C:049CH         LINE#         34
  C:049EH         LINE#         35
  C:049EH         LINE#         36
  C:049EH         LINE#         37
  C:049EH         LINE#         38
  C:04A1H         LINE#         39
  C:04A3H         LINE#         40
  -------         ENDPROC       _LCD_WRITECOMMAND
  -------         PROC          L?0045
  -------         ENDPROC       L?0045
  -------         PROC          _LCD_WRITEDATA
  D:0007H         SYMBOL        Data
  C:0432H         LINE#         48
  C:0432H         LINE#         49
  C:0432H         LINE#         50
  C:0434H         LINE#         51
  C:0434H         LINE#         52
  C:0434H         LINE#         53
  C:0434H         LINE#         54
  C:0437H         LINE#         55
  C:0439H         LINE#         56
  -------         ENDPROC       _LCD_WRITEDATA
  -------         PROC          _LCD_SETCURSOR
  D:0006H         SYMBOL        Line
  D:0005H         SYMBOL        Column
  C:043CH         LINE#         65
  C:043EH         LINE#         66
  C:043EH         LINE#         67
  C:0446H         LINE#         68
  C:0446H         LINE#         69
  C:0448H         LINE#         70
  C:044AH         LINE#         71
  C:0450H         LINE#         72
  C:0450H         LINE#         73
  C:0459H         LINE#         74
  C:0459H         LINE#         75
  -------         ENDPROC       _LCD_SETCURSOR
BL51 BANKED LINKER/LOCATER V6.22.2.0                                                  03/09/2024  10:29:54  PAGE 5


  -------         PROC          LCD_INIT
  C:046EH         LINE#         82
  C:046EH         LINE#         83
  C:046EH         LINE#         84
  C:0473H         LINE#         85
  C:0478H         LINE#         86
  C:047DH         LINE#         87
  -------         ENDPROC       LCD_INIT
  -------         PROC          _LCD_SHOWCHAR
  D:0006H         SYMBOL        Line
  D:0005H         SYMBOL        Column
  D:0004H         SYMBOL        Char
  C:04A6H         LINE#         97
  C:04A8H         LINE#         98
  C:04A8H         LINE#         99
  C:04ABH         LINE#         100
  -------         ENDPROC       _LCD_SHOWCHAR
  -------         PROC          _LCD_SHOWSTRING
  D:0007H         SYMBOL        Line
  D:0005H         SYMBOL        Column
  D:0008H         SYMBOL        String
  -------         DO            
  D:0005H         SYMBOL        i
  -------         ENDDO         
  C:03FBH         LINE#         110
  C:0401H         LINE#         111
  C:0401H         LINE#         113
  C:0404H         LINE#         114
  C:0417H         LINE#         115
  C:0417H         LINE#         116
  C:041AH         LINE#         117
  C:041DH         LINE#         118
  -------         ENDPROC       _LCD_SHOWSTRING
  -------         PROC          L?0046
  -------         ENDPROC       L?0046
  -------         PROC          _LCD_POW
  D:000DH         SYMBOL        X
  D:000FH         SYMBOL        Y
  -------         DO            
  D:0003H         SYMBOL        i
  D:0006H         SYMBOL        Result
  -------         ENDDO         
  C:0388H         LINE#         123
  C:0390H         LINE#         124
  C:0390H         LINE#         126
  C:0394H         LINE#         127
  C:03A4H         LINE#         128
  C:03A4H         LINE#         129
  C:03ABH         LINE#         130
  C:03AEH         LINE#         131
  C:03AEH         LINE#         132
  -------         ENDPROC       _LCD_POW
  -------         PROC          _LCD_SHOWNUM
  D:0007H         SYMBOL        Line
  D:0005H         SYMBOL        Column
  D:000AH         SYMBOL        Number
  D:000CH         SYMBOL        Length
BL51 BANKED LINKER/LOCATER V6.22.2.0                                                  03/09/2024  10:29:54  PAGE 6


  -------         DO            
  D:0002H         SYMBOL        i
  -------         ENDDO         
  C:03D7H         LINE#         142
  C:03DBH         LINE#         143
  C:03DBH         LINE#         145
  C:03DEH         LINE#         146
  C:03EDH         LINE#         147
  C:03EDH         LINE#         148
  C:03F7H         LINE#         149
  C:03FAH         LINE#         150
  -------         ENDPROC       _LCD_SHOWNUM
  -------         PROC          _LCD_SHOWSIGNEDNUM
  D:0007H         SYMBOL        Line
  D:0005H         SYMBOL        Column
  D:0082H         SYMBOL        Number
  D:0015H         SYMBOL        Length
  -------         DO            
  D:0002H         SYMBOL        i
  D:0016H         SYMBOL        Number1
  -------         ENDDO         
  C:02F7H         LINE#         160
  C:02FBH         LINE#         161
  C:02FBH         LINE#         164
  C:02FEH         LINE#         165
  C:0307H         LINE#         166
  C:0307H         LINE#         167
  C:030CH         LINE#         168
  C:0312H         LINE#         169
  C:0314H         LINE#         171
  C:0314H         LINE#         172
  C:0319H         LINE#         173
  C:0324H         LINE#         174
  C:0324H         LINE#         175
  C:0333H         LINE#         176
  C:0333H         LINE#         177
  C:033DH         LINE#         178
  C:0340H         LINE#         179
  -------         ENDPROC       _LCD_SHOWSIGNEDNUM
  -------         PROC          _LCD_SHOWHEXNUM
  D:0007H         SYMBOL        Line
  D:0005H         SYMBOL        Column
  D:001AH         SYMBOL        Number
  D:001CH         SYMBOL        Length
  -------         DO            
  D:0002H         SYMBOL        i
  D:0006H         SYMBOL        SingleNumber
  -------         ENDDO         
  C:02ACH         LINE#         189
  C:02B0H         LINE#         190
  C:02B0H         LINE#         192
  C:02B3H         LINE#         193
  C:02BFH         LINE#         194
  C:02BFH         LINE#         195
  C:02DFH         LINE#         196
  C:02E9H         LINE#         197
  C:02E9H         LINE#         198
BL51 BANKED LINKER/LOCATER V6.22.2.0                                                  03/09/2024  10:29:54  PAGE 7


  C:02EBH         LINE#         199
  C:02EDH         LINE#         201
  C:02EDH         LINE#         202
  C:02F3H         LINE#         203
  C:02F3H         LINE#         204
  C:02F6H         LINE#         205
  -------         ENDPROC       _LCD_SHOWHEXNUM
  -------         PROC          _LCD_SHOWBINNUM
  D:0007H         SYMBOL        Line
  D:0005H         SYMBOL        Column
  D:001FH         SYMBOL        Number
  D:0021H         SYMBOL        Length
  -------         DO            
  D:0002H         SYMBOL        i
  -------         ENDDO         
  C:0341H         LINE#         215
  C:0345H         LINE#         216
  C:0345H         LINE#         218
  C:0348H         LINE#         219
  C:0357H         LINE#         220
  C:0357H         LINE#         221
  C:037AH         LINE#         222
  C:037DH         LINE#         223
  -------         ENDPROC       _LCD_SHOWBINNUM
  -------         ENDMOD        LCD1602

  -------         MODULE        MATRIXKEY
  C:0000H         SYMBOL        _ICE_DUMMY_
  D:0090H         PUBLIC        P1
  B:0090H.0       PUBLIC        P1_0
  B:0090H.1       PUBLIC        P1_1
  B:0090H.2       PUBLIC        P1_2
  B:0090H.3       PUBLIC        P1_3
  B:0090H.4       PUBLIC        P1_4
  B:0090H.5       PUBLIC        P1_5
  B:0090H.6       PUBLIC        P1_6
  B:0090H.7       PUBLIC        P1_7
  C:0003H         PUBLIC        getMatrixKey
  -------         PROC          GETMATRIXKEY
  -------         DO            
  D:0008H         SYMBOL        keyNumber
  -------         ENDDO         
  C:0003H         LINE#         8
  C:0003H         LINE#         9
  C:0003H         LINE#         10
  C:0006H         LINE#         13
  C:0009H         LINE#         15
  C:000BH         LINE#         16
  C:000EH         LINE#         17
  C:000EH         LINE#         18
  C:0021H         LINE#         19
  C:0021H         LINE#         20
  C:0024H         LINE#         21
  C:0024H         LINE#         22
  C:0038H         LINE#         23
  C:0038H         LINE#         24
  C:003BH         LINE#         25
BL51 BANKED LINKER/LOCATER V6.22.2.0                                                  03/09/2024  10:29:54  PAGE 8


  C:003BH         LINE#         26
  C:004FH         LINE#         27
  C:004FH         LINE#         28
  C:0052H         LINE#         29
  C:0052H         LINE#         30
  C:0066H         LINE#         31
  C:0066H         LINE#         34
  C:0069H         LINE#         36
  C:006BH         LINE#         37
  C:006EH         LINE#         38
  C:006EH         LINE#         39
  C:0082H         LINE#         40
  C:0082H         LINE#         41
  C:0085H         LINE#         42
  C:0085H         LINE#         43
  C:0099H         LINE#         44
  C:0099H         LINE#         45
  C:009CH         LINE#         46
  C:009CH         LINE#         47
  C:00B0H         LINE#         48
  C:00B0H         LINE#         49
  C:00B3H         LINE#         50
  C:00B3H         LINE#         51
  C:00C7H         LINE#         52
  C:00C7H         LINE#         55
  C:00CAH         LINE#         57
  C:00CCH         LINE#         58
  C:00CFH         LINE#         59
  C:00CFH         LINE#         60
  C:00E3H         LINE#         61
  C:00E3H         LINE#         62
  C:00E6H         LINE#         63
  C:00E6H         LINE#         64
  C:00FAH         LINE#         65
  C:00FAH         LINE#         66
  C:00FDH         LINE#         67
  C:00FDH         LINE#         68
  C:0111H         LINE#         69
  C:0111H         LINE#         70
  C:0114H         LINE#         71
  C:0114H         LINE#         72
  C:0128H         LINE#         73
  C:0128H         LINE#         76
  C:012BH         LINE#         78
  C:012DH         LINE#         79
  C:0130H         LINE#         80
  C:0130H         LINE#         81
  C:0144H         LINE#         82
  C:0144H         LINE#         83
  C:0147H         LINE#         84
  C:0147H         LINE#         85
  C:015BH         LINE#         86
  C:015BH         LINE#         87
  C:015EH         LINE#         88
  C:015EH         LINE#         89
  C:0172H         LINE#         90
  C:0172H         LINE#         91
BL51 BANKED LINKER/LOCATER V6.22.2.0                                                  03/09/2024  10:29:54  PAGE 9


  C:0175H         LINE#         92
  C:0175H         LINE#         93
  C:0189H         LINE#         94
  C:0189H         LINE#         96
  C:018BH         LINE#         97
  -------         ENDPROC       GETMATRIXKEY
  -------         ENDMOD        MATRIXKEY

  -------         MODULE        ?C?CLDOPTR
  C:018CH         PUBLIC        ?C?CLDOPTR
  -------         ENDMOD        ?C?CLDOPTR

  -------         MODULE        ?C?IMUL
  C:01B9H         PUBLIC        ?C?IMUL
  -------         ENDMOD        ?C?IMUL

  -------         MODULE        ?C?UIDIV
  C:01CBH         PUBLIC        ?C?UIDIV
  -------         ENDMOD        ?C?UIDIV

Program Size: data=36.0 xdata=0 code=1204
LINK/LOCATE RUN COMPLETE.  0 WARNING(S),  0 ERROR(S)
