:0A01200008083C42A98585A9423C6D
:0300C50012012BFA
:1000C800E4F510F510C3E51094087480948050F09E
:1000D80074082510F8E6FD7C00AF101200EA051040
:0200E80080E3B3
:10010C00EF4E600F7D027CEFDCFEDDFCEF1F70F02C
:03011C001E80ED55
:01011F0022BD
:05012B00C2B6C2B522BE
:02008F00AD07BB
:10009100E4FBEBC394087480948050237E00748049
:1000A100A803088006CEA2E713CE13D8F8FFEDF51A
:1000B10082EF558224FF92B4D2B6C2B60B80D3D25E
:0300C100B5C2B510
:0100C4002219
:1000EA00AA07AF0512008FAF02A807748008800222
:1000FA00C313D8FCF4F5807F017E0012010C7580D1
:02010A00FF22D2
:03000000020003F8
:0C000300787FE4F6D8FD75811002004AF9
:10000F000200C5E493A3F8E493A34003F68001F242
:10001F0008DFF48029E493A3F85407240CC8C333F2
:10002F00C4540F4420C8834004F456800146F6DFC1
:10003F00E4800B0102040810204080900120E47E30
:10004F00019360BCA3FF543F30E509541FFEE493B6
:10005F00A360010ECF54C025E060A840B8E493A37D
:10006F00FAE493A3F8E493A3C8C582C8CAC583CAA8
:10007F00F0A3C8C582C8CAC583CADFE9DEE780BE60
:01012A0000D4
:00000001FF
