BL51 BANKED LINKER/LOCATER V6.22.2.0                                                    03/27/2024  15:29:03  PAGE 1


BL51 BANKED LINKER/LOCATER V6.22.2.0, INVOKED BY:
D:\KEIL_V5\C51\BIN\BL51.EXE .\Objects\main.obj, .\Objects\delay.obj, .\Objects\LCD1602.obj, .\Objects\Int0.obj, .\Object
>> s\timer0.obj, .\Objects\IR.obj TO .\Objects\Project PRINT (.\Listings\Project.m51) RAMSIZE (256) DISABLEWARNING (16)


MEMORY MODEL: SMALL


INPUT MODULES INCLUDED:
  .\Objects\main.obj (MAIN)
  .\Objects\delay.obj (DELAY)
  .\Objects\LCD1602.obj (LCD1602)
  .\Objects\Int0.obj (INT0)
  .\Objects\timer0.obj (TIMER0)
  .\Objects\IR.obj (IR)
  D:\KEIL_V5\C51\LIB\C51S.LIB (?C_STARTUP)
  D:\KEIL_V5\C51\LIB\C51S.LIB (?C?CLDOPTR)
  D:\KEIL_V5\C51\LIB\C51S.LIB (?C?IMUL)
  D:\KEIL_V5\C51\LIB\C51S.LIB (?C?UIDIV)


LINK MAP OF MODULE:  .\Objects\Project (MAIN)


            TYPE    BASE      LENGTH    RELOCATION   SEGMENT NAME
            -----------------------------------------------------

            * * * * * * *   D A T A   M E M O R Y   * * * * * * *
            REG     0000H     0008H     ABSOLUTE     "REG BANK 0"
            DATA    0008H     000CH     UNIT         ?DT?IR
            DATA    0014H     0009H     UNIT         _DATA_GROUP_
            DATA    001DH     0007H     UNIT         ?DT?_LCD_SHOWSIGNEDNUM?LCD1602
            DATA    0024H     0005H     UNIT         ?DT?_LCD_SHOWBINNUM?LCD1602
            DATA    0029H     0003H     UNIT         ?DT?MAIN
            IDATA   002CH     0001H     UNIT         ?STACK

            * * * * * * *   C O D E   M E M O R Y   * * * * * * *
            CODE    0000H     0003H     ABSOLUTE     
            CODE    0003H     0003H     ABSOLUTE     
            CODE    0006H     014BH     UNIT         ?PR?INT0_ROUTINE?IR
            CODE    0151H     0094H     UNIT         ?C?LIB_CODE
            CODE    01E5H     0078H     UNIT         ?PR?MAIN?MAIN
            CODE    025DH     004BH     UNIT         ?PR?_LCD_SHOWHEXNUM?LCD1602
            CODE    02A8H     004AH     UNIT         ?PR?_LCD_SHOWSIGNEDNUM?LCD1602
            CODE    02F2H     003DH     UNIT         ?PR?_LCD_SHOWBINNUM?LCD1602
            CODE    032FH     0031H     UNIT         ?PR?_LCD_POW?LCD1602
            CODE    0360H     0024H     UNIT         ?PR?_LCD_SHOWNUM?LCD1602
            CODE    0384H     0023H     UNIT         ?PR?_LCD_SHOWSTRING?LCD1602
            CODE    03A7H     001EH     UNIT         ?CO?MAIN
            CODE    03C5H     001EH     UNIT         ?PR?_LCD_WRITEDATA?LCD1602
            CODE    03E3H     001EH     UNIT         ?PR?_LCD_SETCURSOR?LCD1602
            CODE    0401H     0014H     UNIT         ?PR?_DELAY?DELAY
            CODE    0415H     0014H     UNIT         ?PR?LCD_INIT?LCD1602
            CODE    0429H     0010H     UNIT         ?PR?TIMER0_INIT?TIMER0
            CODE    0439H     000FH     UNIT         ?PR?LCD_DELAY?LCD1602
            CODE    0448H     000DH     UNIT         ?PR?IR_GETDATAFLAG?IR
            CODE    0455H     000DH     UNIT         ?PR?IR_GETREPEATFLAG?IR
            CODE    0462H     000CH     UNIT         ?C_C51STARTUP
BL51 BANKED LINKER/LOCATER V6.22.2.0                                                  03/27/2024  15:29:03  PAGE 2


            CODE    046EH     000BH     UNIT         ?PR?INT0_INIT?INT0
            CODE    0479H     000BH     UNIT         ?PR?_TIMER0_SETCOUNTER?TIMER0
            CODE    0484H     000AH     UNIT         ?PR?_LCD_WRITECOMMAND?LCD1602
            CODE    048EH     000AH     UNIT         ?PR?_LCD_SHOWCHAR?LCD1602
            CODE    0498H     0009H     UNIT         ?PR?TIMER0_GETCOUNTER?TIMER0
            CODE    04A1H     0006H     UNIT         ?PR?_TIMER0_RUN?TIMER0
            CODE    04A7H     0006H     UNIT         ?PR?IR_INIT?IR
            CODE    04ADH     0003H     UNIT         ?PR?IR_GETADDRESS?IR
            CODE    04B0H     0003H     UNIT         ?PR?IR_GETCOMMAND?IR



OVERLAY MAP OF MODULE:   .\Objects\Project (MAIN)


SEGMENT                                  DATA_GROUP 
  +--> CALLED SEGMENT                  START    LENGTH
------------------------------------------------------
?PR?INT0_ROUTINE?IR                    -----    -----
  +--> ?PR?_TIMER0_SETCOUNTER?TIMER0
  +--> ?PR?_TIMER0_RUN?TIMER0
  +--> ?PR?TIMER0_GETCOUNTER?TIMER0

*** NEW ROOT ***************************************************

?C_C51STARTUP                          -----    -----
  +--> ?PR?MAIN?MAIN

?PR?MAIN?MAIN                          -----    -----
  +--> ?PR?LCD_INIT?LCD1602
  +--> ?CO?MAIN
  +--> ?PR?_LCD_SHOWSTRING?LCD1602
  +--> ?PR?IR_INIT?IR
  +--> ?PR?IR_GETDATAFLAG?IR
  +--> ?PR?IR_GETREPEATFLAG?IR
  +--> ?PR?IR_GETADDRESS?IR
  +--> ?PR?IR_GETCOMMAND?IR
  +--> ?PR?_LCD_SHOWHEXNUM?LCD1602
  +--> ?PR?_LCD_SHOWNUM?LCD1602

?PR?LCD_INIT?LCD1602                   -----    -----
  +--> ?PR?_LCD_WRITECOMMAND?LCD1602

?PR?_LCD_WRITECOMMAND?LCD1602          -----    -----
  +--> ?PR?LCD_DELAY?LCD1602

?PR?_LCD_SHOWSTRING?LCD1602            0014H    0003H
  +--> ?PR?_LCD_SETCURSOR?LCD1602
  +--> ?PR?_LCD_WRITEDATA?LCD1602

?PR?_LCD_SETCURSOR?LCD1602             -----    -----
  +--> ?PR?_LCD_WRITECOMMAND?LCD1602

?PR?_LCD_WRITEDATA?LCD1602             -----    -----
  +--> ?PR?LCD_DELAY?LCD1602

?PR?IR_INIT?IR                         -----    -----
BL51 BANKED LINKER/LOCATER V6.22.2.0                                                  03/27/2024  15:29:03  PAGE 3


  +--> ?PR?TIMER0_INIT?TIMER0
  +--> ?PR?INT0_INIT?INT0

?PR?_LCD_SHOWHEXNUM?LCD1602            0014H    0005H
  +--> ?PR?_LCD_SETCURSOR?LCD1602
  +--> ?PR?_LCD_POW?LCD1602
  +--> ?PR?_LCD_WRITEDATA?LCD1602

?PR?_LCD_POW?LCD1602                   0019H    0004H

?PR?_LCD_SHOWNUM?LCD1602               0014H    0005H
  +--> ?PR?_LCD_SETCURSOR?LCD1602
  +--> ?PR?_LCD_POW?LCD1602
  +--> ?PR?_LCD_WRITEDATA?LCD1602



SYMBOL TABLE OF MODULE:  .\Objects\Project (MAIN)

  VALUE           TYPE          NAME
  ----------------------------------

  -------         MODULE        MAIN
  C:0000H         SYMBOL        _ICE_DUMMY_
  C:01E5H         PUBLIC        main
  D:0029H         PUBLIC        num
  D:002AH         PUBLIC        command
  D:002BH         PUBLIC        address
  -------         PROC          MAIN
  C:01E5H         LINE#         10
  C:01E5H         LINE#         11
  C:01E5H         LINE#         12
  C:01E8H         LINE#         13
  C:01F5H         LINE#         14
  C:0202H         LINE#         16
  C:0205H         LINE#         18
  C:0205H         LINE#         19
  C:0205H         LINE#         21
  C:0211H         LINE#         22
  C:0211H         LINE#         23
  C:0216H         LINE#         24
  C:021BH         LINE#         25
  C:022AH         LINE#         26
  C:0239H         LINE#         27
  C:0242H         LINE#         28
  C:0242H         LINE#         29
  C:0244H         LINE#         30
  C:0244H         LINE#         31
  C:024AH         LINE#         32
  C:024AH         LINE#         33
  C:024CH         LINE#         34
  C:024CH         LINE#         35
  C:025BH         LINE#         36
  C:025BH         LINE#         37
  -------         ENDPROC       MAIN
  -------         ENDMOD        MAIN

BL51 BANKED LINKER/LOCATER V6.22.2.0                                                  03/27/2024  15:29:03  PAGE 4


  -------         MODULE        DELAY
  C:0000H         SYMBOL        _ICE_DUMMY_
  C:0401H         PUBLIC        _delay
  -------         PROC          _DELAY
  D:0006H         SYMBOL        xms
  -------         DO            
  D:0005H         SYMBOL        i
  D:0004H         SYMBOL        j
  -------         ENDDO         
  C:0401H         LINE#         1
  C:0401H         LINE#         2
  C:0401H         LINE#         5
  C:0405H         LINE#         6
  C:0405H         LINE#         7
  C:0407H         LINE#         8
  C:0409H         LINE#         10
  C:0409H         LINE#         11
  C:040BH         LINE#         12
  C:040DH         LINE#         13
  C:0412H         LINE#         14
  C:0414H         LINE#         15
  -------         ENDPROC       _DELAY
  -------         ENDMOD        DELAY

  -------         MODULE        LCD1602
  C:0000H         SYMBOL        _ICE_DUMMY_
  D:0080H         PUBLIC        P0
  D:00A0H         PUBLIC        P2
  C:0484H         PUBLIC        _LCD_WriteCommand
  C:0360H         PUBLIC        _LCD_ShowNum
  C:02F2H         PUBLIC        _LCD_ShowBinNum
  C:043FH         PUBLIC        LCD_Delay
  C:025DH         PUBLIC        _LCD_ShowHexNum
  C:03D9H         PUBLIC        _LCD_WriteData
  B:00A0H.7       PUBLIC        LCD_EN
  C:0415H         PUBLIC        LCD_Init
  C:0384H         PUBLIC        _LCD_ShowString
  C:048EH         PUBLIC        _LCD_ShowChar
  B:00A0H.6       PUBLIC        LCD_RS
  B:00A0H.5       PUBLIC        LCD_RW
  C:03E3H         PUBLIC        _LCD_SetCursor
  C:02A8H         PUBLIC        _LCD_ShowSignedNum
  C:0339H         PUBLIC        _LCD_Pow
  -------         PROC          L?0047
  -------         ENDPROC       L?0047
  -------         PROC          LCD_DELAY
  -------         DO            
  D:0007H         SYMBOL        i
  D:0006H         SYMBOL        j
  -------         ENDDO         
  C:043FH         LINE#         15
  C:043FH         LINE#         16
  C:043FH         LINE#         19
  C:0441H         LINE#         20
  C:0443H         LINE#         22
  C:0443H         LINE#         23
  C:0445H         LINE#         24
BL51 BANKED LINKER/LOCATER V6.22.2.0                                                  03/27/2024  15:29:03  PAGE 5


  C:0447H         LINE#         25
  -------         ENDPROC       LCD_DELAY
  -------         PROC          _LCD_WRITECOMMAND
  D:0007H         SYMBOL        Command
  C:0484H         LINE#         32
  C:0484H         LINE#         33
  C:0484H         LINE#         34
  C:0486H         LINE#         35
  C:0486H         LINE#         36
  C:0486H         LINE#         37
  C:0486H         LINE#         38
  C:0489H         LINE#         39
  C:048BH         LINE#         40
  -------         ENDPROC       _LCD_WRITECOMMAND
  -------         PROC          L?0045
  -------         ENDPROC       L?0045
  -------         PROC          _LCD_WRITEDATA
  D:0007H         SYMBOL        Data
  C:03D9H         LINE#         48
  C:03D9H         LINE#         49
  C:03D9H         LINE#         50
  C:03DBH         LINE#         51
  C:03DBH         LINE#         52
  C:03DBH         LINE#         53
  C:03DBH         LINE#         54
  C:03DEH         LINE#         55
  C:03E0H         LINE#         56
  -------         ENDPROC       _LCD_WRITEDATA
  -------         PROC          _LCD_SETCURSOR
  D:0006H         SYMBOL        Line
  D:0005H         SYMBOL        Column
  C:03E3H         LINE#         65
  C:03E5H         LINE#         66
  C:03E5H         LINE#         67
  C:03EDH         LINE#         68
  C:03EDH         LINE#         69
  C:03EFH         LINE#         70
  C:03F1H         LINE#         71
  C:03F7H         LINE#         72
  C:03F7H         LINE#         73
  C:0400H         LINE#         74
  C:0400H         LINE#         75
  -------         ENDPROC       _LCD_SETCURSOR
  -------         PROC          LCD_INIT
  C:0415H         LINE#         82
  C:0415H         LINE#         83
  C:0415H         LINE#         84
  C:041AH         LINE#         85
  C:041FH         LINE#         86
  C:0424H         LINE#         87
  -------         ENDPROC       LCD_INIT
  -------         PROC          _LCD_SHOWCHAR
  D:0006H         SYMBOL        Line
  D:0005H         SYMBOL        Column
  D:0004H         SYMBOL        Char
  C:048EH         LINE#         97
  C:0490H         LINE#         98
BL51 BANKED LINKER/LOCATER V6.22.2.0                                                  03/27/2024  15:29:03  PAGE 6


  C:0490H         LINE#         99
  C:0493H         LINE#         100
  -------         ENDPROC       _LCD_SHOWCHAR
  -------         PROC          _LCD_SHOWSTRING
  D:0007H         SYMBOL        Line
  D:0005H         SYMBOL        Column
  D:0014H         SYMBOL        String
  -------         DO            
  D:0005H         SYMBOL        i
  -------         ENDDO         
  C:0384H         LINE#         110
  C:038AH         LINE#         111
  C:038AH         LINE#         113
  C:038DH         LINE#         114
  C:03A0H         LINE#         115
  C:03A0H         LINE#         116
  C:03A3H         LINE#         117
  C:03A6H         LINE#         118
  -------         ENDPROC       _LCD_SHOWSTRING
  -------         PROC          L?0046
  -------         ENDPROC       L?0046
  -------         PROC          _LCD_POW
  D:0019H         SYMBOL        X
  D:001BH         SYMBOL        Y
  -------         DO            
  D:0003H         SYMBOL        i
  D:0006H         SYMBOL        Result
  -------         ENDDO         
  C:0339H         LINE#         123
  C:0341H         LINE#         124
  C:0341H         LINE#         126
  C:0345H         LINE#         127
  C:0355H         LINE#         128
  C:0355H         LINE#         129
  C:035CH         LINE#         130
  C:035FH         LINE#         131
  C:035FH         LINE#         132
  -------         ENDPROC       _LCD_POW
  -------         PROC          _LCD_SHOWNUM
  D:0007H         SYMBOL        Line
  D:0005H         SYMBOL        Column
  D:0016H         SYMBOL        Number
  D:0018H         SYMBOL        Length
  -------         DO            
  D:0002H         SYMBOL        i
  -------         ENDDO         
  C:0360H         LINE#         142
  C:0364H         LINE#         143
  C:0364H         LINE#         145
  C:0367H         LINE#         146
  C:0376H         LINE#         147
  C:0376H         LINE#         148
  C:0380H         LINE#         149
  C:0383H         LINE#         150
  -------         ENDPROC       _LCD_SHOWNUM
  -------         PROC          _LCD_SHOWSIGNEDNUM
  D:0007H         SYMBOL        Line
BL51 BANKED LINKER/LOCATER V6.22.2.0                                                  03/27/2024  15:29:03  PAGE 7


  D:0005H         SYMBOL        Column
  D:0082H         SYMBOL        Number
  D:0021H         SYMBOL        Length
  -------         DO            
  D:0002H         SYMBOL        i
  D:0022H         SYMBOL        Number1
  -------         ENDDO         
  C:02A8H         LINE#         160
  C:02ACH         LINE#         161
  C:02ACH         LINE#         164
  C:02AFH         LINE#         165
  C:02B8H         LINE#         166
  C:02B8H         LINE#         167
  C:02BDH         LINE#         168
  C:02C3H         LINE#         169
  C:02C5H         LINE#         171
  C:02C5H         LINE#         172
  C:02CAH         LINE#         173
  C:02D5H         LINE#         174
  C:02D5H         LINE#         175
  C:02E4H         LINE#         176
  C:02E4H         LINE#         177
  C:02EEH         LINE#         178
  C:02F1H         LINE#         179
  -------         ENDPROC       _LCD_SHOWSIGNEDNUM
  -------         PROC          _LCD_SHOWHEXNUM
  D:0007H         SYMBOL        Line
  D:0005H         SYMBOL        Column
  D:0016H         SYMBOL        Number
  D:0018H         SYMBOL        Length
  -------         DO            
  D:0002H         SYMBOL        i
  D:0006H         SYMBOL        SingleNumber
  -------         ENDDO         
  C:025DH         LINE#         189
  C:0261H         LINE#         190
  C:0261H         LINE#         192
  C:0264H         LINE#         193
  C:0270H         LINE#         194
  C:0270H         LINE#         195
  C:0290H         LINE#         196
  C:029AH         LINE#         197
  C:029AH         LINE#         198
  C:029CH         LINE#         199
  C:029EH         LINE#         201
  C:029EH         LINE#         202
  C:02A4H         LINE#         203
  C:02A4H         LINE#         204
  C:02A7H         LINE#         205
  -------         ENDPROC       _LCD_SHOWHEXNUM
  -------         PROC          _LCD_SHOWBINNUM
  D:0007H         SYMBOL        Line
  D:0005H         SYMBOL        Column
  D:0026H         SYMBOL        Number
  D:0028H         SYMBOL        Length
  -------         DO            
  D:0002H         SYMBOL        i
BL51 BANKED LINKER/LOCATER V6.22.2.0                                                  03/27/2024  15:29:03  PAGE 8


  -------         ENDDO         
  C:02F2H         LINE#         215
  C:02F6H         LINE#         216
  C:02F6H         LINE#         218
  C:02F9H         LINE#         219
  C:0308H         LINE#         220
  C:0308H         LINE#         221
  C:032BH         LINE#         222
  C:032EH         LINE#         223
  -------         ENDPROC       _LCD_SHOWBINNUM
  -------         ENDMOD        LCD1602

  -------         MODULE        INT0
  C:0000H         SYMBOL        _ICE_DUMMY_
  B:00A8H.7       PUBLIC        EA
  B:0088H.1       PUBLIC        IE0
  B:00A8H.0       PUBLIC        EX0
  B:0088H.0       PUBLIC        IT0
  B:00B8H.0       PUBLIC        PX0
  C:046EH         PUBLIC        Int0_init
  -------         PROC          INT0_INIT
  C:046EH         LINE#         7
  C:046EH         LINE#         8
  C:046EH         LINE#         10
  C:0470H         LINE#         11
  C:0472H         LINE#         12
  C:0474H         LINE#         13
  C:0476H         LINE#         14
  C:0478H         LINE#         15
  -------         ENDPROC       INT0_INIT
  -------         ENDMOD        INT0

  -------         MODULE        TIMER0
  C:0000H         SYMBOL        _ICE_DUMMY_
  C:04A1H         PUBLIC        _timer0_run
  D:0089H         PUBLIC        TMOD
  B:0088H.5       PUBLIC        TF0
  D:008CH         PUBLIC        TH0
  D:008AH         PUBLIC        TL0
  B:0088H.4       PUBLIC        TR0
  C:0498H         PUBLIC        timer0_getCounter
  C:0479H         PUBLIC        _timer0_setCounter
  C:0429H         PUBLIC        timer0_init
  -------         PROC          TIMER0_INIT
  C:0429H         LINE#         7
  C:0429H         LINE#         8
  C:0429H         LINE#         9
  C:042CH         LINE#         10
  C:042FH         LINE#         11
  C:0432H         LINE#         12
  C:0434H         LINE#         13
  C:0436H         LINE#         14
  C:0438H         LINE#         15
  -------         ENDPROC       TIMER0_INIT
  -------         PROC          _TIMER0_SETCOUNTER
  D:0004H         SYMBOL        value
  C:0479H         LINE#         21
BL51 BANKED LINKER/LOCATER V6.22.2.0                                                  03/27/2024  15:29:03  PAGE 9


  C:047DH         LINE#         22
  C:047DH         LINE#         23
  C:047FH         LINE#         24
  C:0483H         LINE#         25
  -------         ENDPROC       _TIMER0_SETCOUNTER
  -------         PROC          TIMER0_GETCOUNTER
  C:0498H         LINE#         31
  C:0498H         LINE#         32
  C:0498H         LINE#         33
  C:04A0H         LINE#         34
  -------         ENDPROC       TIMER0_GETCOUNTER
  -------         PROC          _TIMER0_RUN
  D:0007H         SYMBOL        flag
  C:04A1H         LINE#         40
  C:04A1H         LINE#         41
  C:04A1H         LINE#         42
  C:04A6H         LINE#         43
  -------         ENDPROC       _TIMER0_RUN
  -------         ENDMOD        TIMER0

  -------         MODULE        IR
  C:0000H         SYMBOL        _ICE_DUMMY_
  C:04B0H         PUBLIC        IR_getCommand
  C:04ADH         PUBLIC        IR_getAddress
  D:0008H         PUBLIC        IR_dataFlag
  D:0009H         PUBLIC        IR_data
  C:0455H         PUBLIC        IR_getRepeatFlag
  D:000DH         PUBLIC        IR_state
  D:000EH         PUBLIC        IR_time
  C:04A7H         PUBLIC        IR_init
  C:0448H         PUBLIC        IR_getDataFlag
  C:0006H         PUBLIC        Int0_routine
  D:0010H         PUBLIC        IR_command
  D:0011H         PUBLIC        IR_address
  D:0012H         PUBLIC        IR_pData
  D:0013H         PUBLIC        IR_repeatFlag
  -------         PROC          IR_INIT
  C:04A7H         LINE#         27
  C:04A7H         LINE#         28
  C:04A7H         LINE#         29
  C:04AAH         LINE#         30
  -------         ENDPROC       IR_INIT
  -------         PROC          IR_GETDATAFLAG
  C:0448H         LINE#         37
  C:0448H         LINE#         38
  C:0448H         LINE#         39
  C:044CH         LINE#         40
  C:044CH         LINE#         41
  C:044FH         LINE#         42
  C:0452H         LINE#         43
  C:0452H         LINE#         45
  C:0454H         LINE#         46
  -------         ENDPROC       IR_GETDATAFLAG
  -------         PROC          IR_GETREPEATFLAG
  C:0455H         LINE#         52
  C:0455H         LINE#         53
  C:0455H         LINE#         54
BL51 BANKED LINKER/LOCATER V6.22.2.0                                                  03/27/2024  15:29:03  PAGE 10


  C:0459H         LINE#         55
  C:0459H         LINE#         56
  C:045CH         LINE#         57
  C:045FH         LINE#         58
  C:045FH         LINE#         60
  C:0461H         LINE#         61
  -------         ENDPROC       IR_GETREPEATFLAG
  -------         PROC          IR_GETADDRESS
  C:04ADH         LINE#         67
  C:04ADH         LINE#         68
  C:04ADH         LINE#         69
  C:04AFH         LINE#         70
  -------         ENDPROC       IR_GETADDRESS
  -------         PROC          IR_GETCOMMAND
  C:04B0H         LINE#         76
  C:04B0H         LINE#         77
  C:04B0H         LINE#         78
  C:04B2H         LINE#         79
  -------         ENDPROC       IR_GETCOMMAND
  -------         PROC          INT0_ROUTINE
  C:0006H         LINE#         82
  C:0023H         LINE#         85
  C:0027H         LINE#         86
  C:0027H         LINE#         88
  C:002CH         LINE#         90
  C:0031H         LINE#         92
  C:0031H         LINE#         93
  C:0034H         LINE#         95
  C:003AH         LINE#         96
  C:003AH         LINE#         98
  C:0041H         LINE#         100
  C:0047H         LINE#         102
  C:005FH         LINE#         103
  C:005FH         LINE#         104
  C:005FH         LINE#         105
  C:005FH         LINE#         107
  C:0074H         LINE#         108
  C:0074H         LINE#         109
  C:0077H         LINE#         111
  C:007CH         LINE#         112
  C:007CH         LINE#         113
  C:007FH         LINE#         116
  C:007FH         LINE#         117
  C:007FH         LINE#         118
  C:007FH         LINE#         119
  C:0082H         LINE#         121
  C:008BH         LINE#         122
  C:008BH         LINE#         124
  C:0092H         LINE#         126
  C:0098H         LINE#         128
  C:00ADH         LINE#         129
  C:00ADH         LINE#         131
  C:00CCH         LINE#         132
  C:00CCH         LINE#         133
  C:00CEH         LINE#         135
  C:00E3H         LINE#         136
  C:00E3H         LINE#         138
BL51 BANKED LINKER/LOCATER V6.22.2.0                                                  03/27/2024  15:29:03  PAGE 11


  C:0104H         LINE#         139
  C:0106H         LINE#         140
  C:0108H         LINE#         143
  C:0108H         LINE#         144
  C:010BH         LINE#         145
  C:010EH         LINE#         146
  C:010EH         LINE#         147
  C:010EH         LINE#         150
  C:0119H         LINE#         151
  C:0119H         LINE#         152
  C:011CH         LINE#         154
  C:0128H         LINE#         155
  C:0128H         LINE#         156
  C:012BH         LINE#         157
  C:012EH         LINE#         158
  C:0131H         LINE#         159
  C:0131H         LINE#         161
  C:0136H         LINE#         162
  C:0136H         LINE#         163
  C:0136H         LINE#         164
  -------         ENDPROC       INT0_ROUTINE
  -------         ENDMOD        IR

  -------         MODULE        ?C?CLDOPTR
  C:0151H         PUBLIC        ?C?CLDOPTR
  -------         ENDMOD        ?C?CLDOPTR

  -------         MODULE        ?C?IMUL
  C:017EH         PUBLIC        ?C?IMUL
  -------         ENDMOD        ?C?IMUL

  -------         MODULE        ?C?UIDIV
  C:0190H         PUBLIC        ?C?UIDIV
  -------         ENDMOD        ?C?UIDIV

Program Size: data=45.0 xdata=0 code=1203
LINK/LOCATE RUN COMPLETE.  0 WARNING(S),  0 ERROR(S)
