:0703040048656C6C6F2100DD
:100097001202DA7B417D017F011202FA7BFF7A03AC
:1000A70079047D037F0112026A750C027B447A0092
:1000B7007D0A7F01120240750C027BBA7AFF7D0D23
:1000C7007F01120150750C027BA87A007D017F0227
:1000D7001200FC750C087BA87A007D047F021201D0
:1000E700A07BDF7D0D7F021202FA7B437D0E7F022C
:0500F7001202FA80FE78
:1002AD00C2A6C2A58F80D2A77F017E001202C5C251
:0802BD00A77F017E000202C5CB
:10021400CFCDCFCECCCE1200427C007D0A1200425C
:04022400ED2430FF96
:10022800D2A6C2A58F80D2A77F017E001202C5C2C6
:08023800A77F017E000202C550
:1002DA007F381202AD7F0C1202AD7F061202AD7F8B
:0402EA00010202AD5E
:100293008D10EF64017007E5101444808007E510AA
:0A02A3001444802440FF1202AD2233
:0A02FA008B08120293AF08020228DD
:06026A008B088A09890AD5
:10027000E4F50B120293E4F50BAB08AA09A90A8571
:100280000B82758300120003FF6007120228050B22
:0202900080E705
:010292002249
:0A01E300EF24FFFDEE34FFFC7F0A5D
:0801ED008E108F118C128D138E
:1001F5007F017E00E4FBEBC39513E5126480F87480
:0E0205008098500AAC10AD111200300B80E84A
:0102130022C8
:040240008A0A8B0B90
:10024400E4F50D120293850C0DAF0D7E00D3EF94EF
:100254000074809480400E1201E3AC0AAD0B1202CC
:0502640014150D80E4FB
:010269002272
:040150008A0A8B0B81
:10015400E4F50D120293C3E50A64809480400D7F98
:100164002B120228850A0E850B0F80107F2D120298
:1001740028C3E4950BF50FE4950AF50E850C0DAF35
:100184000D7E00D3EF940074809480400E1201E33E
:0B019400AC0EAD0F120214150D80E43C
:01019F00223D
:0400FC008A0A8B0BD6
:10010000E4F50D120293850C0DAF0D7E00D3EF9434
:1001100000748094804038EF24FFFDEE34FFFC7FB4
:10012000101201EDAC0AAD0BCFCDCFCECCCE12006C
:1001300042EF540FF50EC3940A74809480E50E408C
:0F01400004243780022430FF120228150D80BAE4
:01014F00228D
:0401A0008A0A8B0B31
:1001A400E4F50D120293850C0DAF0D7E00D3EF9490
:1001B40000748094804027EF24FFFDEE34FFFC7F21
:1001C400021201EDAC0AAD0BCFCDCFCECCCE1200D6
:0E01D40042EF54012430FF120228150D80CB9B
:0101E20022FA
:1002C500EF4E6010007D027CC7DCFEDDFCEF1F7089
:0402D500EF1E80ECAC
:0102D9002202
:030000000202EE0B
:0C02EE00787FE4F6D8FD758113020097BC
:10000300BB010CE58229F582E5833AF583E02250B2
:1000130006E92582F8E622BBFE06E92582F8E222FC
:0D002300E58229F582E5833AF583E4932216
:10003000EF8DF0A4A8F0CF8CF0A428CE8DF0A42EE4
:02004000FE229E
:10004200BC000BBE0029EF8DF084FFADF022E4CCA2
:10005200F875F008EF2FFFEE33FEEC33FCEE9DEC6B
:10006200984005FCEE9DFE0FD5F0E9E4CEFD22EDB1
:10007200F8F5F0EE8420D21CFEADF075F008EF2FFB
:10008200FFED33FD4007985006D5F0F222C398FDEC
:050092000FD5F0EA2289
:00000001FF
