BL51 BANKED LINKER/LOCATER V6.22.2.0                                                    03/06/2024  14:24:19  PAGE 1


BL51 BANKED LINKER/LOCATER V6.22.2.0, INVOKED BY:
D:\KEIL_V5\C51\BIN\BL51.EXE .\Objects\main.obj TO .\Objects\Project PRINT (.\Listings\Project.m51) RAMSIZE (256)


MEMORY MODEL: SMALL


INPUT MODULES INCLUDED:
  .\Objects\main.obj (MAIN)
  D:\KEIL_V5\C51\LIB\C51S.LIB (?C_STARTUP)
  D:\KEIL_V5\C51\LIB\C51S.LIB (?C_INIT)


LINK MAP OF MODULE:  .\Objects\Project (MAIN)


            TYPE    BASE      LENGTH    RELOCATION   SEGMENT NAME
            -----------------------------------------------------

            * * * * * * *   D A T A   M E M O R Y   * * * * * * *
            REG     0000H     0008H     ABSOLUTE     "REG BANK 0"
            DATA    0008H     000AH     UNIT         ?DT?MAIN
            IDATA   0012H     0001H     UNIT         ?STACK

            * * * * * * *   C O D E   M E M O R Y   * * * * * * *
            CODE    0000H     0003H     ABSOLUTE     
            CODE    0003H     008CH     UNIT         ?C_C51STARTUP
            CODE    008FH     0069H     UNIT         ?PR?_NIXIETUBE?MAIN
            CODE    00F8H     001DH     UNIT         ?PR?MAIN?MAIN
            CODE    0115H     0014H     UNIT         ?PR?_DELAY?MAIN
            CODE    0129H     000DH     UNIT         ?C_INITSEG



OVERLAY MAP OF MODULE:   .\Objects\Project (MAIN)


SEGMENT
  +--> CALLED SEGMENT
---------------------
?C_C51STARTUP
  +--> ?PR?MAIN?MAIN
  +--> ?C_INITSEG

?PR?MAIN?MAIN
  +--> ?PR?_NIXIETUBE?MAIN

?PR?_NIXIETUBE?MAIN
  +--> ?PR?_DELAY?MAIN



SYMBOL TABLE OF MODULE:  .\Objects\Project (MAIN)

  VALUE           TYPE          NAME
  ----------------------------------

  -------         MODULE        MAIN
BL51 BANKED LINKER/LOCATER V6.22.2.0                                                  03/06/2024  14:24:19  PAGE 2


  C:0000H         SYMBOL        _ICE_DUMMY_
  D:0080H         PUBLIC        P0
  C:0115H         PUBLIC        _delay
  B:00A0H.2       PUBLIC        P2_2
  B:00A0H.3       PUBLIC        P2_3
  B:00A0H.4       PUBLIC        P2_4
  C:00F8H         PUBLIC        main
  C:008FH         PUBLIC        _nixieTube
  D:0008H         PUBLIC        arr
  -------         PROC          _DELAY
  D:0006H         SYMBOL        xms
  -------         DO            
  D:0005H         SYMBOL        i
  D:0004H         SYMBOL        j
  -------         ENDDO         
  C:0115H         LINE#         3
  C:0115H         LINE#         4
  C:0115H         LINE#         7
  C:0119H         LINE#         8
  C:0119H         LINE#         9
  C:011BH         LINE#         10
  C:011DH         LINE#         12
  C:011DH         LINE#         13
  C:011FH         LINE#         14
  C:0121H         LINE#         15
  C:0126H         LINE#         16
  C:0128H         LINE#         17
  -------         ENDPROC       _DELAY
  -------         PROC          _NIXIETUBE
  D:0007H         SYMBOL        location
  D:0004H         SYMBOL        number
  C:008FH         LINE#         24
  C:008FH         LINE#         25
  C:008FH         LINE#         27
  C:00BCH         LINE#         28
  C:00BCH         LINE#         29
  C:00BCH         LINE#         30
  C:00BCH         LINE#         31
  C:00C0H         LINE#         33
  C:00C0H         LINE#         34
  C:00C4H         LINE#         35
  C:00C4H         LINE#         36
  C:00C8H         LINE#         37
  C:00C8H         LINE#         38
  C:00D0H         LINE#         39
  C:00D0H         LINE#         40
  C:00D8H         LINE#         41
  C:00D8H         LINE#         42
  C:00E0H         LINE#         43
  C:00E0H         LINE#         44
  C:00E6H         LINE#         45
  C:00E6H         LINE#         47
  C:00EDH         LINE#         48
  C:00F4H         LINE#         50
  C:00F7H         LINE#         51
  -------         ENDPROC       _NIXIETUBE
  -------         PROC          MAIN
BL51 BANKED LINKER/LOCATER V6.22.2.0                                                  03/06/2024  14:24:19  PAGE 3


  C:00F8H         LINE#         53
  C:00F8H         LINE#         54
  C:00F8H         LINE#         56
  C:00F8H         LINE#         57
  C:00F8H         LINE#         58
  C:0101H         LINE#         60
  C:010AH         LINE#         62
  C:0113H         LINE#         64
  -------         ENDPROC       MAIN
  -------         ENDMOD        MAIN

Program Size: data=19.0 xdata=0 code=310
LINK/LOCATE RUN COMPLETE.  0 WARNING(S),  0 ERROR(S)
