:100A1A00543A0054483A00544C3A002D002B002E08
:100A2A00004F563A48004F563A4C002020202000EA
:10046D00E4FF1208E58F107F011208E58F0AD3E52E
:10047D0010947D748094805011C3EF94C97480944E
:10048D007F4007E510D3950A5006751014750A0FB5
:10049D00120B227FE87E03120AEB120AFF7BFF7A12
:1004AD000A791A7D017F011209D57BFF7A0A791D20
:1004BD007D017F021209D5E510FB7A007519037DC8
:1004CD00047F021207BB7BFF7A0A79217D097F0227
:1004DD001209D5E50AFB7A007519037D0C7F02120E
:1004ED0007BB120AA8120B221209158F0F8E0E8D43
:1004FD000D8C0CE4FFFEFDFCAB0FAA0EA90DA80C94
:10050D001201B47BFF50207A0A79257D037F0112F9
:10051D0009D5AF0FAE0EAD0DAC0C12022D8F148E92
:10052D00138D128C1180177A0A79277D037F0112A2
:10053D0009D5850F14850E13850D12850C11AF1479
:10054D00AE13AD12AC1112027CAB07AA06751903DE
:10055D007D047F0112098D7BFF7A0A79297D077F42
:10056D00011209D57F007E407D1C7C46AB14AA1379
:10057D00A912A81112000E12027CE47B107A27F941
:10058D00F81203CD7519047D087F0112098D120B28
:10059D007B8F0BE50B700302063C7E00640170122D
:1005AD000510D3E510947D74809480401675107DF0
:1005BD008011EF64024E700B1510E510D3950A50A3
:1005CD00020510AF0B7E00EF6403700D050AE50AFE
:1005DD00C39510401A150A8016EF64044E7010155D
:1005ED000AC3E50A94C97480947F5003750AC9E55E
:1005FD0010FB7A007519037D047F021207BBE50A13
:10060D00FB7A007519037D0C7F021207BBE510FD07
:10061D007C00E4FF1209B17F057E00120AEBE50AAA
:10062D00FD7C007F011209B17F057E00120AEBAC43
:10063D0010E4120248AB0FAA0EA90DA80C1201B4BA
:10064D00600A40087BFF7A0A792B8019AC0AE41204
:10065D000248AB0FAA0EA90DA80C1201B450107BC5
:10066D00FF7A0A79307D0D7F011209D50204F27BE4
:0F067D00FF7A0A79357D0D7F011209D50204F24B
:03000B00020718D1
:10071800C0E0C0F0C083C082C0D075D000C000C0A7
:0D07280001C002C003C004C005C006C00728
:10073500758A18758CFC0509E50970020508C394CE
:1007450014E50894004009750800750900120805AC
:10075500D007D006D005D004D003D002D001D000F8
:0B076500D0D0D082D083D0F0D0E032A2
:050B6900007FE3DFFE48
:010B6E002264
:050B6F00007F1DDFFE08
:010B7400225E
:040B81007F02DFFE12
:010B8500224D
:050B7500007F14DFFE0B
:010B7A002258
:01000A0022D3
:100A7600C2AFD2B7C2B7120B69D2B7120B6FA2B709
:090A8600E433FE120B69D2AFFF4C
:010A8F002244
:100ABF00AE07C2AFC2B7120B81EE24FF92B7120B73
:060ACF0075D2B7D2AF2280
:100A9000C2AFC2B712000AD2B712000AA2B7E4333B
:070AA000FE120B75D2AFFF3F
:010AA700222C
:0209F800AD0749
:1009FA00E4FCECC39408748094805013A804740136
:0F0A0A00088002C333D8FC5DFF120ABF0C80E3E3
:010A190022BA
:10096700E4FDFCEDC39408748094805016120A903D
:10097700EF600DA8057401088002C333D8FC420458
:050987000D80E0AF044B
:01098C002248
:100AEB00EF4E600F7D027CEFDCFEDDFCEF1F70F044
:030AFB001E80ED6D
:010AFE0022D5
:0D0B2200120A767FCC1209F87F440209F810
:10091500120A767FCC1209F87FBE1209F812096710
:100925008F15120967EFFEE515FFFDAC06EC120207
:0B09350043E4FBFA79807841020117CF
:060B1300C2A58F80D2A7ED
:080B19007F027EEFDEFEDFFC2F
:010B210022B1
:0A0B3B00C2A6120B13C2A7020B1989
:100A3A00CFCDCFCECCCE12033C7C007D0A12033C34
:040A4A00ED2430FF68
:0A0A4E00D2A6120B13C2A7020B1967
:100A5800AE07EEFB7A0064017004ED148009EB64C4
:0E0A6800024A7009ED243F4480FF120B3B222E
:100AFF007F38120B3B7F0C120B3B7F06120B3B7F99
:040B0F0001020B3B99
:0A0B4500AC03120A58AF04020A4E76
:0609D5008B158A1689173C
:1009DB00120A58E4FDAB15AA16A9178D8275830070
:0C09EB001202FDFF6006120A4E0D80E9AA
:0109F70022DD
:0A08B400EF24FFFDEE34FFFC7F0A85
:0808BE008E1C8F1D8C1E8D1F86
:1008C6007F017E00E4FBEBC3951FE51E6480F87490
:0E08D6008098500AAC1CAD1D12032A0B80E85E
:0108E40022F1
:04098D008A178B1822
:10099100120A58AA19EAFF7E00D394007480948049
:0F09A100400D1208B4AC17AD18120A3A1A80E6CE
:0109B0002224
:0407BB008B828A8320
:1007BF00120A58C3E58364809480400D7F2B120A80
:1007CF004E85831A85821B80107F2D120A4EC3E43B
:1007DF009582F51BE49583F51AAA19EAFF7E00D3DB
:1007EF00940074809480400D1208B4AC1AAD1B12A3
:0507FF000A3A1A80E631
:0108040022D1
:040770008A228B232B
:10077400120A58AA24EAD39400748094804037EA79
:1007840024FFFDE434FFFC7F107E001208BEAC227F
:10079400AD23CFCDCFCECCCE12033CEF540FFEC34E
:1007A400940A74809480EE5004243080022437FF2D
:0607B400120A4E1A80BF7C
:0107BA00221C
:040845008A278B284B
:10084900120A58AA29EAFF7E00D394007480948082
:100859004026EF24FFFDEE34FFFC7F021208BEACF8
:1008690027AD28CFCDCFCECCCE12033CEF540124F7
:0808790030FF120A4E1A80CD77
:010881002254
:100AA8005389F0438901758A18758CFCC28DD28CE4
:070AB800D2A9D2AFC2B8229F
:1009B1008F158C168D17120B597FA0120882120BFE
:1009C1002FAF15120882120B2FAF17120882120BCC
:0409D1002F020003EE
:0208E5008F156D
:1008E700120B597FA0120882120B2FAF1512088224
:1008F700120B2F120B597FA1120882120B2F12090C
:0D090700408F167F01120B4F120003AF1638
:0109140022C0
:090B5900D2A0D2A1C2A0C2A122C7
:07000300C2A0D2A1D2A0228D
:02088200AD07C0
:10088400E4FBEBC394087480948050237E0074804E
:10089400A803088006CEA2E713CE13D8F8FFEDF51F
:0F08A40082EF558224FF92A0D2A1C2A10B80D374
:0108B3002222
:10094000E4FFFED2A0EEC39408748094805017D2C6
:10095000A130A00DA8067480088002C313D8FC4201
:0609600007C2A10E80DFBA
:01096600226E
:0A0B4F00EF24FF92A0D2A1C2A12260
:0B0B2F00D2A0D2A1A2A0E433FFC2A11B
:010B3A002298
:060B6200012A00012B0036
:050B7B00AF2CE4F52C95
:010B80002252
:100AD500E4FF20B1010F20B0027F0220B2027F03A4
:050AE50020B3027F04B4
:010AEA0022E9
:10080500852B2A120AD58F2BAF2A7E00EF64017043
:1008150007E52B7003752C01EF64024E7007E52B7D
:100825007003752C02E52A64037007E52B700375C8
:0F0835002C03E52A64047007E52B7003752C046F
:010844002291
:10000E00EC4D6011E8497017ED33EC3304600DE4EC
:10001E00FCFFFEFD22E933E8330470F80202E81219
:10002E0002B358046009E4CC24815006285009021A
:10003E0002F22840030202EFC0E0EB4A7044B9809E
:10004E0006D0E0FB0202DEEF4E701CBD8008EBFF17
:10005E00EAFEE9FD80EBE98DF0A4FEE5F00200F783
:10006E00E9CDF9EAFEEBFFEF89F0A4FCE5F0CE89CD
:10007E00F0A42EFFE435F0CD89F0A42DFEE435F08A
:10008E008067EF4E7005BD80D780C3EF8BF0A4ACB8
:10009E00F0EE8BF0A42CFCE435F0F8EF8AF0A42CF3
:1000AE00E5F038FCE433CB8DF0A42CFCE5F03BF806
:1000BE00EE8AF0A42CFCE5F038F8E433CF89F0A4F6
:1000CE002CFCE5F038CF3400CE89F0A42FFFE5F0FC
:1000DE003EFEE433C98DF0A42EFEE5F039CD8AF054
:1000EE00A42FFFE5F03EFEE43DFD33D0E0FB5007CC
:1000FE000BBB000F0202F2EC2CFCEF33FFEE33FED3
:06010E00ED33FD0202CA00
:100114000202F2EC5D046005E8590470030202E88F
:100124001202B3580460F6EC4860F2EC7004FDFE71
:10013400FF22C860DB2481C85009C39860025006BE
:100144000202EF9850CAF582E9294B4A7005AB8246
:100154000202DE75F0007C1A7880C3EF9BEE9AED04
:1001640099400DC3EF9BFFEE9AFEED99FDE842F036
:10017400DC23ACF0D0E0FFD0E0FED0E0FDAB822089
:10018400E7101BEB60BAEC2CFCEF33FFEE33FEED13
:1001940033FD0202CAE803F830E705C0F075F00049
:1001A400EF2FFFEE33FEED33FD40B830E7C280AAF7
:1001B40074F8CC6480CCC86480C8F58204604FC3F2
:1001C400EB9FF5F0EA9E42F0E99D42F0E89C45F091
:1001D400603C501DE5825FFFE582D313CB5BCBF41B
:1001E4002B5582FB50280ABA002409B90020088044
:1001F4001DE5825BFBE582D313CF5FCFF4C3132FDE
:100204005582FF50090EBE00050DBD00010CC3EB65
:100214009FF5F0EA9E42F0E99D42F0E89C45F060CB
:0902240007CC4820E701B3EC22ED
:10022D00ED33EC33600A047003BD8004ECB2E7FCDF
:01023D00229E
:10023E0075F020800E75F010800575F0087D007E3B
:10024E00007F003392D530D50312045FEC3340109B
:10025E00EF33FFEE33FEED33FDEC33FCD5F0ED2244
:0E026E00E5F0247EA2D513CC92E7CDCEFF2280
:10027C00EDD2E7CD33EC3392D524814006E4FFFE7A
:10028C00FDFC22FCE4CFCECDCC24E0501174FF80D9
:10029C00EDC3CC13CCCD13CDCE13CECF13CF047076
:0702AC00F030D5DE02045F13
:1002B300E9D2E7C933E833F892D5EDD2E7CD33EC91
:0702C30033FC5002B2D5220A
:1002CA00EC30E7100FBF000C0EBE00080DBD000495
:1002DA000BEB6014A2D5EB13FCED92E7FD2274FF41
:1002EA00FCFDFEFF22E480F8A2D574FF13FC7D809A
:0302FA00E480EFAE
:0300000002068C69
:0C068C00787FE4F6D8FD75812C0206D3BF
:1002FD00BB010CE58229F582E5833AF583E02250B6
:10030D0006E92582F8E622BBFE06E92582F8E222FF
:0D031D00E58229F582E5833AF583E4932219
:10032A00EF8DF0A4A8F0CF8CF0A428CE8DF0A42EE7
:02033A00FE22A1
:10033C00BC000BBE0029EF8DF084FFADF022E4CCA5
:10034C00F875F008EF2FFFEE33FEEC33FCEE9DEC6E
:10035C00984005FCEE9DFE0FD5F0E9E4CEFD22EDB4
:10036C00F8F5F0EE8420D21CFEADF075F008EF2FFE
:10037C00FFED33FD4007985006D5F0F222C398FDEF
:05038C000FD5F0EA228C
:1003910075F008758200EF2FFFEE33FECD33CDCC23
:1003A10033CCC58233C5829BED9AEC99E5829840A6
:1003B1000CF582EE9BFEED9AFDEC99FC0FD5F0D683
:1003C100E4CEFBE4CDFAE4CCF9A88222B800C1B9AD
:1003D1000059BA002DEC8BF084CFCECDFCE5F0CBEB
:1003E100F97818EF2FFFEE33FEED33FDEC33FCEB24
:1003F10033FB10D703994004EB99FB0FD8E5E4F9DF
:10040100FA227818EF2FFFEE33FEED33FDEC33FCCB
:10041100C933C910D7059BE99A4007EC9BFCE99ABF
:10042100F90FD8E0E4C9FAE4CCFB2275F010EF2F04
:10043100FFEE33FEED33FDCC33CCC833C810D70704
:100441009BEC9AE899400AED9BFDEC9AFCE899F83F
:0E0451000FD5F0DAE4CDFBE4CCFAE4C8F922D2
:0E045F00C3E49FFFE49EFEE49DFDE49CFC22AE
:1006980002046DE493A3F8E493A34003F68001F207
:1006A80008DFF48029E493A3F85407240CC8C33363
:1006B800C4540F4420C8834004F456800146F6DF32
:1006C800E4800B0102040810204080900B62E47E55
:1006D800019360BCA3FF543F30E509541FFEE49327
:1006E800A360010ECF54C025E060A840B8E493A3EE
:1006F800FAE493A3F8E493A3C8C582C8CAC583CA19
:10070800F0A3C8C582C8CAC583CADFE9DEE780BED0
:010B6800008C
:00000001FF
