:10000E00120074E4F509C3E5099464748094805079
:10001E000E85090A7F0A7E0012008B050980E7759E
:10002E000964D3E50994007480948040D685090A4A
:0B003E007F0A7E0012008B150980E78E
:03000B00020049A7
:10004900C0E0C0F0C0D0758AA4758CFF0508E5082A
:1000590075F0648485F008E508C3950A5004D2A1B7
:0B0069008002C2A1D0D0D0F0D0E03265
:10008B00EF4E600F7D027CEFDCFEDDFCEF1F70F0AE
:03009B001E80EDD7
:01009E00223F
:100074005389F0438901758AA4758CFFC28DD28C93
:07008400D2A9D2AFC2B822DD
:0300000002009F5C
:0C009F00787FE4F6D8FD75810A02000E9F
:00000001FF
