:0B04910048656C6C6F576F726C640064
:0304B00001220026
:1003AF0012046E7BFF7A0479917D017F011203FBAA
:1003BF001200038F22E52260F7FB7A00750C027D95
:0803CF00017F021203D780E850
:10045A00EF4E600F7D027CEFDCFEDDFCEF1F70F0DB
:03046A001E80ED04
:01046D00226C
:06048200C2A58F80D2A785
:080488007F027EEFDEFEDFFCC7
:010490002249
:0A049C00C2A6120482C2A70204885F
:10041E00CFCDCFCECCCE1201CB7C007D0A1201CB3C
:04042E00ED2430FF8A
:0A043200D2A6120482C2A7020488B9
:10043C00AE07EEFB7A0064017004ED148009EB64E6
:0E044C00024A7009ED243F4480FF12049C22F6
:10046E007F3812049C7F0C12049C7F0612049C7F22
:04047E000102049CD7
:0A04A600AC0312043CAF0402043260
:0603FB008B088A09890A43
:1004010012043CE4FDAB08AA09A90A8D8275830098
:0C04110012018CFF60061204320D80E91D
:01041D0022BC
:0A037E00EF24FFFDEE34FFFC7F0AC0
:080388008E0D8F0E8C0F8D10FD
:100390007F017E00E4FBEBC39510E50F6480F874E9
:0E03A0008098500AAC0DAD0E1201B90B80E82A
:0103AE00222C
:0403D7008A0A8B0BF8
:1003DB0012043CAA0CEAFF7E00D394007480948034
:0F03EB00400D12037EAC0AAD0B12041E1A80E601
:0103FA0022E0
:0402F7008B828A83E9
:1002FB0012043CC3E58364809480400D7F2B120471
:10030B003285831685821780107F2D120432C3E449
:10031B009582F517E49583F516AA15EAFF7E00D3AF
:10032B00940074809480400D12037EAC16AD1712AE
:05033B00041E1A80E61B
:01034000229A
:0402AC008A1A8B1B04
:1002B00012043CAA1CEAD39400748094804037EA6C
:1002C00024FFFDE434FFFC7F107E00120388AC1A8B
:1002D000AD1BCFCDCFCECCCE1201CBEF540FFEC392
:1002E000940A74809480EE5004243080022437FFF6
:0602F0001204321A80BF67
:0102F60022E5
:040341008A1F8B2064
:1003450012043CAA21EAFF7E00D3940074809480B5
:100355004026EF24FFFDEE34FFFC7F02120388AC3C
:100365001FAD20CFCDCFCECCCE1201CBEF54012483
:0803750030FF1204321A80CDA2
:01037D00225D
:10000300E4F5087590FFC2932097137F14FE120442
:100013005A3097FD7F147E0012045A75080120960A
:10002300147F147E0012045A3096FD7F147E001252
:10003300045A7508052095147F147E0012045A3063
:1000430095FD7F147E0012045A7508092094147FCD
:10005300147E0012045A3094FD7F147E0012045A59
:1000630075080D7590FFC2922097147F147E0012BD
:10007300045A3097FD7F147E0012045A750802203B
:1000830096147F147E0012045A3096FD7F147E006E
:1000930012045A7508062095147F147E0012045A20
:1000A3003095FD7F147E0012045A75080A209414BB
:1000B3007F147E0012045A3094FD7F147E001204D4
:1000C3005A75080E7590FFC2912097147F147E0015
:1000D30012045A3097FD7F147E0012045A750803E8
:1000E3002096147F147E0012045A3096FD7F147EEE
:1000F3000012045A7508072095147F147E00120419
:100103005A3095FD7F147E0012045A75080B209413
:10011300147F147E0012045A3094FD7F147E001263
:10012300045A75080F7590FFC2902097147F147EB0
:100133000012045A3097FD7F147E0012045A75088A
:10014300042096147F147E0012045A3096FD7F1407
:100153007E0012045A7508082095147F147E00123D
:10016300045A3095FD7F147E0012045A75080C2042
:1001730094147F147E0012045A3094FD7F147E0081
:0801830012045A750810AF08C0
:01018B002251
:03000000020220D9
:0C022000787FE4F6D8FD758122020267A9
:10018C00BB010CE58229F582E5833AF583E0225028
:10019C0006E92582F8E622BBFE06E92582F8E22272
:0D01AC00E58229F582E5833AF583E493228C
:1001B900EF8DF0A4A8F0CF8CF0A428CE8DF0A42E5A
:0201C900FE2214
:1001CB00BC000BBE0029EF8DF084FFADF022E4CC18
:1001DB00F875F008EF2FFFEE33FEEC33FCEE9DECE1
:1001EB00984005FCEE9DFE0FD5F0E9E4CEFD22ED27
:1001FB00F8F5F0EE8420D21CFEADF075F008EF2F71
:10020B00FFED33FD4007985006D5F0F222C398FD61
:05021B000FD5F0EA22FE
:10022C000203AFE493A3F8E493A34003F68001F236
:10023C0008DFF48029E493A3F85407240CC8C333D3
:10024C00C4540F4420C8834004F456800146F6DFA2
:10025C00E4800B01020408102040809004B0E47E7E
:10026C00019360BCA3FF543F30E509541FFEE49397
:10027C00A360010ECF54C025E060A840B8E493A35E
:10028C00FAE493A3F8E493A3C8C582C8CAC583CA89
:10029C00F0A3C8C582C8CAC583CADFE9DEE780BE41
:0104B3000048
:00000001FF
