BL51 BANKED LINKER/LOCATER V6.22.2.0                                                    03/20/2024  16:30:26  PAGE 1


BL51 BANKED LINKER/LOCATER V6.22.2.0, INVOKED BY:
D:\KEIL_V5\C51\BIN\BL51.EXE .\Objects\delay.obj, .\Objects\key.obj, .\Objects\timer0.obj, .\Objects\AT24C02.obj, .\Objec
>> ts\I2C.obj, .\Objects\main.obj, .\Objects\nixie.obj TO .\Objects\Project PRINT (.\Listings\Project.m51) RAMSIZE (256)
>>  DISABLEWARNING (16)


MEMORY MODEL: SMALL


INPUT MODULES INCLUDED:
  .\Objects\delay.obj (DELAY)
  .\Objects\key.obj (KEY)
  .\Objects\timer0.obj (TIMER0)
  .\Objects\AT24C02.obj (AT24C02)
  .\Objects\I2C.obj (I2C)
  .\Objects\main.obj (MAIN)
  .\Objects\nixie.obj (NIXIE)
  D:\KEIL_V5\C51\LIB\C51S.LIB (?C_STARTUP)
  D:\KEIL_V5\C51\LIB\C51S.LIB (?C_INIT)


LINK MAP OF MODULE:  .\Objects\Project (DELAY)


            TYPE    BASE      LENGTH    RELOCATION   SEGMENT NAME
            -----------------------------------------------------

            * * * * * * *   D A T A   M E M O R Y   * * * * * * *
            REG     0000H     0008H     ABSOLUTE     "REG BANK 0"
            DATA    0008H     0016H     UNIT         ?DT?NIXIE
            DATA    001EH     000BH     UNIT         ?DT?MAIN
            DATA    0029H     0003H     UNIT         ?DT?KEY
            DATA    002CH     0003H     UNIT         _DATA_GROUP_
            IDATA   002FH     0001H     UNIT         ?STACK

            * * * * * * *   C O D E   M E M O R Y   * * * * * * *
            CODE    0000H     0003H     ABSOLUTE     
            CODE    0003H     0007H     UNIT         ?PR?I2C_STOP?I2C
                    000AH     0001H                  *** GAP ***
            CODE    000BH     0003H     ABSOLUTE     
            CODE    000EH     00F4H     UNIT         ?PR?MAIN?MAIN
            CODE    0102H     008CH     UNIT         ?PR?TIME0_ROUNTINE?MAIN
            CODE    018EH     008CH     UNIT         ?C_C51STARTUP
            CODE    021AH     0066H     UNIT         ?PR?_NIXIETUBE_SCAN?NIXIE
            CODE    0280H     0040H     UNIT         ?PR?KEY_LOOP?KEY
            CODE    02C0H     0035H     UNIT         ?PR?SEC_LOOP?MAIN
            CODE    02F5H     0032H     UNIT         ?PR?_I2C_SENDBYTE?I2C
            CODE    0327H     0030H     UNIT         ?PR?_AT24C02_READBYTE?AT24C02
            CODE    0357H     0027H     UNIT         ?PR?I2C_RECEIVEBYTE?I2C
            CODE    037EH     0024H     UNIT         ?PR?_AT24C02_WRITEBYTE?AT24C02
            CODE    03A2H     0023H     UNIT         ?C_INITSEG
            CODE    03C5H     001FH     UNIT         ?PR?NIXIETUBE_LOOP?NIXIE
            CODE    03E4H     0017H     UNIT         ?PR?TIMER0_INIT?TIMER0
            CODE    03FBH     0016H     UNIT         ?PR?GETKEYSTATUS?KEY
            CODE    0411H     0014H     UNIT         ?PR?_DELAY?DELAY
            CODE    0425H     000CH     UNIT         ?PR?RECEIVEACK?I2C
            CODE    0431H     000AH     UNIT         ?PR?_I2C_SENDACK?I2C
            CODE    043BH     0009H     UNIT         ?PR?I2C_START?I2C
BL51 BANKED LINKER/LOCATER V6.22.2.0                                                  03/20/2024  16:30:26  PAGE 2


            CODE    0444H     0009H     UNIT         ?PR?_NIXIETUBE_SETBUF?NIXIE
            CODE    044DH     0006H     UNIT         ?PR?GETKEY?KEY



OVERLAY MAP OF MODULE:   .\Objects\Project (DELAY)


SEGMENT                                  DATA_GROUP 
  +--> CALLED SEGMENT                  START    LENGTH
------------------------------------------------------
?PR?TIME0_ROUNTINE?MAIN                -----    -----
  +--> ?PR?KEY_LOOP?KEY
  +--> ?PR?NIXIETUBE_LOOP?NIXIE
  +--> ?PR?SEC_LOOP?MAIN

?PR?KEY_LOOP?KEY                       -----    -----
  +--> ?PR?GETKEYSTATUS?KEY

?PR?NIXIETUBE_LOOP?NIXIE               -----    -----
  +--> ?PR?_NIXIETUBE_SCAN?NIXIE

*** NEW ROOT ***************************************************

?C_C51STARTUP                          -----    -----
  +--> ?PR?MAIN?MAIN
  +--> ?C_INITSEG

?PR?MAIN?MAIN                          -----    -----
  +--> ?PR?TIMER0_INIT?TIMER0
  +--> ?PR?GETKEY?KEY
  +--> ?PR?_AT24C02_WRITEBYTE?AT24C02
  +--> ?PR?_DELAY?DELAY
  +--> ?PR?_AT24C02_READBYTE?AT24C02
  +--> ?PR?_NIXIETUBE_SETBUF?NIXIE

?PR?_AT24C02_WRITEBYTE?AT24C02         002CH    0003H
  +--> ?PR?I2C_START?I2C
  +--> ?PR?_I2C_SENDBYTE?I2C
  +--> ?PR?RECEIVEACK?I2C
  +--> ?PR?I2C_STOP?I2C

?PR?_AT24C02_READBYTE?AT24C02          002CH    0002H
  +--> ?PR?I2C_START?I2C
  +--> ?PR?_I2C_SENDBYTE?I2C
  +--> ?PR?RECEIVEACK?I2C
  +--> ?PR?I2C_RECEIVEBYTE?I2C
  +--> ?PR?_I2C_SENDACK?I2C
  +--> ?PR?I2C_STOP?I2C



SYMBOL TABLE OF MODULE:  .\Objects\Project (DELAY)

  VALUE           TYPE          NAME
  ----------------------------------

BL51 BANKED LINKER/LOCATER V6.22.2.0                                                  03/20/2024  16:30:26  PAGE 3


  -------         MODULE        DELAY
  C:0000H         SYMBOL        _ICE_DUMMY_
  C:0411H         PUBLIC        _delay
  -------         PROC          _DELAY
  D:0006H         SYMBOL        xms
  -------         DO            
  D:0005H         SYMBOL        i
  D:0004H         SYMBOL        j
  -------         ENDDO         
  C:0411H         LINE#         1
  C:0411H         LINE#         2
  C:0411H         LINE#         5
  C:0415H         LINE#         6
  C:0415H         LINE#         7
  C:0417H         LINE#         8
  C:0419H         LINE#         10
  C:0419H         LINE#         11
  C:041BH         LINE#         12
  C:041DH         LINE#         13
  C:0422H         LINE#         14
  C:0424H         LINE#         15
  -------         ENDPROC       _DELAY
  -------         ENDMOD        DELAY

  -------         MODULE        KEY
  C:0000H         SYMBOL        _ICE_DUMMY_
  B:00B0H.0       PUBLIC        P3_0
  B:00B0H.1       PUBLIC        P3_1
  B:00B0H.2       PUBLIC        P3_2
  B:00B0H.3       PUBLIC        P3_3
  D:002BH         PUBLIC        key
  C:0280H         PUBLIC        key_loop
  C:044DH         PUBLIC        getKey
  C:03FBH         PUBLIC        getKeyStatus
  -------         PROC          GETKEY
  -------         DO            
  D:0007H         SYMBOL        temp
  -------         ENDDO         
  C:044DH         LINE#         11
  C:044DH         LINE#         12
  C:044DH         LINE#         15
  C:044FH         LINE#         17
  C:0452H         LINE#         19
  C:0452H         LINE#         20
  -------         ENDPROC       GETKEY
  -------         PROC          GETKEYSTATUS
  -------         DO            
  D:0007H         SYMBOL        keyNumber
  -------         ENDDO         
  C:03FBH         LINE#         26
  C:03FBH         LINE#         27
  C:03FBH         LINE#         28
  C:03FDH         LINE#         30
  C:0401H         LINE#         31
  C:0406H         LINE#         32
  C:040BH         LINE#         33
  C:0410H         LINE#         35
BL51 BANKED LINKER/LOCATER V6.22.2.0                                                  03/20/2024  16:30:26  PAGE 4


  C:0410H         LINE#         36
  -------         ENDPROC       GETKEYSTATUS
  -------         PROC          KEY_LOOP
  -------         DO            
  D:0029H         SYMBOL        lastStatus
  D:002AH         SYMBOL        currentStatus
  -------         ENDDO         
  C:0280H         LINE#         43
  C:0280H         LINE#         44
  C:0280H         LINE#         48
  C:0283H         LINE#         50
  C:0288H         LINE#         53
  C:0295H         LINE#         54
  C:0295H         LINE#         55
  C:0298H         LINE#         56
  C:0298H         LINE#         57
  C:02A2H         LINE#         58
  C:02A2H         LINE#         59
  C:02A5H         LINE#         60
  C:02A5H         LINE#         61
  C:02AFH         LINE#         62
  C:02AFH         LINE#         63
  C:02B2H         LINE#         64
  C:02B2H         LINE#         65
  C:02BCH         LINE#         66
  C:02BCH         LINE#         67
  C:02BFH         LINE#         68
  C:02BFH         LINE#         69
  -------         ENDPROC       KEY_LOOP
  -------         ENDMOD        KEY

  -------         MODULE        TIMER0
  C:0000H         SYMBOL        _ICE_DUMMY_
  B:00A8H.7       PUBLIC        EA
  D:0089H         PUBLIC        TMOD
  B:00A8H.1       PUBLIC        ET0
  B:0088H.5       PUBLIC        TF0
  D:008CH         PUBLIC        TH0
  D:008AH         PUBLIC        TL0
  B:0088H.4       PUBLIC        TR0
  B:00B8H.0       PUBLIC        PX0
  C:03E4H         PUBLIC        timer0_init
  -------         PROC          TIMER0_INIT
  C:03E4H         LINE#         7
  C:03E4H         LINE#         8
  C:03E4H         LINE#         9
  C:03E7H         LINE#         10
  C:03EAH         LINE#         11
  C:03EDH         LINE#         12
  C:03F0H         LINE#         13
  C:03F2H         LINE#         14
  C:03F4H         LINE#         15
  C:03F6H         LINE#         16
  C:03F8H         LINE#         17
  C:03FAH         LINE#         18
  -------         ENDPROC       TIMER0_INIT
  -------         ENDMOD        TIMER0
BL51 BANKED LINKER/LOCATER V6.22.2.0                                                  03/20/2024  16:30:26  PAGE 5



  -------         MODULE        AT24C02
  C:0000H         SYMBOL        _ICE_DUMMY_
  C:0327H         PUBLIC        _AT24C02_readByte
  C:037EH         PUBLIC        _AT24C02_writeByte
  -------         PROC          _AT24C02_WRITEBYTE
  D:002CH         SYMBOL        wordAddress
  D:002DH         SYMBOL        byte
  C:037EH         LINE#         12
  C:0384H         LINE#         13
  C:0384H         LINE#         14
  C:0387H         LINE#         15
  C:038CH         LINE#         16
  C:038FH         LINE#         17
  C:0394H         LINE#         18
  C:0397H         LINE#         19
  C:039CH         LINE#         20
  C:039FH         LINE#         21
  -------         ENDPROC       _AT24C02_WRITEBYTE
  -------         PROC          _AT24C02_READBYTE
  D:002CH         SYMBOL        wordAddress
  -------         DO            
  D:002DH         SYMBOL        byte
  -------         ENDDO         
  C:0327H         LINE#         28
  C:0329H         LINE#         29
  C:0329H         LINE#         32
  C:032CH         LINE#         33
  C:0331H         LINE#         34
  C:0334H         LINE#         35
  C:0339H         LINE#         36
  C:033CH         LINE#         37
  C:033FH         LINE#         38
  C:0344H         LINE#         39
  C:0347H         LINE#         40
  C:034CH         LINE#         41
  C:0351H         LINE#         42
  C:0354H         LINE#         44
  C:0356H         LINE#         45
  -------         ENDPROC       _AT24C02_READBYTE
  -------         ENDMOD        AT24C02

  -------         MODULE        I2C
  C:0000H         SYMBOL        _ICE_DUMMY_
  B:00A0H.1       PUBLIC        I2C_SCL
  D:00A0H         PUBLIC        P2
  C:0431H         PUBLIC        _I2C_sendACK
  C:043BH         PUBLIC        I2C_Start
  C:0425H         PUBLIC        receiveACK
  C:02F5H         PUBLIC        _I2C_SendByte
  C:0003H         PUBLIC        I2C_Stop
  B:00A0H.0       PUBLIC        I2C_SDA
  C:0357H         PUBLIC        I2C_ReceiveByte
  -------         PROC          I2C_START
  C:043BH         LINE#         10
  C:043BH         LINE#         11
  C:043BH         LINE#         12
BL51 BANKED LINKER/LOCATER V6.22.2.0                                                  03/20/2024  16:30:26  PAGE 6


  C:043DH         LINE#         13
  C:043FH         LINE#         14
  C:0441H         LINE#         15
  C:0443H         LINE#         16
  -------         ENDPROC       I2C_START
  -------         PROC          I2C_STOP
  C:0003H         LINE#         22
  C:0003H         LINE#         23
  C:0003H         LINE#         24
  C:0005H         LINE#         25
  C:0007H         LINE#         26
  C:0009H         LINE#         27
  -------         ENDPROC       I2C_STOP
  -------         PROC          _I2C_SENDBYTE
  D:0005H         SYMBOL        byte
  -------         DO            
  D:0003H         SYMBOL        i
  -------         ENDDO         
  C:02F5H         LINE#         33
  C:02F7H         LINE#         34
  C:02F7H         LINE#         35
  C:02F9H         LINE#         36
  C:0303H         LINE#         37
  C:0303H         LINE#         39
  C:031FH         LINE#         40
  C:0321H         LINE#         41
  C:0323H         LINE#         42
  C:0326H         LINE#         43
  -------         ENDPROC       _I2C_SENDBYTE
  -------         PROC          I2C_RECEIVEBYTE
  -------         DO            
  D:0007H         SYMBOL        byte
  D:0006H         SYMBOL        i
  -------         ENDDO         
  C:0357H         LINE#         49
  C:0357H         LINE#         50
  C:0357H         LINE#         51
  C:0359H         LINE#         52
  C:035AH         LINE#         55
  C:035CH         LINE#         57
  C:0366H         LINE#         58
  C:0366H         LINE#         59
  C:0368H         LINE#         62
  C:036BH         LINE#         63
  C:036BH         LINE#         64
  C:0378H         LINE#         65
  C:0378H         LINE#         67
  C:037AH         LINE#         68
  C:037DH         LINE#         70
  C:037DH         LINE#         71
  -------         ENDPROC       I2C_RECEIVEBYTE
  -------         PROC          _I2C_SENDACK
  D:0007H         SYMBOL        ack
  C:0431H         LINE#         77
  C:0431H         LINE#         78
  C:0431H         LINE#         79
  C:0436H         LINE#         80
BL51 BANKED LINKER/LOCATER V6.22.2.0                                                  03/20/2024  16:30:26  PAGE 7


  C:0438H         LINE#         81
  C:043AH         LINE#         82
  -------         ENDPROC       _I2C_SENDACK
  -------         PROC          RECEIVEACK
  -------         DO            
  D:0007H         SYMBOL        ack
  -------         ENDDO         
  C:0425H         LINE#         88
  C:0425H         LINE#         89
  C:0425H         LINE#         93
  C:0427H         LINE#         94
  C:0429H         LINE#         95
  C:042EH         LINE#         96
  C:0430H         LINE#         98
  C:0430H         LINE#         99
  -------         ENDPROC       RECEIVEACK
  -------         ENDMOD        I2C

  -------         MODULE        MAIN
  C:0000H         SYMBOL        _ICE_DUMMY_
  D:0024H         PUBLIC        second
  D:0025H         PUBLIC        miniSecond
  D:0026H         PUBLIC        minute
  C:000EH         PUBLIC        main
  D:0027H         PUBLIC        keyNumber
  D:008CH         PUBLIC        TH0
  D:008AH         PUBLIC        TL0
  D:0028H         PUBLIC        runFlag
  C:02C0H         PUBLIC        sec_loop
  C:0102H         PUBLIC        Time0_Rountine
  -------         PROC          MAIN
  C:000EH         LINE#         12
  C:000EH         LINE#         13
  C:000EH         LINE#         14
  C:0011H         LINE#         16
  C:0011H         LINE#         17
  C:0011H         LINE#         18
  C:0016H         LINE#         20
  C:001DH         LINE#         21
  C:001DH         LINE#         23
  C:0029H         LINE#         24
  C:002BH         LINE#         26
  C:0031H         LINE#         27
  C:0031H         LINE#         28
  C:0033H         LINE#         29
  C:0035H         LINE#         30
  C:0037H         LINE#         32
  C:0039H         LINE#         33
  C:003BH         LINE#         35
  C:0041H         LINE#         36
  C:0041H         LINE#         37
  C:004BH         LINE#         38
  C:0052H         LINE#         39
  C:005CH         LINE#         40
  C:0063H         LINE#         41
  C:006DH         LINE#         42
  C:0074H         LINE#         43
BL51 BANKED LINKER/LOCATER V6.22.2.0                                                  03/20/2024  16:30:26  PAGE 8


  C:0076H         LINE#         45
  C:007CH         LINE#         46
  C:007CH         LINE#         47
  C:0082H         LINE#         48
  C:0089H         LINE#         49
  C:0090H         LINE#         51
  C:0093H         LINE#         52
  C:0093H         LINE#         55
  C:00A1H         LINE#         56
  C:00B1H         LINE#         57
  C:00BAH         LINE#         58
  C:00C8H         LINE#         59
  C:00D8H         LINE#         60
  C:00E1H         LINE#         61
  C:00EFH         LINE#         62
  C:00FFH         LINE#         63
  -------         ENDPROC       MAIN
  -------         PROC          SEC_LOOP
  C:02C0H         LINE#         70
  C:02C0H         LINE#         71
  C:02C0H         LINE#         72
  C:02C4H         LINE#         73
  C:02C4H         LINE#         74
  C:02C6H         LINE#         75
  C:02D1H         LINE#         76
  C:02D1H         LINE#         77
  C:02D4H         LINE#         78
  C:02D6H         LINE#         79
  C:02E1H         LINE#         80
  C:02E1H         LINE#         81
  C:02E4H         LINE#         82
  C:02E6H         LINE#         83
  C:02F1H         LINE#         84
  C:02F1H         LINE#         85
  C:02F4H         LINE#         86
  C:02F4H         LINE#         87
  C:02F4H         LINE#         88
  C:02F4H         LINE#         89
  C:02F4H         LINE#         90
  -------         ENDPROC       SEC_LOOP
  -------         PROC          TIME0_ROUNTINE
  -------         DO            
  D:001EH         SYMBOL        t0Count1
  D:0020H         SYMBOL        t0Count2
  D:0022H         SYMBOL        t0Count3
  -------         ENDDO         
  C:0102H         LINE#         96
  C:011FH         LINE#         99
  C:0122H         LINE#         100
  C:0125H         LINE#         102
  C:012DH         LINE#         104
  C:0136H         LINE#         105
  C:0136H         LINE#         106
  C:013CH         LINE#         107
  C:013FH         LINE#         108
  C:013FH         LINE#         109
  C:0147H         LINE#         110
BL51 BANKED LINKER/LOCATER V6.22.2.0                                                  03/20/2024  16:30:26  PAGE 9


  C:0150H         LINE#         111
  C:0150H         LINE#         112
  C:0156H         LINE#         113
  C:0159H         LINE#         114
  C:0159H         LINE#         115
  C:0161H         LINE#         116
  C:016AH         LINE#         117
  C:016AH         LINE#         118
  C:0170H         LINE#         119
  C:0173H         LINE#         120
  C:0173H         LINE#         121
  -------         ENDPROC       TIME0_ROUNTINE
  -------         ENDMOD        MAIN

  -------         MODULE        NIXIE
  C:0000H         SYMBOL        _ICE_DUMMY_
  D:0080H         PUBLIC        P0
  C:0444H         PUBLIC        _nixieTube_setBuf
  B:00A0H.2       PUBLIC        P2_2
  B:00A0H.3       PUBLIC        P2_3
  B:00A0H.4       PUBLIC        P2_4
  C:021AH         PUBLIC        _nixieTube_scan
  D:0009H         PUBLIC        nixie_buf
  D:0012H         PUBLIC        arr
  C:03C5H         PUBLIC        nixieTube_loop
  -------         PROC          _NIXIETUBE_SETBUF
  D:0007H         SYMBOL        location
  D:0004H         SYMBOL        number
  C:0444H         LINE#         14
  C:0444H         LINE#         15
  C:0444H         LINE#         16
  C:044CH         LINE#         17
  -------         ENDPROC       _NIXIETUBE_SETBUF
  -------         PROC          _NIXIETUBE_SCAN
  D:0007H         SYMBOL        location
  D:0004H         SYMBOL        number
  C:021AH         LINE#         24
  C:021AH         LINE#         25
  C:021AH         LINE#         27
  C:021DH         LINE#         30
  C:024AH         LINE#         31
  C:024AH         LINE#         32
  C:024AH         LINE#         33
  C:024EH         LINE#         34
  C:024EH         LINE#         35
  C:0252H         LINE#         36
  C:0252H         LINE#         37
  C:0256H         LINE#         38
  C:0256H         LINE#         39
  C:025AH         LINE#         40
  C:025AH         LINE#         41
  C:0262H         LINE#         42
  C:0262H         LINE#         43
  C:026AH         LINE#         44
  C:026AH         LINE#         45
  C:0272H         LINE#         46
  C:0272H         LINE#         47
BL51 BANKED LINKER/LOCATER V6.22.2.0                                                  03/20/2024  16:30:26  PAGE 10


  C:0278H         LINE#         48
  C:0278H         LINE#         51
  C:027FH         LINE#         52
  -------         ENDPROC       _NIXIETUBE_SCAN
  -------         PROC          NIXIETUBE_LOOP
  -------         DO            
  D:0008H         SYMBOL        i
  -------         ENDDO         
  C:03C5H         LINE#         58
  C:03C5H         LINE#         59
  C:03C5H         LINE#         61
  C:03D3H         LINE#         62
  C:03D5H         LINE#         63
  C:03E0H         LINE#         64
  C:03E0H         LINE#         65
  C:03E3H         LINE#         66
  C:03E3H         LINE#         67
  -------         ENDPROC       NIXIETUBE_LOOP
  -------         ENDMOD        NIXIE

Program Size: data=48.0 xdata=0 code=1106
LINK/LOCATE RUN COMPLETE.  0 WARNING(S),  0 ERROR(S)
