BL51 BANKED LINKER/LOCATER V6.22.2.0                                                    03/27/2024  16:17:17  PAGE 1


BL51 BANKED LINKER/LOCATER V6.22.2.0, INVOKED BY:
D:\KEIL_V5\C51\BIN\BL51.EXE .\Objects\main.obj, .\Objects\key.obj, .\Objects\nixie.obj, .\Objects\delay.obj, .\Objects\t
>> imer1.obj, .\Objects\Motor.obj, .\Objects\Int0.obj, .\Objects\IR.obj, .\Objects\timer0.obj TO .\Objects\Project PRINT
>>  (.\Listings\Project.m51) RAMSIZE (256) DISABLEWARNING (16)


MEMORY MODEL: SMALL


INPUT MODULES INCLUDED:
  .\Objects\main.obj (MAIN)
  .\Objects\key.obj (KEY)
  .\Objects\nixie.obj (NIXIE)
  .\Objects\delay.obj (DELAY)
  .\Objects\timer1.obj (TIMER1)
  .\Objects\Motor.obj (MOTOR)
  .\Objects\Int0.obj (INT0)
  .\Objects\IR.obj (IR)
  .\Objects\timer0.obj (TIMER0)
  D:\KEIL_V5\C51\LIB\C51S.LIB (?C_STARTUP)
  D:\KEIL_V5\C51\LIB\C51S.LIB (?C_INIT)


LINK MAP OF MODULE:  .\Objects\Project (MAIN)


            TYPE    BASE      LENGTH    RELOCATION   SEGMENT NAME
            -----------------------------------------------------

            * * * * * * *   D A T A   M E M O R Y   * * * * * * *
            REG     0000H     0008H     ABSOLUTE     "REG BANK 0"
            DATA    0008H     000CH     UNIT         ?DT?IR
            DATA    0014H     000AH     UNIT         ?DT?NIXIE
            DATA    001EH     0002H     UNIT         ?DT?MAIN
            DATA    0020H     0002H     UNIT         ?DT?MOTOR
            DATA    0022H     0001H     UNIT         ?DT?GETKEYNUMBER?KEY
            IDATA   0023H     0001H     UNIT         ?STACK

            * * * * * * *   C O D E   M E M O R Y   * * * * * * *
            CODE    0000H     0003H     ABSOLUTE     
            CODE    0003H     0003H     ABSOLUTE     
            CODE    0006H     0014H     UNIT         ?PR?_DELAY?DELAY
                    001AH     0001H                  *** GAP ***
            CODE    001BH     0003H     ABSOLUTE     
            CODE    001EH     014BH     UNIT         ?PR?INT0_ROUTINE?IR
            CODE    0169H     008CH     UNIT         ?C_C51STARTUP
            CODE    01F5H     006DH     UNIT         ?PR?_NIXIETUBE?NIXIE
            CODE    0262H     006AH     UNIT         ?PR?MAIN?MAIN
            CODE    02CCH     0061H     UNIT         ?PR?GETKEYNUMBER?KEY
            CODE    032DH     002BH     UNIT         ?PR?TIME1_ROUNTINE?MOTOR
            CODE    0358H     0017H     UNIT         ?PR?TIMER1_INIT?TIMER1
            CODE    036FH     0010H     UNIT         ?PR?TIMER0_INIT?TIMER0
            CODE    037FH     000DH     UNIT         ?C_INITSEG
            CODE    038CH     000DH     UNIT         ?PR?IR_GETDATAFLAG?IR
            CODE    0399H     000DH     UNIT         ?PR?IR_GETREPEATFLAG?IR
            CODE    03A6H     000BH     UNIT         ?PR?INT0_INIT?INT0
            CODE    03B1H     000BH     UNIT         ?PR?_TIMER0_SETCOUNTER?TIMER0
            CODE    03BCH     0009H     UNIT         ?PR?TIMER0_GETCOUNTER?TIMER0
BL51 BANKED LINKER/LOCATER V6.22.2.0                                                  03/27/2024  16:17:17  PAGE 2


            CODE    03C5H     0006H     UNIT         ?PR?IR_INIT?IR
            CODE    03CBH     0006H     UNIT         ?PR?_TIMER0_RUN?TIMER0
            CODE    03D1H     0003H     UNIT         ?PR?MOTOR_INIT?MOTOR
            CODE    03D4H     0003H     UNIT         ?PR?_MOTOR_SETCOMPARE?MOTOR
            CODE    03D7H     0003H     UNIT         ?PR?IR_GETADDRESS?IR
            CODE    03DAH     0003H     UNIT         ?PR?IR_GETCOMMAND?IR



OVERLAY MAP OF MODULE:   .\Objects\Project (MAIN)


SEGMENT
  +--> CALLED SEGMENT
---------------------
?PR?INT0_ROUTINE?IR
  +--> ?PR?_TIMER0_SETCOUNTER?TIMER0
  +--> ?PR?_TIMER0_RUN?TIMER0
  +--> ?PR?TIMER0_GETCOUNTER?TIMER0

*** NEW ROOT ***************************************************

?C_C51STARTUP
  +--> ?PR?MAIN?MAIN
  +--> ?C_INITSEG

?PR?MAIN?MAIN
  +--> ?PR?MOTOR_INIT?MOTOR
  +--> ?PR?IR_INIT?IR
  +--> ?PR?IR_GETDATAFLAG?IR
  +--> ?PR?IR_GETCOMMAND?IR
  +--> ?PR?_MOTOR_SETCOMPARE?MOTOR
  +--> ?PR?_NIXIETUBE?NIXIE

?PR?MOTOR_INIT?MOTOR
  +--> ?PR?TIMER1_INIT?TIMER1

?PR?IR_INIT?IR
  +--> ?PR?TIMER0_INIT?TIMER0
  +--> ?PR?INT0_INIT?INT0

?PR?_NIXIETUBE?NIXIE
  +--> ?PR?_DELAY?DELAY



SYMBOL TABLE OF MODULE:  .\Objects\Project (MAIN)

  VALUE           TYPE          NAME
  ----------------------------------

  -------         MODULE        MAIN
  C:0000H         SYMBOL        _ICE_DUMMY_
  D:001EH         PUBLIC        speed
  C:0262H         PUBLIC        main
  D:001FH         PUBLIC        command
  -------         PROC          MAIN
BL51 BANKED LINKER/LOCATER V6.22.2.0                                                  03/27/2024  16:17:17  PAGE 3


  C:0262H         LINE#         9
  C:0262H         LINE#         10
  C:0262H         LINE#         11
  C:0265H         LINE#         12
  C:0268H         LINE#         13
  C:0268H         LINE#         14
  C:0268H         LINE#         15
  C:026EH         LINE#         16
  C:026EH         LINE#         17
  C:0273H         LINE#         18
  C:027CH         LINE#         19
  C:0285H         LINE#         20
  C:028EH         LINE#         21
  C:0297H         LINE#         24
  C:029FH         LINE#         25
  C:02AAH         LINE#         26
  C:02B5H         LINE#         27
  C:02C0H         LINE#         28
  C:02C0H         LINE#         29
  C:02CAH         LINE#         30
  -------         ENDPROC       MAIN
  -------         ENDMOD        MAIN

  -------         MODULE        KEY
  C:0000H         SYMBOL        _ICE_DUMMY_
  B:00B0H.0       PUBLIC        P3_0
  B:00B0H.1       PUBLIC        P3_1
  B:00B0H.2       PUBLIC        P3_2
  B:00B0H.3       PUBLIC        P3_3
  C:02CCH         PUBLIC        getKeyNumber
  -------         PROC          GETKEYNUMBER
  -------         DO            
  D:0022H         SYMBOL        keyNumber
  -------         ENDDO         
  C:02CCH         LINE#         8
  C:02CCH         LINE#         9
  C:02CCH         LINE#         10
  C:02CFH         LINE#         12
  C:02E5H         LINE#         13
  C:02FCH         LINE#         14
  C:0313H         LINE#         15
  C:032AH         LINE#         17
  C:032CH         LINE#         18
  -------         ENDPROC       GETKEYNUMBER
  -------         ENDMOD        KEY

  -------         MODULE        NIXIE
  C:0000H         SYMBOL        _ICE_DUMMY_
  D:0080H         PUBLIC        P0
  B:00A0H.2       PUBLIC        P2_2
  B:00A0H.3       PUBLIC        P2_3
  B:00A0H.4       PUBLIC        P2_4
  C:01F5H         PUBLIC        _nixieTube
  D:0014H         PUBLIC        arr
  -------         PROC          _NIXIETUBE
  D:0007H         SYMBOL        location
  D:0004H         SYMBOL        number
BL51 BANKED LINKER/LOCATER V6.22.2.0                                                  03/27/2024  16:17:17  PAGE 4


  C:01F5H         LINE#         8
  C:01F5H         LINE#         9
  C:01F5H         LINE#         11
  C:0222H         LINE#         12
  C:0222H         LINE#         13
  C:0222H         LINE#         14
  C:0226H         LINE#         15
  C:0226H         LINE#         16
  C:022AH         LINE#         17
  C:022AH         LINE#         18
  C:022EH         LINE#         19
  C:022EH         LINE#         20
  C:0232H         LINE#         21
  C:0232H         LINE#         22
  C:023AH         LINE#         23
  C:023AH         LINE#         24
  C:0242H         LINE#         25
  C:0242H         LINE#         26
  C:024AH         LINE#         27
  C:024AH         LINE#         28
  C:0250H         LINE#         29
  C:0250H         LINE#         31
  C:0257H         LINE#         32
  C:025EH         LINE#         34
  C:0261H         LINE#         35
  -------         ENDPROC       _NIXIETUBE
  -------         ENDMOD        NIXIE

  -------         MODULE        DELAY
  C:0000H         SYMBOL        _ICE_DUMMY_
  C:0006H         PUBLIC        _delay
  -------         PROC          _DELAY
  D:0006H         SYMBOL        xms
  -------         DO            
  D:0005H         SYMBOL        i
  D:0004H         SYMBOL        j
  -------         ENDDO         
  C:0006H         LINE#         1
  C:0006H         LINE#         2
  C:0006H         LINE#         5
  C:000AH         LINE#         6
  C:000AH         LINE#         7
  C:000CH         LINE#         8
  C:000EH         LINE#         10
  C:000EH         LINE#         11
  C:0010H         LINE#         12
  C:0012H         LINE#         13
  C:0017H         LINE#         14
  C:0019H         LINE#         15
  -------         ENDPROC       _DELAY
  -------         ENDMOD        DELAY

  -------         MODULE        TIMER1
  C:0000H         SYMBOL        _ICE_DUMMY_
  B:00A8H.7       PUBLIC        EA
  D:0089H         PUBLIC        TMOD
  B:00A8H.3       PUBLIC        ET1
BL51 BANKED LINKER/LOCATER V6.22.2.0                                                  03/27/2024  16:17:17  PAGE 5


  B:0088H.7       PUBLIC        TF1
  D:008DH         PUBLIC        TH1
  D:008BH         PUBLIC        TL1
  B:0088H.6       PUBLIC        TR1
  B:00B8H.2       PUBLIC        PX1
  C:0358H         PUBLIC        timer1_init
  -------         PROC          TIMER1_INIT
  C:0358H         LINE#         7
  C:0358H         LINE#         8
  C:0358H         LINE#         9
  C:035BH         LINE#         10
  C:035EH         LINE#         11
  C:0361H         LINE#         12
  C:0364H         LINE#         13
  C:0366H         LINE#         14
  C:0368H         LINE#         15
  C:036AH         LINE#         16
  C:036CH         LINE#         17
  C:036EH         LINE#         18
  -------         ENDPROC       TIMER1_INIT
  -------         ENDMOD        TIMER1

  -------         MODULE        MOTOR
  C:0000H         SYMBOL        _ICE_DUMMY_
  D:0090H         PUBLIC        P1
  B:0090H.0       PUBLIC        MOTER
  C:03D4H         PUBLIC        _Motor_setCompare
  C:03D1H         PUBLIC        Motor_init
  D:0020H         PUBLIC        count
  D:008DH         PUBLIC        TH1
  D:008BH         PUBLIC        TL1
  D:0021H         PUBLIC        compare
  C:032DH         PUBLIC        Time1_Rountine
  -------         PROC          MOTOR_INIT
  C:03D1H         LINE#         13
  C:03D1H         LINE#         14
  C:03D1H         LINE#         15
  -------         ENDPROC       MOTOR_INIT
  -------         PROC          _MOTOR_SETCOMPARE
  D:0007H         SYMBOL        speed
  C:03D4H         LINE#         22
  C:03D4H         LINE#         23
  C:03D4H         LINE#         24
  C:03D6H         LINE#         25
  -------         ENDPROC       _MOTOR_SETCOMPARE
  -------         PROC          TIME1_ROUNTINE
  C:032DH         LINE#         28
  C:0333H         LINE#         30
  C:0336H         LINE#         31
  C:0339H         LINE#         32
  C:033BH         LINE#         33
  C:0344H         LINE#         35
  C:034BH         LINE#         36
  C:034BH         LINE#         37
  C:034DH         LINE#         38
  C:034FH         LINE#         41
  C:034FH         LINE#         42
BL51 BANKED LINKER/LOCATER V6.22.2.0                                                  03/27/2024  16:17:17  PAGE 6


  C:0351H         LINE#         43
  C:0351H         LINE#         44
  -------         ENDPROC       TIME1_ROUNTINE
  -------         ENDMOD        MOTOR

  -------         MODULE        INT0
  C:0000H         SYMBOL        _ICE_DUMMY_
  B:00A8H.7       PUBLIC        EA
  B:0088H.1       PUBLIC        IE0
  B:00A8H.0       PUBLIC        EX0
  B:0088H.0       PUBLIC        IT0
  B:00B8H.0       PUBLIC        PX0
  C:03A6H         PUBLIC        Int0_init
  -------         PROC          INT0_INIT
  C:03A6H         LINE#         7
  C:03A6H         LINE#         8
  C:03A6H         LINE#         10
  C:03A8H         LINE#         11
  C:03AAH         LINE#         12
  C:03ACH         LINE#         13
  C:03AEH         LINE#         14
  C:03B0H         LINE#         15
  -------         ENDPROC       INT0_INIT
  -------         ENDMOD        INT0

  -------         MODULE        IR
  C:0000H         SYMBOL        _ICE_DUMMY_
  C:03DAH         PUBLIC        IR_getCommand
  C:03D7H         PUBLIC        IR_getAddress
  D:0008H         PUBLIC        IR_dataFlag
  D:0009H         PUBLIC        IR_data
  C:0399H         PUBLIC        IR_getRepeatFlag
  D:000DH         PUBLIC        IR_state
  D:000EH         PUBLIC        IR_time
  C:03C5H         PUBLIC        IR_init
  C:038CH         PUBLIC        IR_getDataFlag
  C:001EH         PUBLIC        Int0_routine
  D:0010H         PUBLIC        IR_command
  D:0011H         PUBLIC        IR_address
  D:0012H         PUBLIC        IR_pData
  D:0013H         PUBLIC        IR_repeatFlag
  -------         PROC          IR_INIT
  C:03C5H         LINE#         27
  C:03C5H         LINE#         28
  C:03C5H         LINE#         29
  C:03C8H         LINE#         30
  -------         ENDPROC       IR_INIT
  -------         PROC          IR_GETDATAFLAG
  C:038CH         LINE#         37
  C:038CH         LINE#         38
  C:038CH         LINE#         39
  C:0390H         LINE#         40
  C:0390H         LINE#         41
  C:0393H         LINE#         42
  C:0396H         LINE#         43
  C:0396H         LINE#         45
  C:0398H         LINE#         46
BL51 BANKED LINKER/LOCATER V6.22.2.0                                                  03/27/2024  16:17:17  PAGE 7


  -------         ENDPROC       IR_GETDATAFLAG
  -------         PROC          IR_GETREPEATFLAG
  C:0399H         LINE#         52
  C:0399H         LINE#         53
  C:0399H         LINE#         54
  C:039DH         LINE#         55
  C:039DH         LINE#         56
  C:03A0H         LINE#         57
  C:03A3H         LINE#         58
  C:03A3H         LINE#         60
  C:03A5H         LINE#         61
  -------         ENDPROC       IR_GETREPEATFLAG
  -------         PROC          IR_GETADDRESS
  C:03D7H         LINE#         67
  C:03D7H         LINE#         68
  C:03D7H         LINE#         69
  C:03D9H         LINE#         70
  -------         ENDPROC       IR_GETADDRESS
  -------         PROC          IR_GETCOMMAND
  C:03DAH         LINE#         76
  C:03DAH         LINE#         77
  C:03DAH         LINE#         78
  C:03DCH         LINE#         79
  -------         ENDPROC       IR_GETCOMMAND
  -------         PROC          INT0_ROUTINE
  C:001EH         LINE#         82
  C:003BH         LINE#         85
  C:003FH         LINE#         86
  C:003FH         LINE#         88
  C:0044H         LINE#         90
  C:0049H         LINE#         92
  C:0049H         LINE#         93
  C:004CH         LINE#         95
  C:0052H         LINE#         96
  C:0052H         LINE#         98
  C:0059H         LINE#         100
  C:005FH         LINE#         102
  C:0077H         LINE#         103
  C:0077H         LINE#         104
  C:0077H         LINE#         105
  C:0077H         LINE#         107
  C:008CH         LINE#         108
  C:008CH         LINE#         109
  C:008FH         LINE#         111
  C:0094H         LINE#         112
  C:0094H         LINE#         113
  C:0097H         LINE#         116
  C:0097H         LINE#         117
  C:0097H         LINE#         118
  C:0097H         LINE#         119
  C:009AH         LINE#         121
  C:00A3H         LINE#         122
  C:00A3H         LINE#         124
  C:00AAH         LINE#         126
  C:00B0H         LINE#         128
  C:00C5H         LINE#         129
  C:00C5H         LINE#         131
BL51 BANKED LINKER/LOCATER V6.22.2.0                                                  03/27/2024  16:17:17  PAGE 8


  C:00E4H         LINE#         132
  C:00E4H         LINE#         133
  C:00E6H         LINE#         135
  C:00FBH         LINE#         136
  C:00FBH         LINE#         138
  C:011CH         LINE#         139
  C:011EH         LINE#         140
  C:0120H         LINE#         143
  C:0120H         LINE#         144
  C:0123H         LINE#         145
  C:0126H         LINE#         146
  C:0126H         LINE#         147
  C:0126H         LINE#         150
  C:0131H         LINE#         151
  C:0131H         LINE#         152
  C:0134H         LINE#         154
  C:0140H         LINE#         155
  C:0140H         LINE#         156
  C:0143H         LINE#         157
  C:0146H         LINE#         158
  C:0149H         LINE#         159
  C:0149H         LINE#         161
  C:014EH         LINE#         162
  C:014EH         LINE#         163
  C:014EH         LINE#         164
  -------         ENDPROC       INT0_ROUTINE
  -------         ENDMOD        IR

  -------         MODULE        TIMER0
  C:0000H         SYMBOL        _ICE_DUMMY_
  C:03CBH         PUBLIC        _timer0_run
  D:0089H         PUBLIC        TMOD
  B:0088H.5       PUBLIC        TF0
  D:008CH         PUBLIC        TH0
  D:008AH         PUBLIC        TL0
  B:0088H.4       PUBLIC        TR0
  C:03BCH         PUBLIC        timer0_getCounter
  C:03B1H         PUBLIC        _timer0_setCounter
  C:036FH         PUBLIC        timer0_init
  -------         PROC          TIMER0_INIT
  C:036FH         LINE#         7
  C:036FH         LINE#         8
  C:036FH         LINE#         9
  C:0372H         LINE#         10
  C:0375H         LINE#         11
  C:0378H         LINE#         12
  C:037AH         LINE#         13
  C:037CH         LINE#         14
  C:037EH         LINE#         15
  -------         ENDPROC       TIMER0_INIT
  -------         PROC          _TIMER0_SETCOUNTER
  D:0004H         SYMBOL        value
  C:03B1H         LINE#         21
  C:03B5H         LINE#         22
  C:03B5H         LINE#         23
  C:03B7H         LINE#         24
  C:03BBH         LINE#         25
BL51 BANKED LINKER/LOCATER V6.22.2.0                                                  03/27/2024  16:17:17  PAGE 9


  -------         ENDPROC       _TIMER0_SETCOUNTER
  -------         PROC          TIMER0_GETCOUNTER
  C:03BCH         LINE#         31
  C:03BCH         LINE#         32
  C:03BCH         LINE#         33
  C:03C4H         LINE#         34
  -------         ENDPROC       TIMER0_GETCOUNTER
  -------         PROC          _TIMER0_RUN
  D:0007H         SYMBOL        flag
  C:03CBH         LINE#         40
  C:03CBH         LINE#         41
  C:03CBH         LINE#         42
  C:03D0H         LINE#         43
  -------         ENDPROC       _TIMER0_RUN
  -------         ENDMOD        TIMER0

Program Size: data=36.0 xdata=0 code=988
LINK/LOCATE RUN COMPLETE.  0 WARNING(S),  0 ERROR(S)
