:1003A700414444522020434D4420204E554D0030B7
:0E03B700302020202030302020203030300038
:1001E5001204157BFF7A0379A77D017F0112038431
:1001F5007BFF7A0379B67D017F021203841204A77F
:10020500120448EF7006120455EF60F41204AD8F26
:100215002B1204B08F2AE52BFB7A007518027D019D
:100225007F0212025DE52AFB7A007518027D077FC1
:100235000212025DAF2A7E00EF644070021529EFBD
:1002450064434E70020529E529FB7A007518037D84
:080255000C7F0212036080A877
:10040100EF4E600F7D027CEFDCFEDDFCEF1F70F034
:030411001E80ED5D
:0104140022C5
:06043900C2A58F80D2A7CE
:08043F007F027EEFDEFEDFFC10
:010447002292
:0A048400C2A6120439C2A702043F09
:1003C500CFCDCFCECCCE1201907C007D0A1201900C
:0403D500ED2430FFE4
:0A03D900D2A6120439C2A702043FA5
:1003E300AE07EEFB7A0064017004ED148009EB6440
:0E03F300024A7009ED243F4480FF1204842268
:100415007F381204847F0C1204847F061204847FC3
:040425000102048448
:0A048E00AC031203E3AF040203D92C
:060384008B148A15891696
:10038A001203E3E4FDAB14AA15A9168D8275830046
:0C039A00120151FF60061203D90D80E92A
:0103A6002234
:0A032F00EF24FFFDEE34FFFC7F0A0F
:080339008E198F1A8C1B8D1C1C
:100341007F017E00E4FBEBC3951CE51B6480F87420
:0E0351008098500AAC19AD1A12017E0B80E89C
:01035F00227B
:040360008A168B1757
:100364001203E3AA18EAFF7E00D3940074809480F9
:0F037400400D12032FAC16AD171203C51A80E609
:010383002257
:0402A8008B828A8338
:1002AC001203E3C3E58364809480400D7F2B12031B
:1002BC00D985832285822380107F2D1203D9C3E434
:1002CC009582F523E49583F522AA21EAFF7E00D3DB
:1002DC00940074809480400D12032FAC22AD231235
:0502EC0003C51A80E6C5
:0102F10022EA
:04025D008A168B175B
:100261001203E3AA18EAD39400748094804037EA19
:1002710024FFFDE434FFFC7F107E00120339AC162D
:10028100AD17CFCDCFCECCCE120190EF540FFEC320
:10029100940A74809480EE5004243080022437FF45
:0602A1001203D91A80BF10
:0102A7002234
:0402F2008A268B27A6
:1002F6001203E3AA28EAFF7E00D394007480948058
:100306004026EF24FFFDEE34FFFC7F02120339ACDA
:1003160026AD27CFCDCFCECCCE120190EF540124FF
:0803260030FF1203D91A80CD4B
:01032E0022AC
:0B046E00D288C289D2A8D2AFD2B82237
:100429005389F0438901E4F58AF58CC28DC28C2287
:0B047900AD07AC068C8CAF058F8A220B
:09049800AF8CEFFEAD8AEDFF22EE
:0604A100EF24FF928C2203
:0604A70012042902046E9C
:0D044800E5086006E4F5087F01227F002230
:0D045500E5136006E4F5137F01227F00220D
:0304AD00AF11226A
:0304B000AF102268
:03000300020006F2
:10000600C0E0C0F0C083C082C0D075D000C000C0C0
:1000160001C002C003C004C005C006C007E50D70DC
:100026000DFFFE1204797F011204A102010BE50DFA
:10003600640170481204988E0E8F0FE4FFFE1204BE
:1000460079D3E50F94A6E50E942E400DE50F948E18
:10005600E50E9432500302010ED3E50F948CE50EA3
:1000660094264015E50F9474E50E942A500B7513EB
:1000760001E4FF1204A102010E02010EE50D640265
:10008600600302010E1204988E0E8F0FE4FFFE121B
:100096000479D3E50F9414E50E9402402BE50F94F2
:1000A600FCE50E94055021E512131313541F240981
:1000B600F8C000E6FFE5125407FEF8740108800256
:1000C600C333D8FCF45F8033D3E50F9426E50E9452
:1000D60006402FE50F940EE50E940A5025E51213FF
:1000E6001313541F2409F8C000E6FFE5125407FE57
:1000F600F87401088002C333D8FC4FD000F605120D
:100106008006751200750D01C3E512942074809463
:1001160080401D751200E50AF4B5090FE50CF4B52B
:100126000B09850911850B10750801E4FF1204A15E
:10013600D007D006D005D004D003D002D001D0001D
:0B014600D0D0D082D083D0F0D0E032C7
:0300000002046295
:0C046200787FE4F6D8FD75812B0201E5DF
:10015100BB010CE58229F582E5833AF583E0225063
:1001610006E92582F8E622BBFE06E92582F8E222AD
:0D017100E58229F582E5833AF583E49322C7
:10017E00EF8DF0A4A8F0CF8CF0A428CE8DF0A42E95
:02018E00FE224F
:10019000BC000BBE0029EF8DF084FFADF022E4CC53
:1001A000F875F008EF2FFFEE33FEEC33FCEE9DEC1C
:1001B000984005FCEE9DFE0FD5F0E9E4CEFD22ED62
:1001C000F8F5F0EE8420D21CFEADF075F008EF2FAC
:1001D000FFED33FD4007985006D5F0F222C398FD9D
:0501E0000FD5F0EA223A
:00000001FF
