C51 COMPILER V9.60.0.0   ONEWIRE                                                           03/22/2024 09:39:55 PAGE 1   


C51 COMPILER V9.60.0.0, COMPILATION OF MODULE ONEWIRE
OBJECT MODULE PLACED IN .\Objects\OneWire.obj
COMPILER INVOKED BY: d:\Keil_v5\C51\BIN\C51.EXE OneWire.c OPTIMIZE(8,SPEED) BROWSE DEBUG OBJECTEXTEND PRINT(.\Listings\O
                    -neWire.lst) TABS(2) OBJECT(.\Objects\OneWire.obj)

line level    source

   1          #include <REGX52.H>
   2          #include <INTRINS.H>
   3          
   4          sbit ONEWIRE_DQ = P3^7;
   5          
   6          /** @bref 延迟500us函数
   7            * @param 无
   8            * @retval 无
   9            */
  10          void delay500us()   //@11.0592MHz
  11          {
  12   1        unsigned char i;
  13   1      
  14   1        _nop_();
  15   1        i = 227;
  16   1        while (--i);
  17   1      }
  18          
  19          /** @bref 延迟70us函数
  20            * @param 无
  21            * @retval 无
  22            */
  23          void delay70us()    //@11.0592MHz
  24          {
  25   1        unsigned char i;
  26   1      
  27   1        _nop_();
  28   1        i = 29;
  29   1        while (--i);
  30   1      }
  31          
  32          /** @bref 延迟10us函数
  33            * @param 无
  34            * @retval 无
  35            */
  36          void delay10us()    //@11.0592MHz
  37          {
  38   1        unsigned char i;
  39   1      
  40   1        i = 2;
  41   1        while (--i);
  42   1      }
  43          
  44          /** @bref 延迟50us函数
  45            * @param 无
  46            * @retval 无
  47            */
  48          void delay50us()    //@11.0592MHz
  49          {
  50   1        unsigned char i;
  51   1      
  52   1        _nop_();
  53   1        i = 20;
  54   1        while (--i);
C51 COMPILER V9.60.0.0   ONEWIRE                                                           03/22/2024 09:39:55 PAGE 2   

  55   1      }
  56          
  57          /** @bref 延迟5us函数
  58            * @param 无
  59            * @retval 无
  60            */
  61          void delay5us()   //@11.0592MHz
  62          {
  63   1        
  64   1      }
  65          
  66          /** @bref 单总线初始化
  67            * @param 无
  68            * @retval 从机响应位，0是响应，1是未响应
  69            */
  70          unsigned char OneWire_init()
  71          {
  72   1        unsigned char ack;
  73   1        
  74   1        EA = 0;     // 中断位关闭（因为单总线使用绝对时间，所以会和定时器中断产生冲
             -突，因此单总线使用时先关闭中断）
  75   1        ONEWIRE_DQ = 1;
  76   1        ONEWIRE_DQ = 0;
  77   1        delay500us();
  78   1        ONEWIRE_DQ = 1;
  79   1        delay70us();
  80   1        ack = ONEWIRE_DQ;
  81   1        delay500us();
  82   1        EA = 1;     // 中断位打开
  83   1        
  84   1        return ack;
  85   1      }
  86          
  87          /** @bref 单总线发送一位
  88            * @param 要发送的一位数据
  89            * @retval 无
  90            */
  91          void OneWire_sendBit(unsigned char Bit)
  92          {
  93   1        EA = 0;     // 中断位关闭
  94   1        ONEWIRE_DQ = 0;
  95   1        delay10us();
  96   1        ONEWIRE_DQ = Bit;
  97   1        delay50us();
  98   1        ONEWIRE_DQ = 1;
  99   1        EA = 1;     // 中断位打开
 100   1      }
 101          
 102          /** @bref 单总线接收一位
 103            * @param 无
 104            * @retval 接收到的一位数据
 105            */
 106          unsigned char OneWire_recevieBit()
 107          {
 108   1        unsigned char Bit;
 109   1        
 110   1        EA = 0;     // 中断位关闭
 111   1        ONEWIRE_DQ = 0;
 112   1        delay5us();
 113   1        ONEWIRE_DQ = 1;
 114   1        delay5us();
 115   1        Bit = ONEWIRE_DQ;
C51 COMPILER V9.60.0.0   ONEWIRE                                                           03/22/2024 09:39:55 PAGE 3   

 116   1        delay50us();
 117   1        EA = 1;     // 中断位打开
 118   1        
 119   1        return Bit;
 120   1      }
 121          
 122          /** @bref 单总线发送一个字节
 123            * @param 要发送的字节数据
 124            * @retval 无
 125            */
 126          void OneWire_sendByte(unsigned char byte)
 127          {
 128   1        unsigned char i = 0;
 129   1        for(i = 0; i < 8; i++)
 130   1        {
 131   2          OneWire_sendBit(byte & (0x01 << i));
 132   2        }
 133   1      }
 134          
 135          /** @bref 单总线接收一个字节
 136            * @param 无
 137            * @retval 要接收的字节数据
 138            */
 139          unsigned char OneWire_receiveByte()
 140          {
 141   1        unsigned char i = 0;
 142   1        unsigned char byte = 0x00;
 143   1        for(i = 0; i < 8; i++)
 144   1        {
 145   2          if(OneWire_recevieBit())
 146   2          {
 147   3            byte |= 0x01 << i;
 148   3          }
 149   2        }
 150   1        
 151   1        return byte;
 152   1      }


MODULE INFORMATION:   STATIC OVERLAYABLE
   CODE SIZE        =    168    ----
   CONSTANT SIZE    =   ----    ----
   XDATA SIZE       =   ----    ----
   PDATA SIZE       =   ----    ----
   DATA SIZE        =   ----    ----
   IDATA SIZE       =   ----    ----
   BIT SIZE         =   ----    ----
END OF MODULE INFORMATION.


C51 COMPILATION COMPLETE.  0 WARNING(S),  0 ERROR(S)
