BL51 BANKED LINKER/LOCATER V6.22.2.0                                                    03/22/2024  10:10:20  PAGE 1


BL51 BANKED LINKER/LOCATER V6.22.2.0, INVOKED BY:
D:\KEIL_V5\C51\BIN\BL51.EXE .\Objects\main.obj, .\Objects\OneWire.obj, .\Objects\delay.obj, .\Objects\DS18B20.obj, .\Obj
>> ects\LCD1602.obj, .\Objects\timer0.obj, .\Objects\AT24C02.obj, .\Objects\I2C.obj, .\Objects\key.obj TO .\Objects\Proj
>> ect PRINT (.\Listings\Project.m51) RAMSIZE (256) DISABLEWARNING (16)


MEMORY MODEL: SMALL WITH FLOATING POINT ARITHMETIC


INPUT MODULES INCLUDED:
  .\Objects\main.obj (MAIN)
  .\Objects\OneWire.obj (ONEWIRE)
  .\Objects\delay.obj (DELAY)
  .\Objects\DS18B20.obj (DS18B20)
  .\Objects\LCD1602.obj (LCD1602)
  .\Objects\timer0.obj (TIMER0)
  .\Objects\AT24C02.obj (AT24C02)
  .\Objects\I2C.obj (I2C)
  .\Objects\key.obj (KEY)
  D:\KEIL_V5\C51\LIB\C51FPS.LIB (?C?FPMUL)
  D:\KEIL_V5\C51\LIB\C51FPS.LIB (?C?FPDIV)
  D:\KEIL_V5\C51\LIB\C51FPS.LIB (?C?FPCMP)
  D:\KEIL_V5\C51\LIB\C51FPS.LIB (?C?FPNEG)
  D:\KEIL_V5\C51\LIB\C51FPS.LIB (?C?FCAST)
  D:\KEIL_V5\C51\LIB\C51FPS.LIB (?C?CASTF)
  D:\KEIL_V5\C51\LIB\C51FPS.LIB (?C?FPGETOPN)
  D:\KEIL_V5\C51\LIB\C51S.LIB (?C_STARTUP)
  D:\KEIL_V5\C51\LIB\C51S.LIB (?C?CLDOPTR)
  D:\KEIL_V5\C51\LIB\C51S.LIB (?C?IMUL)
  D:\KEIL_V5\C51\LIB\C51S.LIB (?C?UIDIV)
  D:\KEIL_V5\C51\LIB\C51S.LIB (?C?ULDIV)
  D:\KEIL_V5\C51\LIB\C51S.LIB (?C?LNEG)
  D:\KEIL_V5\C51\LIB\C51S.LIB (?C_INIT)


LINK MAP OF MODULE:  .\Objects\Project (MAIN)


            TYPE    BASE      LENGTH    RELOCATION   SEGMENT NAME
            -----------------------------------------------------

            * * * * * * *   D A T A   M E M O R Y   * * * * * * *
            REG     0000H     0008H     ABSOLUTE     "REG BANK 0"
            DATA    0008H     000DH     UNIT         ?DT?MAIN
            DATA    0015H     000BH     UNIT         _DATA_GROUP_
            DATA    0020H     0005H     UNIT         ?DT?_LCD_SHOWHEXNUM?LCD1602
            DATA    0025H     0005H     UNIT         ?DT?_LCD_SHOWBINNUM?LCD1602
            DATA    002AH     0003H     UNIT         ?DT?KEY
            IDATA   002DH     0001H     UNIT         ?STACK

            * * * * * * *   C O D E   M E M O R Y   * * * * * * *
            CODE    0000H     0003H     ABSOLUTE     
            CODE    0003H     0007H     UNIT         ?PR?I2C_STOP?I2C
            CODE    000AH     0001H     UNIT         ?PR?DELAY5US?ONEWIRE
            CODE    000BH     0003H     ABSOLUTE     
            CODE    000EH     045FH     UNIT         ?C?LIB_CODE
            CODE    046DH     021FH     UNIT         ?PR?MAIN?MAIN
            CODE    068CH     008CH     UNIT         ?C_C51STARTUP
BL51 BANKED LINKER/LOCATER V6.22.2.0                                                  03/22/2024  10:10:20  PAGE 2


            CODE    0718H     0058H     UNIT         ?PR?TIME0_ROUNTINE?MAIN
            CODE    0770H     004BH     UNIT         ?PR?_LCD_SHOWHEXNUM?LCD1602
            CODE    07BBH     004AH     UNIT         ?PR?_LCD_SHOWSIGNEDNUM?LCD1602
            CODE    0805H     0040H     UNIT         ?PR?KEY_LOOP?KEY
            CODE    0845H     003DH     UNIT         ?PR?_LCD_SHOWBINNUM?LCD1602
            CODE    0882H     0032H     UNIT         ?PR?_I2C_SENDBYTE?I2C
            CODE    08B4H     0031H     UNIT         ?PR?_LCD_POW?LCD1602
            CODE    08E5H     0030H     UNIT         ?PR?_AT24C02_READBYTE?AT24C02
            CODE    0915H     002BH     UNIT         ?PR?DS18B20_READT?DS18B20
            CODE    0940H     0027H     UNIT         ?PR?I2C_RECEIVEBYTE?I2C
            CODE    0967H     0026H     UNIT         ?PR?ONEWIRE_RECEIVEBYTE?ONEWIRE
            CODE    098DH     0024H     UNIT         ?PR?_LCD_SHOWNUM?LCD1602
            CODE    09B1H     0024H     UNIT         ?PR?_AT24C02_WRITEBYTE?AT24C02
            CODE    09D5H     0023H     UNIT         ?PR?_LCD_SHOWSTRING?LCD1602
            CODE    09F8H     0022H     UNIT         ?PR?_ONEWIRE_SENDBYTE?ONEWIRE
            CODE    0A1AH     0020H     UNIT         ?CO?MAIN
            CODE    0A3AH     001EH     UNIT         ?PR?_LCD_WRITEDATA?LCD1602
            CODE    0A58H     001EH     UNIT         ?PR?_LCD_SETCURSOR?LCD1602
            CODE    0A76H     001AH     UNIT         ?PR?ONEWIRE_INIT?ONEWIRE
            CODE    0A90H     0018H     UNIT         ?PR?ONEWIRE_RECEVIEBIT?ONEWIRE
            CODE    0AA8H     0017H     UNIT         ?PR?TIMER0_INIT?TIMER0
            CODE    0ABFH     0016H     UNIT         ?PR?_ONEWIRE_SENDBIT?ONEWIRE
            CODE    0AD5H     0016H     UNIT         ?PR?GETKEYSTATUS?KEY
            CODE    0AEBH     0014H     UNIT         ?PR?_DELAY?DELAY
            CODE    0AFFH     0014H     UNIT         ?PR?LCD_INIT?LCD1602
            CODE    0B13H     000FH     UNIT         ?PR?LCD_DELAY?LCD1602
            CODE    0B22H     000DH     UNIT         ?PR?DS18B20_CONVERTT?DS18B20
            CODE    0B2FH     000CH     UNIT         ?PR?RECEIVEACK?I2C
            CODE    0B3BH     000AH     UNIT         ?PR?_LCD_WRITECOMMAND?LCD1602
            CODE    0B45H     000AH     UNIT         ?PR?_LCD_SHOWCHAR?LCD1602
            CODE    0B4FH     000AH     UNIT         ?PR?_I2C_SENDACK?I2C
            CODE    0B59H     0009H     UNIT         ?PR?I2C_START?I2C
            CODE    0B62H     0007H     UNIT         ?C_INITSEG
            CODE    0B69H     0006H     UNIT         ?PR?DELAY500US?ONEWIRE
            CODE    0B6FH     0006H     UNIT         ?PR?DELAY70US?ONEWIRE
            CODE    0B75H     0006H     UNIT         ?PR?DELAY50US?ONEWIRE
            CODE    0B7BH     0006H     UNIT         ?PR?GETKEY?KEY
            CODE    0B81H     0005H     UNIT         ?PR?DELAY10US?ONEWIRE



OVERLAY MAP OF MODULE:   .\Objects\Project (MAIN)


SEGMENT                                   DATA_GROUP 
  +--> CALLED SEGMENT                   START    LENGTH
-------------------------------------------------------
?PR?TIME0_ROUNTINE?MAIN                 -----    -----
  +--> ?PR?KEY_LOOP?KEY

?PR?KEY_LOOP?KEY                        -----    -----
  +--> ?PR?GETKEYSTATUS?KEY

*** NEW ROOT ***************************************************

?C_C51STARTUP                           -----    -----
  +--> ?PR?MAIN?MAIN
BL51 BANKED LINKER/LOCATER V6.22.2.0                                                  03/22/2024  10:10:20  PAGE 3


  +--> ?C_INITSEG

?PR?MAIN?MAIN                           -----    -----
  +--> ?PR?_AT24C02_READBYTE?AT24C02
  +--> ?PR?DS18B20_CONVERTT?DS18B20
  +--> ?PR?_DELAY?DELAY
  +--> ?PR?LCD_INIT?LCD1602
  +--> ?CO?MAIN
  +--> ?PR?_LCD_SHOWSTRING?LCD1602
  +--> ?PR?_LCD_SHOWSIGNEDNUM?LCD1602
  +--> ?PR?TIMER0_INIT?TIMER0
  +--> ?PR?DS18B20_READT?DS18B20
  +--> ?PR?_LCD_SHOWNUM?LCD1602
  +--> ?PR?GETKEY?KEY
  +--> ?PR?_AT24C02_WRITEBYTE?AT24C02

?PR?_AT24C02_READBYTE?AT24C02           0015H    0002H
  +--> ?PR?I2C_START?I2C
  +--> ?PR?_I2C_SENDBYTE?I2C
  +--> ?PR?RECEIVEACK?I2C
  +--> ?PR?I2C_RECEIVEBYTE?I2C
  +--> ?PR?_I2C_SENDACK?I2C
  +--> ?PR?I2C_STOP?I2C

?PR?DS18B20_CONVERTT?DS18B20            -----    -----
  +--> ?PR?ONEWIRE_INIT?ONEWIRE
  +--> ?PR?_ONEWIRE_SENDBYTE?ONEWIRE

?PR?ONEWIRE_INIT?ONEWIRE                -----    -----
  +--> ?PR?DELAY500US?ONEWIRE
  +--> ?PR?DELAY70US?ONEWIRE

?PR?_ONEWIRE_SENDBYTE?ONEWIRE           -----    -----
  +--> ?PR?_ONEWIRE_SENDBIT?ONEWIRE

?PR?_ONEWIRE_SENDBIT?ONEWIRE            -----    -----
  +--> ?PR?DELAY10US?ONEWIRE
  +--> ?PR?DELAY50US?ONEWIRE

?PR?LCD_INIT?LCD1602                    -----    -----
  +--> ?PR?_LCD_WRITECOMMAND?LCD1602

?PR?_LCD_WRITECOMMAND?LCD1602           -----    -----
  +--> ?PR?LCD_DELAY?LCD1602

?PR?_LCD_SHOWSTRING?LCD1602             0015H    0003H
  +--> ?PR?_LCD_SETCURSOR?LCD1602
  +--> ?PR?_LCD_WRITEDATA?LCD1602

?PR?_LCD_SETCURSOR?LCD1602              -----    -----
  +--> ?PR?_LCD_WRITECOMMAND?LCD1602

?PR?_LCD_WRITEDATA?LCD1602              -----    -----
  +--> ?PR?LCD_DELAY?LCD1602

?PR?_LCD_SHOWSIGNEDNUM?LCD1602          0015H    0007H
  +--> ?PR?_LCD_SETCURSOR?LCD1602
BL51 BANKED LINKER/LOCATER V6.22.2.0                                                  03/22/2024  10:10:20  PAGE 4


  +--> ?PR?_LCD_WRITEDATA?LCD1602
  +--> ?PR?_LCD_POW?LCD1602

?PR?_LCD_POW?LCD1602                    001CH    0004H

?PR?DS18B20_READT?DS18B20               0015H    0001H
  +--> ?PR?ONEWIRE_INIT?ONEWIRE
  +--> ?PR?_ONEWIRE_SENDBYTE?ONEWIRE
  +--> ?PR?ONEWIRE_RECEIVEBYTE?ONEWIRE

?PR?ONEWIRE_RECEIVEBYTE?ONEWIRE         -----    -----
  +--> ?PR?ONEWIRE_RECEVIEBIT?ONEWIRE

?PR?ONEWIRE_RECEVIEBIT?ONEWIRE          -----    -----
  +--> ?PR?DELAY5US?ONEWIRE
  +--> ?PR?DELAY50US?ONEWIRE

?PR?_LCD_SHOWNUM?LCD1602                0015H    0005H
  +--> ?PR?_LCD_SETCURSOR?LCD1602
  +--> ?PR?_LCD_POW?LCD1602
  +--> ?PR?_LCD_WRITEDATA?LCD1602

?PR?_AT24C02_WRITEBYTE?AT24C02          0015H    0003H
  +--> ?PR?I2C_START?I2C
  +--> ?PR?_I2C_SENDBYTE?I2C
  +--> ?PR?RECEIVEACK?I2C
  +--> ?PR?I2C_STOP?I2C



SYMBOL TABLE OF MODULE:  .\Objects\Project (MAIN)

  VALUE           TYPE          NAME
  ----------------------------------

  -------         MODULE        MAIN
  C:0000H         SYMBOL        _ICE_DUMMY_
  D:000AH         PUBLIC        TLow
  C:046DH         PUBLIC        main
  D:000BH         PUBLIC        keyNumber
  D:008CH         PUBLIC        TH0
  D:008AH         PUBLIC        TL0
  D:000CH         PUBLIC        T
  D:0010H         PUBLIC        THigh
  D:0011H         PUBLIC        T_SHOW
  C:0718H         PUBLIC        Time0_Rountine
  -------         PROC          MAIN
  C:046DH         LINE#         21
  C:046DH         LINE#         22
  C:046DH         LINE#         23
  C:0474H         LINE#         24
  C:047BH         LINE#         26
  C:0497H         LINE#         27
  C:0497H         LINE#         28
  C:049AH         LINE#         29
  C:049DH         LINE#         30
  C:049DH         LINE#         33
BL51 BANKED LINKER/LOCATER V6.22.2.0                                                  03/22/2024  10:10:20  PAGE 5


  C:04A0H         LINE#         34
  C:04A7H         LINE#         35
  C:04AAH         LINE#         36
  C:04B7H         LINE#         37
  C:04C4H         LINE#         38
  C:04D3H         LINE#         39
  C:04E0H         LINE#         40
  C:04EFH         LINE#         41
  C:04F2H         LINE#         43
  C:04F2H         LINE#         44
  C:04F2H         LINE#         46
  C:04F5H         LINE#         48
  C:0500H         LINE#         50
  C:0514H         LINE#         51
  C:0514H         LINE#         52
  C:051FH         LINE#         54
  C:0532H         LINE#         55
  C:0534H         LINE#         58
  C:0534H         LINE#         59
  C:053FH         LINE#         60
  C:054BH         LINE#         61
  C:054BH         LINE#         63
  C:0564H         LINE#         64
  C:0571H         LINE#         66
  C:059BH         LINE#         68
  C:05A0H         LINE#         70
  C:05A7H         LINE#         71
  C:05A7H         LINE#         73
  C:05ADH         LINE#         74
  C:05ADH         LINE#         75
  C:05AFH         LINE#         76
  C:05BAH         LINE#         77
  C:05BAH         LINE#         78
  C:05BDH         LINE#         79
  C:05BDH         LINE#         80
  C:05BFH         LINE#         82
  C:05C5H         LINE#         83
  C:05C5H         LINE#         84
  C:05C7H         LINE#         85
  C:05CEH         LINE#         86
  C:05CEH         LINE#         87
  C:05D0H         LINE#         88
  C:05D0H         LINE#         89
  C:05D0H         LINE#         91
  C:05D9H         LINE#         92
  C:05D9H         LINE#         93
  C:05DBH         LINE#         94
  C:05E2H         LINE#         95
  C:05E2H         LINE#         96
  C:05E4H         LINE#         97
  C:05E4H         LINE#         98
  C:05E6H         LINE#         100
  C:05ECH         LINE#         101
  C:05ECH         LINE#         102
  C:05EEH         LINE#         103
  C:05F9H         LINE#         104
  C:05F9H         LINE#         105
BL51 BANKED LINKER/LOCATER V6.22.2.0                                                  03/22/2024  10:10:20  PAGE 6


  C:05FCH         LINE#         106
  C:05FCH         LINE#         107
  C:05FCH         LINE#         108
  C:060BH         LINE#         109
  C:061AH         LINE#         111
  C:0624H         LINE#         112
  C:062BH         LINE#         113
  C:0635H         LINE#         114
  C:063CH         LINE#         115
  C:063CH         LINE#         118
  C:0651H         LINE#         119
  C:0651H         LINE#         120
  C:0657H         LINE#         121
  C:0659H         LINE#         122
  C:066CH         LINE#         123
  C:066CH         LINE#         124
  C:0679H         LINE#         125
  C:067CH         LINE#         127
  C:067CH         LINE#         128
  C:0689H         LINE#         129
  C:0689H         LINE#         130
  -------         ENDPROC       MAIN
  -------         PROC          TIME0_ROUNTINE
  -------         DO            
  D:0008H         SYMBOL        t0Count
  -------         ENDDO         
  C:0718H         LINE#         133
  C:0735H         LINE#         136
  C:0738H         LINE#         137
  C:073BH         LINE#         139
  C:0743H         LINE#         141
  C:074CH         LINE#         142
  C:074CH         LINE#         143
  C:0752H         LINE#         144
  C:0755H         LINE#         145
  C:0755H         LINE#         146
  -------         ENDPROC       TIME0_ROUNTINE
  -------         ENDMOD        MAIN

  -------         MODULE        ONEWIRE
  C:0000H         SYMBOL        _ICE_DUMMY_
  D:00B0H         PUBLIC        P3
  B:00A8H.7       PUBLIC        EA
  C:0B69H         PUBLIC        delay500us
  B:00B0H.7       PUBLIC        ONEWIRE_DQ
  C:0967H         PUBLIC        OneWire_receiveByte
  C:0A90H         PUBLIC        OneWire_recevieBit
  C:000AH         PUBLIC        delay5us
  C:0A76H         PUBLIC        OneWire_init
  C:0B81H         PUBLIC        delay10us
  C:09F8H         PUBLIC        _OneWire_sendByte
  C:0B75H         PUBLIC        delay50us
  C:0B6FH         PUBLIC        delay70us
  C:0ABFH         PUBLIC        _OneWire_sendBit
  -------         PROC          DELAY500US
  -------         DO            
  D:0007H         SYMBOL        i
BL51 BANKED LINKER/LOCATER V6.22.2.0                                                  03/22/2024  10:10:20  PAGE 7


  -------         ENDDO         
  C:0B69H         LINE#         10
  C:0B69H         LINE#         11
  C:0B69H         LINE#         14
  C:0B6AH         LINE#         15
  C:0B6CH         LINE#         16
  C:0B6EH         LINE#         17
  -------         ENDPROC       DELAY500US
  -------         PROC          DELAY70US
  -------         DO            
  D:0007H         SYMBOL        i
  -------         ENDDO         
  C:0B6FH         LINE#         23
  C:0B6FH         LINE#         24
  C:0B6FH         LINE#         27
  C:0B70H         LINE#         28
  C:0B72H         LINE#         29
  C:0B74H         LINE#         30
  -------         ENDPROC       DELAY70US
  -------         PROC          DELAY10US
  -------         DO            
  D:0007H         SYMBOL        i
  -------         ENDDO         
  C:0B81H         LINE#         36
  C:0B81H         LINE#         37
  C:0B81H         LINE#         40
  C:0B83H         LINE#         41
  C:0B85H         LINE#         42
  -------         ENDPROC       DELAY10US
  -------         PROC          DELAY50US
  -------         DO            
  D:0007H         SYMBOL        i
  -------         ENDDO         
  C:0B75H         LINE#         48
  C:0B75H         LINE#         49
  C:0B75H         LINE#         52
  C:0B76H         LINE#         53
  C:0B78H         LINE#         54
  C:0B7AH         LINE#         55
  -------         ENDPROC       DELAY50US
  -------         PROC          DELAY5US
  C:000AH         LINE#         61
  C:000AH         LINE#         62
  C:000AH         LINE#         64
  -------         ENDPROC       DELAY5US
  -------         PROC          ONEWIRE_INIT
  -------         DO            
  D:0006H         SYMBOL        ack
  -------         ENDDO         
  C:0A76H         LINE#         70
  C:0A76H         LINE#         71
  C:0A76H         LINE#         74
  C:0A78H         LINE#         75
  C:0A7AH         LINE#         76
  C:0A7CH         LINE#         77
  C:0A7FH         LINE#         78
  C:0A81H         LINE#         79
BL51 BANKED LINKER/LOCATER V6.22.2.0                                                  03/22/2024  10:10:20  PAGE 8


  C:0A84H         LINE#         80
  C:0A89H         LINE#         81
  C:0A8CH         LINE#         82
  C:0A8EH         LINE#         84
  C:0A8FH         LINE#         85
  -------         ENDPROC       ONEWIRE_INIT
  -------         PROC          _ONEWIRE_SENDBIT
  D:0006H         SYMBOL        Bit
  C:0ABFH         LINE#         91
  C:0AC1H         LINE#         92
  C:0AC1H         LINE#         93
  C:0AC3H         LINE#         94
  C:0AC5H         LINE#         95
  C:0AC8H         LINE#         96
  C:0ACDH         LINE#         97
  C:0AD0H         LINE#         98
  C:0AD2H         LINE#         99
  C:0AD4H         LINE#         100
  -------         ENDPROC       _ONEWIRE_SENDBIT
  -------         PROC          ONEWIRE_RECEVIEBIT
  -------         DO            
  D:0006H         SYMBOL        Bit
  -------         ENDDO         
  C:0A90H         LINE#         106
  C:0A90H         LINE#         107
  C:0A90H         LINE#         110
  C:0A92H         LINE#         111
  C:0A94H         LINE#         112
  C:0A97H         LINE#         113
  C:0A99H         LINE#         114
  C:0A9CH         LINE#         115
  C:0AA1H         LINE#         116
  C:0AA4H         LINE#         117
  C:0AA6H         LINE#         119
  C:0AA7H         LINE#         120
  -------         ENDPROC       ONEWIRE_RECEVIEBIT
  -------         PROC          _ONEWIRE_SENDBYTE
  D:0005H         SYMBOL        byte
  -------         DO            
  D:0004H         SYMBOL        i
  -------         ENDDO         
  C:09F8H         LINE#         126
  C:09FAH         LINE#         127
  C:09FAH         LINE#         128
  C:09FCH         LINE#         129
  C:0A06H         LINE#         130
  C:0A06H         LINE#         131
  C:0A16H         LINE#         132
  C:0A19H         LINE#         133
  -------         ENDPROC       _ONEWIRE_SENDBYTE
  -------         PROC          ONEWIRE_RECEIVEBYTE
  -------         DO            
  D:0005H         SYMBOL        i
  D:0004H         SYMBOL        byte
  -------         ENDDO         
  C:0967H         LINE#         139
  C:0967H         LINE#         140
BL51 BANKED LINKER/LOCATER V6.22.2.0                                                  03/22/2024  10:10:20  PAGE 9


  C:0967H         LINE#         141
  C:0969H         LINE#         142
  C:096AH         LINE#         143
  C:0974H         LINE#         144
  C:0974H         LINE#         145
  C:097AH         LINE#         146
  C:097AH         LINE#         147
  C:0987H         LINE#         148
  C:0987H         LINE#         149
  C:098AH         LINE#         151
  C:098CH         LINE#         152
  -------         ENDPROC       ONEWIRE_RECEIVEBYTE
  -------         ENDMOD        ONEWIRE

  -------         MODULE        DELAY
  C:0000H         SYMBOL        _ICE_DUMMY_
  C:0AEBH         PUBLIC        _delay
  -------         PROC          _DELAY
  D:0006H         SYMBOL        xms
  -------         DO            
  D:0005H         SYMBOL        i
  D:0004H         SYMBOL        j
  -------         ENDDO         
  C:0AEBH         LINE#         1
  C:0AEBH         LINE#         2
  C:0AEBH         LINE#         5
  C:0AEFH         LINE#         6
  C:0AEFH         LINE#         7
  C:0AF1H         LINE#         8
  C:0AF3H         LINE#         10
  C:0AF3H         LINE#         11
  C:0AF5H         LINE#         12
  C:0AF7H         LINE#         13
  C:0AFCH         LINE#         14
  C:0AFEH         LINE#         15
  -------         ENDPROC       _DELAY
  -------         ENDMOD        DELAY

  -------         MODULE        DS18B20
  C:0000H         SYMBOL        _ICE_DUMMY_
  C:0B22H         PUBLIC        DS18B20_convertT
  C:0915H         PUBLIC        DS18B20_readT
  -------         PROC          DS18B20_CONVERTT
  C:0B22H         LINE#         12
  C:0B22H         LINE#         13
  C:0B22H         LINE#         14
  C:0B25H         LINE#         15
  C:0B2AH         LINE#         16
  -------         ENDPROC       DS18B20_CONVERTT
  -------         PROC          DS18B20_READT
  -------         DO            
  D:0015H         SYMBOL        TLSB
  D:0007H         SYMBOL        TMSB
  D:0006H         SYMBOL        temp
  D:0004H         SYMBOL        T
  -------         ENDDO         
  C:0915H         LINE#         23
BL51 BANKED LINKER/LOCATER V6.22.2.0                                                  03/22/2024  10:10:20  PAGE 10


  C:0915H         LINE#         24
  C:0915H         LINE#         29
  C:0918H         LINE#         30
  C:091DH         LINE#         31
  C:0922H         LINE#         32
  C:0927H         LINE#         33
  C:092AH         LINE#         34
  C:092FH         LINE#         36
  -------         ENDPROC       DS18B20_READT
  -------         ENDMOD        DS18B20

  -------         MODULE        LCD1602
  C:0000H         SYMBOL        _ICE_DUMMY_
  D:0080H         PUBLIC        P0
  D:00A0H         PUBLIC        P2
  C:0B3BH         PUBLIC        _LCD_WriteCommand
  C:098DH         PUBLIC        _LCD_ShowNum
  C:0845H         PUBLIC        _LCD_ShowBinNum
  C:0B19H         PUBLIC        LCD_Delay
  C:0770H         PUBLIC        _LCD_ShowHexNum
  C:0A4EH         PUBLIC        _LCD_WriteData
  B:00A0H.7       PUBLIC        LCD_EN
  C:0AFFH         PUBLIC        LCD_Init
  C:09D5H         PUBLIC        _LCD_ShowString
  C:0B45H         PUBLIC        _LCD_ShowChar
  B:00A0H.6       PUBLIC        LCD_RS
  B:00A0H.5       PUBLIC        LCD_RW
  C:0A58H         PUBLIC        _LCD_SetCursor
  C:07BBH         PUBLIC        _LCD_ShowSignedNum
  C:08BEH         PUBLIC        _LCD_Pow
  -------         PROC          L?0047
  -------         ENDPROC       L?0047
  -------         PROC          LCD_DELAY
  -------         DO            
  D:0007H         SYMBOL        i
  D:0006H         SYMBOL        j
  -------         ENDDO         
  C:0B19H         LINE#         15
  C:0B19H         LINE#         16
  C:0B19H         LINE#         19
  C:0B1BH         LINE#         20
  C:0B1DH         LINE#         22
  C:0B1DH         LINE#         23
  C:0B1FH         LINE#         24
  C:0B21H         LINE#         25
  -------         ENDPROC       LCD_DELAY
  -------         PROC          _LCD_WRITECOMMAND
  D:0007H         SYMBOL        Command
  C:0B3BH         LINE#         32
  C:0B3BH         LINE#         33
  C:0B3BH         LINE#         34
  C:0B3DH         LINE#         35
  C:0B3DH         LINE#         36
  C:0B3DH         LINE#         37
  C:0B3DH         LINE#         38
  C:0B40H         LINE#         39
  C:0B42H         LINE#         40
BL51 BANKED LINKER/LOCATER V6.22.2.0                                                  03/22/2024  10:10:20  PAGE 11


  -------         ENDPROC       _LCD_WRITECOMMAND
  -------         PROC          L?0045
  -------         ENDPROC       L?0045
  -------         PROC          _LCD_WRITEDATA
  D:0007H         SYMBOL        Data
  C:0A4EH         LINE#         48
  C:0A4EH         LINE#         49
  C:0A4EH         LINE#         50
  C:0A50H         LINE#         51
  C:0A50H         LINE#         52
  C:0A50H         LINE#         53
  C:0A50H         LINE#         54
  C:0A53H         LINE#         55
  C:0A55H         LINE#         56
  -------         ENDPROC       _LCD_WRITEDATA
  -------         PROC          _LCD_SETCURSOR
  D:0006H         SYMBOL        Line
  D:0005H         SYMBOL        Column
  C:0A58H         LINE#         65
  C:0A5AH         LINE#         66
  C:0A5AH         LINE#         67
  C:0A62H         LINE#         68
  C:0A62H         LINE#         69
  C:0A64H         LINE#         70
  C:0A66H         LINE#         71
  C:0A6CH         LINE#         72
  C:0A6CH         LINE#         73
  C:0A75H         LINE#         74
  C:0A75H         LINE#         75
  -------         ENDPROC       _LCD_SETCURSOR
  -------         PROC          LCD_INIT
  C:0AFFH         LINE#         82
  C:0AFFH         LINE#         83
  C:0AFFH         LINE#         84
  C:0B04H         LINE#         85
  C:0B09H         LINE#         86
  C:0B0EH         LINE#         87
  -------         ENDPROC       LCD_INIT
  -------         PROC          _LCD_SHOWCHAR
  D:0006H         SYMBOL        Line
  D:0005H         SYMBOL        Column
  D:0004H         SYMBOL        Char
  C:0B45H         LINE#         97
  C:0B47H         LINE#         98
  C:0B47H         LINE#         99
  C:0B4AH         LINE#         100
  -------         ENDPROC       _LCD_SHOWCHAR
  -------         PROC          _LCD_SHOWSTRING
  D:0007H         SYMBOL        Line
  D:0005H         SYMBOL        Column
  D:0015H         SYMBOL        String
  -------         DO            
  D:0005H         SYMBOL        i
  -------         ENDDO         
  C:09D5H         LINE#         110
  C:09DBH         LINE#         111
  C:09DBH         LINE#         113
BL51 BANKED LINKER/LOCATER V6.22.2.0                                                  03/22/2024  10:10:20  PAGE 12


  C:09DEH         LINE#         114
  C:09F1H         LINE#         115
  C:09F1H         LINE#         116
  C:09F4H         LINE#         117
  C:09F7H         LINE#         118
  -------         ENDPROC       _LCD_SHOWSTRING
  -------         PROC          L?0046
  -------         ENDPROC       L?0046
  -------         PROC          _LCD_POW
  D:001CH         SYMBOL        X
  D:001EH         SYMBOL        Y
  -------         DO            
  D:0003H         SYMBOL        i
  D:0006H         SYMBOL        Result
  -------         ENDDO         
  C:08BEH         LINE#         123
  C:08C6H         LINE#         124
  C:08C6H         LINE#         126
  C:08CAH         LINE#         127
  C:08DAH         LINE#         128
  C:08DAH         LINE#         129
  C:08E1H         LINE#         130
  C:08E4H         LINE#         131
  C:08E4H         LINE#         132
  -------         ENDPROC       _LCD_POW
  -------         PROC          _LCD_SHOWNUM
  D:0007H         SYMBOL        Line
  D:0005H         SYMBOL        Column
  D:0017H         SYMBOL        Number
  D:0019H         SYMBOL        Length
  -------         DO            
  D:0002H         SYMBOL        i
  -------         ENDDO         
  C:098DH         LINE#         142
  C:0991H         LINE#         143
  C:0991H         LINE#         145
  C:0994H         LINE#         146
  C:09A3H         LINE#         147
  C:09A3H         LINE#         148
  C:09ADH         LINE#         149
  C:09B0H         LINE#         150
  -------         ENDPROC       _LCD_SHOWNUM
  -------         PROC          _LCD_SHOWSIGNEDNUM
  D:0007H         SYMBOL        Line
  D:0005H         SYMBOL        Column
  D:0082H         SYMBOL        Number
  D:0019H         SYMBOL        Length
  -------         DO            
  D:0002H         SYMBOL        i
  D:001AH         SYMBOL        Number1
  -------         ENDDO         
  C:07BBH         LINE#         160
  C:07BFH         LINE#         161
  C:07BFH         LINE#         164
  C:07C2H         LINE#         165
  C:07CBH         LINE#         166
  C:07CBH         LINE#         167
BL51 BANKED LINKER/LOCATER V6.22.2.0                                                  03/22/2024  10:10:20  PAGE 13


  C:07D0H         LINE#         168
  C:07D6H         LINE#         169
  C:07D8H         LINE#         171
  C:07D8H         LINE#         172
  C:07DDH         LINE#         173
  C:07E8H         LINE#         174
  C:07E8H         LINE#         175
  C:07F7H         LINE#         176
  C:07F7H         LINE#         177
  C:0801H         LINE#         178
  C:0804H         LINE#         179
  -------         ENDPROC       _LCD_SHOWSIGNEDNUM
  -------         PROC          _LCD_SHOWHEXNUM
  D:0007H         SYMBOL        Line
  D:0005H         SYMBOL        Column
  D:0022H         SYMBOL        Number
  D:0024H         SYMBOL        Length
  -------         DO            
  D:0002H         SYMBOL        i
  D:0006H         SYMBOL        SingleNumber
  -------         ENDDO         
  C:0770H         LINE#         189
  C:0774H         LINE#         190
  C:0774H         LINE#         192
  C:0777H         LINE#         193
  C:0783H         LINE#         194
  C:0783H         LINE#         195
  C:07A3H         LINE#         196
  C:07ADH         LINE#         197
  C:07ADH         LINE#         198
  C:07AFH         LINE#         199
  C:07B1H         LINE#         201
  C:07B1H         LINE#         202
  C:07B7H         LINE#         203
  C:07B7H         LINE#         204
  C:07BAH         LINE#         205
  -------         ENDPROC       _LCD_SHOWHEXNUM
  -------         PROC          _LCD_SHOWBINNUM
  D:0007H         SYMBOL        Line
  D:0005H         SYMBOL        Column
  D:0027H         SYMBOL        Number
  D:0029H         SYMBOL        Length
  -------         DO            
  D:0002H         SYMBOL        i
  -------         ENDDO         
  C:0845H         LINE#         215
  C:0849H         LINE#         216
  C:0849H         LINE#         218
  C:084CH         LINE#         219
  C:085BH         LINE#         220
  C:085BH         LINE#         221
  C:087EH         LINE#         222
  C:0881H         LINE#         223
  -------         ENDPROC       _LCD_SHOWBINNUM
  -------         ENDMOD        LCD1602

  -------         MODULE        TIMER0
BL51 BANKED LINKER/LOCATER V6.22.2.0                                                  03/22/2024  10:10:20  PAGE 14


  C:0000H         SYMBOL        _ICE_DUMMY_
  B:00A8H.7       PUBLIC        EA
  D:0089H         PUBLIC        TMOD
  B:00A8H.1       PUBLIC        ET0
  B:0088H.5       PUBLIC        TF0
  D:008CH         PUBLIC        TH0
  D:008AH         PUBLIC        TL0
  B:0088H.4       PUBLIC        TR0
  B:00B8H.0       PUBLIC        PX0
  C:0AA8H         PUBLIC        timer0_init
  -------         PROC          TIMER0_INIT
  C:0AA8H         LINE#         7
  C:0AA8H         LINE#         8
  C:0AA8H         LINE#         9
  C:0AABH         LINE#         10
  C:0AAEH         LINE#         11
  C:0AB1H         LINE#         12
  C:0AB4H         LINE#         13
  C:0AB6H         LINE#         14
  C:0AB8H         LINE#         15
  C:0ABAH         LINE#         16
  C:0ABCH         LINE#         17
  C:0ABEH         LINE#         18
  -------         ENDPROC       TIMER0_INIT
  -------         ENDMOD        TIMER0

  -------         MODULE        AT24C02
  C:0000H         SYMBOL        _ICE_DUMMY_
  C:08E5H         PUBLIC        _AT24C02_readByte
  C:09B1H         PUBLIC        _AT24C02_writeByte
  -------         PROC          _AT24C02_WRITEBYTE
  D:0015H         SYMBOL        wordAddress
  D:0016H         SYMBOL        byte
  C:09B1H         LINE#         12
  C:09B7H         LINE#         13
  C:09B7H         LINE#         14
  C:09BAH         LINE#         15
  C:09BFH         LINE#         16
  C:09C2H         LINE#         17
  C:09C7H         LINE#         18
  C:09CAH         LINE#         19
  C:09CFH         LINE#         20
  C:09D2H         LINE#         21
  -------         ENDPROC       _AT24C02_WRITEBYTE
  -------         PROC          _AT24C02_READBYTE
  D:0015H         SYMBOL        wordAddress
  -------         DO            
  D:0016H         SYMBOL        byte
  -------         ENDDO         
  C:08E5H         LINE#         28
  C:08E7H         LINE#         29
  C:08E7H         LINE#         32
  C:08EAH         LINE#         33
  C:08EFH         LINE#         34
  C:08F2H         LINE#         35
  C:08F7H         LINE#         36
  C:08FAH         LINE#         37
BL51 BANKED LINKER/LOCATER V6.22.2.0                                                  03/22/2024  10:10:20  PAGE 15


  C:08FDH         LINE#         38
  C:0902H         LINE#         39
  C:0905H         LINE#         40
  C:090AH         LINE#         41
  C:090FH         LINE#         42
  C:0912H         LINE#         44
  C:0914H         LINE#         45
  -------         ENDPROC       _AT24C02_READBYTE
  -------         ENDMOD        AT24C02

  -------         MODULE        I2C
  C:0000H         SYMBOL        _ICE_DUMMY_
  B:00A0H.1       PUBLIC        I2C_SCL
  D:00A0H         PUBLIC        P2
  C:0B4FH         PUBLIC        _I2C_sendACK
  C:0B59H         PUBLIC        I2C_Start
  C:0B2FH         PUBLIC        receiveACK
  C:0882H         PUBLIC        _I2C_SendByte
  C:0003H         PUBLIC        I2C_Stop
  B:00A0H.0       PUBLIC        I2C_SDA
  C:0940H         PUBLIC        I2C_ReceiveByte
  -------         PROC          I2C_START
  C:0B59H         LINE#         10
  C:0B59H         LINE#         11
  C:0B59H         LINE#         12
  C:0B5BH         LINE#         13
  C:0B5DH         LINE#         14
  C:0B5FH         LINE#         15
  C:0B61H         LINE#         16
  -------         ENDPROC       I2C_START
  -------         PROC          I2C_STOP
  C:0003H         LINE#         22
  C:0003H         LINE#         23
  C:0003H         LINE#         24
  C:0005H         LINE#         25
  C:0007H         LINE#         26
  C:0009H         LINE#         27
  -------         ENDPROC       I2C_STOP
  -------         PROC          _I2C_SENDBYTE
  D:0005H         SYMBOL        byte
  -------         DO            
  D:0003H         SYMBOL        i
  -------         ENDDO         
  C:0882H         LINE#         33
  C:0884H         LINE#         34
  C:0884H         LINE#         35
  C:0886H         LINE#         36
  C:0890H         LINE#         37
  C:0890H         LINE#         39
  C:08ACH         LINE#         40
  C:08AEH         LINE#         41
  C:08B0H         LINE#         42
  C:08B3H         LINE#         43
  -------         ENDPROC       _I2C_SENDBYTE
  -------         PROC          I2C_RECEIVEBYTE
  -------         DO            
  D:0007H         SYMBOL        byte
BL51 BANKED LINKER/LOCATER V6.22.2.0                                                  03/22/2024  10:10:20  PAGE 16


  D:0006H         SYMBOL        i
  -------         ENDDO         
  C:0940H         LINE#         49
  C:0940H         LINE#         50
  C:0940H         LINE#         51
  C:0942H         LINE#         52
  C:0943H         LINE#         55
  C:0945H         LINE#         57
  C:094FH         LINE#         58
  C:094FH         LINE#         59
  C:0951H         LINE#         62
  C:0954H         LINE#         63
  C:0954H         LINE#         64
  C:0961H         LINE#         65
  C:0961H         LINE#         67
  C:0963H         LINE#         68
  C:0966H         LINE#         70
  C:0966H         LINE#         71
  -------         ENDPROC       I2C_RECEIVEBYTE
  -------         PROC          _I2C_SENDACK
  D:0007H         SYMBOL        ack
  C:0B4FH         LINE#         77
  C:0B4FH         LINE#         78
  C:0B4FH         LINE#         79
  C:0B54H         LINE#         80
  C:0B56H         LINE#         81
  C:0B58H         LINE#         82
  -------         ENDPROC       _I2C_SENDACK
  -------         PROC          RECEIVEACK
  -------         DO            
  D:0007H         SYMBOL        ack
  -------         ENDDO         
  C:0B2FH         LINE#         88
  C:0B2FH         LINE#         89
  C:0B2FH         LINE#         93
  C:0B31H         LINE#         94
  C:0B33H         LINE#         95
  C:0B38H         LINE#         96
  C:0B3AH         LINE#         98
  C:0B3AH         LINE#         99
  -------         ENDPROC       RECEIVEACK
  -------         ENDMOD        I2C

  -------         MODULE        KEY
  C:0000H         SYMBOL        _ICE_DUMMY_
  B:00B0H.0       PUBLIC        P3_0
  B:00B0H.1       PUBLIC        P3_1
  B:00B0H.2       PUBLIC        P3_2
  B:00B0H.3       PUBLIC        P3_3
  D:002CH         PUBLIC        key
  C:0805H         PUBLIC        key_loop
  C:0B7BH         PUBLIC        getKey
  C:0AD5H         PUBLIC        getKeyStatus
  -------         PROC          GETKEY
  -------         DO            
  D:0007H         SYMBOL        temp
  -------         ENDDO         
BL51 BANKED LINKER/LOCATER V6.22.2.0                                                  03/22/2024  10:10:20  PAGE 17


  C:0B7BH         LINE#         11
  C:0B7BH         LINE#         12
  C:0B7BH         LINE#         15
  C:0B7DH         LINE#         17
  C:0B80H         LINE#         19
  C:0B80H         LINE#         20
  -------         ENDPROC       GETKEY
  -------         PROC          GETKEYSTATUS
  -------         DO            
  D:0007H         SYMBOL        keyNumber
  -------         ENDDO         
  C:0AD5H         LINE#         26
  C:0AD5H         LINE#         27
  C:0AD5H         LINE#         28
  C:0AD7H         LINE#         30
  C:0ADBH         LINE#         31
  C:0AE0H         LINE#         32
  C:0AE5H         LINE#         33
  C:0AEAH         LINE#         35
  C:0AEAH         LINE#         36
  -------         ENDPROC       GETKEYSTATUS
  -------         PROC          KEY_LOOP
  -------         DO            
  D:002AH         SYMBOL        lastStatus
  D:002BH         SYMBOL        currentStatus
  -------         ENDDO         
  C:0805H         LINE#         43
  C:0805H         LINE#         44
  C:0805H         LINE#         48
  C:0808H         LINE#         50
  C:080DH         LINE#         53
  C:081AH         LINE#         54
  C:081AH         LINE#         55
  C:081DH         LINE#         56
  C:081DH         LINE#         57
  C:0827H         LINE#         58
  C:0827H         LINE#         59
  C:082AH         LINE#         60
  C:082AH         LINE#         61
  C:0834H         LINE#         62
  C:0834H         LINE#         63
  C:0837H         LINE#         64
  C:0837H         LINE#         65
  C:0841H         LINE#         66
  C:0841H         LINE#         67
  C:0844H         LINE#         68
  C:0844H         LINE#         69
  -------         ENDPROC       KEY_LOOP
  -------         ENDMOD        KEY

  -------         MODULE        ?C?FPMUL
  C:000EH         PUBLIC        ?C?FPMUL
  -------         ENDMOD        ?C?FPMUL

  -------         MODULE        ?C?FPDIV
  C:0117H         PUBLIC        ?C?FPDIV
  -------         ENDMOD        ?C?FPDIV
BL51 BANKED LINKER/LOCATER V6.22.2.0                                                  03/22/2024  10:10:20  PAGE 18



  -------         MODULE        ?C?FPCMP
  C:01B6H         PUBLIC        ?C?FPCMP
  C:01B4H         PUBLIC        ?C?FPCMP3
  -------         ENDMOD        ?C?FPCMP

  -------         MODULE        ?C?FPNEG
  C:022DH         PUBLIC        ?C?FPNEG
  -------         ENDMOD        ?C?FPNEG

  -------         MODULE        ?C?FCAST
  C:0248H         PUBLIC        ?C?FCASTC
  C:0243H         PUBLIC        ?C?FCASTI
  C:023EH         PUBLIC        ?C?FCASTL
  -------         ENDMOD        ?C?FCAST

  -------         MODULE        ?C?CASTF
  C:027CH         PUBLIC        ?C?CASTF
  -------         ENDMOD        ?C?CASTF

  -------         MODULE        ?C?CLDOPTR
  C:02FDH         PUBLIC        ?C?CLDOPTR
  -------         ENDMOD        ?C?CLDOPTR

  -------         MODULE        ?C?IMUL
  C:032AH         PUBLIC        ?C?IMUL
  -------         ENDMOD        ?C?IMUL

  -------         MODULE        ?C?UIDIV
  C:033CH         PUBLIC        ?C?UIDIV
  -------         ENDMOD        ?C?UIDIV

  -------         MODULE        ?C?ULDIV
  C:03CDH         PUBLIC        ?C?ULDIV
  -------         ENDMOD        ?C?ULDIV

  -------         MODULE        ?C?LNEG
  C:045FH         PUBLIC        ?C?LNEG
  -------         ENDMOD        ?C?LNEG

Program Size: data=46.0 xdata=0 code=2950
LINK/LOCATE RUN COMPLETE.  0 WARNING(S),  0 ERROR(S)
