BL51 BANKED LINKER/LOCATER V6.22.2.0                                                    03/11/2024  14:49:28  PAGE 1


BL51 BANKED LINKER/LOCATER V6.22.2.0, INVOKED BY:
D:\KEIL_V5\C51\BIN\BL51.EXE .\Objects\main.obj, .\Objects\delay.obj, .\Objects\timer0.obj, .\Objects\key.obj TO .\Object
>> s\Project PRINT (.\Listings\Project.m51) RAMSIZE (256) DISABLEWARNING (16)


MEMORY MODEL: SMALL


INPUT MODULES INCLUDED:
  .\Objects\main.obj (MAIN)
  .\Objects\delay.obj (DELAY)
  .\Objects\timer0.obj (TIMER0)
  .\Objects\key.obj (KEY)
  D:\KEIL_V5\C51\LIB\C51S.LIB (?C_STARTUP)


LINK MAP OF MODULE:  .\Objects\Project (MAIN)


            TYPE    BASE      LENGTH    RELOCATION   SEGMENT NAME
            -----------------------------------------------------

            * * * * * * *   D A T A   M E M O R Y   * * * * * * *
            REG     0000H     0008H     ABSOLUTE     "REG BANK 0"
            DATA    0008H     0004H     UNIT         ?DT?MAIN
            DATA    000CH     0001H     UNIT         _DATA_GROUP_
            IDATA   000DH     0001H     UNIT         ?STACK

            * * * * * * *   C O D E   M E M O R Y   * * * * * * *
            CODE    0000H     0003H     ABSOLUTE     
                    0003H     0008H                  *** GAP ***
            CODE    000BH     0003H     ABSOLUTE     
            CODE    000EH     0061H     UNIT         ?PR?GETKEYNUMBER?KEY
            CODE    006FH     0060H     UNIT         ?PR?TIME0_ROUNTINE?MAIN
            CODE    00CFH     0025H     UNIT         ?PR?MAIN?MAIN
            CODE    00F4H     0017H     UNIT         ?PR?TIMER0_INIT?TIMER0
            CODE    010BH     0014H     UNIT         ?PR?_DELAY?DELAY
            CODE    011FH     000CH     UNIT         ?C_C51STARTUP



OVERLAY MAP OF MODULE:   .\Objects\Project (MAIN)


SEGMENT                           DATA_GROUP 
  +--> CALLED SEGMENT           START    LENGTH
-----------------------------------------------
?C_C51STARTUP                   -----    -----
  +--> ?PR?MAIN?MAIN

?PR?MAIN?MAIN                   -----    -----
  +--> ?PR?TIMER0_INIT?TIMER0
  +--> ?PR?GETKEYNUMBER?KEY

?PR?GETKEYNUMBER?KEY            000CH    0001H
  +--> ?PR?_DELAY?DELAY


BL51 BANKED LINKER/LOCATER V6.22.2.0                                                  03/11/2024  14:49:28  PAGE 2



SYMBOL TABLE OF MODULE:  .\Objects\Project (MAIN)

  VALUE           TYPE          NAME
  ----------------------------------

  -------         MODULE        MAIN
  C:0000H         SYMBOL        _ICE_DUMMY_
  D:00A0H         PUBLIC        P2
  C:00CFH         PUBLIC        main
  D:000AH         PUBLIC        keyNumber
  D:008CH         PUBLIC        TH0
  D:008AH         PUBLIC        TL0
  D:000BH         PUBLIC        LEDMode
  C:006FH         PUBLIC        Time0_Rountine
  -------         PROC          MAIN
  C:00CFH         LINE#         8
  C:00CFH         LINE#         9
  C:00CFH         LINE#         11
  C:00D2H         LINE#         12
  C:00D5H         LINE#         14
  C:00D5H         LINE#         15
  C:00D5H         LINE#         16
  C:00DAH         LINE#         18
  C:00DEH         LINE#         19
  C:00DEH         LINE#         20
  C:00E2H         LINE#         21
  C:00E2H         LINE#         22
  C:00E4H         LINE#         24
  C:00EFH         LINE#         25
  C:00EFH         LINE#         26
  C:00F2H         LINE#         27
  C:00F2H         LINE#         28
  C:00F2H         LINE#         29
  C:00F2H         LINE#         30
  -------         ENDPROC       MAIN
  -------         PROC          TIME0_ROUNTINE
  -------         DO            
  D:0008H         SYMBOL        t0Count
  -------         ENDDO         
  C:006FH         LINE#         33
  C:007EH         LINE#         36
  C:0081H         LINE#         37
  C:0084H         LINE#         39
  C:008CH         LINE#         41
  C:0095H         LINE#         42
  C:0095H         LINE#         43
  C:009BH         LINE#         44
  C:00A2H         LINE#         45
  C:00A2H         LINE#         47
  C:00AFH         LINE#         48
  C:00AFH         LINE#         49
  C:00B5H         LINE#         50
  C:00B5H         LINE#         52
  C:00C2H         LINE#         53
  C:00C2H         LINE#         54
  C:00C2H         LINE#         55
BL51 BANKED LINKER/LOCATER V6.22.2.0                                                  03/11/2024  14:49:28  PAGE 3


  -------         ENDPROC       TIME0_ROUNTINE
  -------         ENDMOD        MAIN

  -------         MODULE        DELAY
  C:0000H         SYMBOL        _ICE_DUMMY_
  C:010BH         PUBLIC        _delay
  -------         PROC          _DELAY
  D:0006H         SYMBOL        xms
  -------         DO            
  D:0005H         SYMBOL        i
  D:0004H         SYMBOL        j
  -------         ENDDO         
  C:010BH         LINE#         1
  C:010BH         LINE#         2
  C:010BH         LINE#         5
  C:010FH         LINE#         6
  C:010FH         LINE#         7
  C:0111H         LINE#         8
  C:0113H         LINE#         10
  C:0113H         LINE#         11
  C:0115H         LINE#         12
  C:0117H         LINE#         13
  C:011CH         LINE#         14
  C:011EH         LINE#         15
  -------         ENDPROC       _DELAY
  -------         ENDMOD        DELAY

  -------         MODULE        TIMER0
  C:0000H         SYMBOL        _ICE_DUMMY_
  B:00A8H.7       PUBLIC        EA
  D:0089H         PUBLIC        TMOD
  B:00A8H.1       PUBLIC        ET0
  B:0088H.5       PUBLIC        TF0
  D:008CH         PUBLIC        TH0
  D:008AH         PUBLIC        TL0
  B:0088H.4       PUBLIC        TR0
  B:00B8H.0       PUBLIC        PX0
  C:00F4H         PUBLIC        timer0_init
  -------         PROC          TIMER0_INIT
  C:00F4H         LINE#         7
  C:00F4H         LINE#         8
  C:00F4H         LINE#         9
  C:00F7H         LINE#         10
  C:00FAH         LINE#         11
  C:00FDH         LINE#         12
  C:0100H         LINE#         13
  C:0102H         LINE#         14
  C:0104H         LINE#         15
  C:0106H         LINE#         16
  C:0108H         LINE#         17
  C:010AH         LINE#         18
  -------         ENDPROC       TIMER0_INIT
  -------         ENDMOD        TIMER0

  -------         MODULE        KEY
  C:0000H         SYMBOL        _ICE_DUMMY_
  B:00B0H.0       PUBLIC        P3_0
BL51 BANKED LINKER/LOCATER V6.22.2.0                                                  03/11/2024  14:49:28  PAGE 4


  B:00B0H.1       PUBLIC        P3_1
  B:00B0H.2       PUBLIC        P3_2
  B:00B0H.3       PUBLIC        P3_3
  C:000EH         PUBLIC        getKeyNumber
  -------         PROC          GETKEYNUMBER
  -------         DO            
  D:000CH         SYMBOL        keyNumber
  -------         ENDDO         
  C:000EH         LINE#         8
  C:000EH         LINE#         9
  C:000EH         LINE#         10
  C:0011H         LINE#         12
  C:0027H         LINE#         13
  C:003EH         LINE#         14
  C:0055H         LINE#         15
  C:006CH         LINE#         17
  C:006EH         LINE#         18
  -------         ENDPROC       GETKEYNUMBER
  -------         ENDMOD        KEY

Program Size: data=14.0 xdata=0 code=291
LINK/LOCATE RUN COMPLETE.  0 WARNING(S),  0 ERROR(S)
