:100355005772697465204F4B2100202020202020F2
:100365002020200052656164204F4B210020202071
:06037500202020202000E2
:1000030012043680261201688F22EF6401700E05F8
:1000130024E52470020523750C05FB8013E5226497
:10002300027018E524152470021523750C05AB2402
:10003300AA237D017F0112037B80CAE5226403703A
:1000430042FCAD24FF12039F7F057E00120422E5CC
:1000530023FD7C007F0112039F7F057E0012042293
:100063007BFF7A0379557D017F021203C37FE87E0C
:10007300031204227BFF7A03795F7D017F0212035F
:10008300C38082E52264046003020008FF1202FEBB
:100093007523008F247F011202FEEFFEEE422375CB
:1000A3000C05AB24AA237D017F0112037B7BFF7A1E
:1000B3000379697D017F021203C37FE87E03120483
:1000C300227BFF7A0379727D017F021203C3020050
:0100D3000824
:10042200EF4E600F7D027CEFDCFEDDFCEF1F70F013
:030432001E80ED3C
:0104350022A4
:10016800E4F50820B1137F14FE12042230B1FD7F9C
:10017800147E0012042275080120B0147F147E003A
:1001880012042230B0FD7F147E001204227508028A
:1001980020B2147F147E0012042230B2FD7F147E38
:1001A8000012042275080320B3147F147E00120481
:1001B8002230B3FD7F147E00120422750804AF08B4
:0101C8002214
:06044A00C2A58F80D2A7BD
:080450007F027EEFDEFEDFFCFF
:010458002281
:0A047100C2A612044AC2A7020450FA
:1003E600CFCDCFCECCCE1201137C007D0A120113E5
:0403F600ED2430FFC3
:0A03FA00D2A612044AC2A702045062
:10040400AE07EEFB7A0064017004ED148009EB641E
:0E041400024A7009ED243F4480FF1204712259
:100436007F381204717F0C1204717F061204717FDB
:04044600010204713A
:0A047B00AC03120404AF040203FAFC
:0603C3008B088A09890A7B
:1003C900120404E4FDAB08AA09A90A8D8275830009
:0C03D9001200D4FF60061203FA0D80E948
:0103E50022F5
:0A02CD00EF24FFFDEE34FFFC7F0A72
:0802D7008E0D8F0E8C0F8D10AF
:1002DF007F017E00E4FBEBC39510E50F6480F8749B
:0E02EF008098500AAC0DAD0E1201010B80E894
:0102FD0022DE
:04037B008A0A8B0B54
:10037F00120404AA0CEAFF7E00D3940074809480C8
:0F038F00400D1202CDAC0AAD0B1203E61A80E648
:01039E00223C
:040214008B828A83CC
:10021800120404C3E58364809480400D7F2B12038D
:10022800FA85831685821780107F2D1203FAC3E49E
:100238009582F517E49583F516AA15EAFF7E00D393
:10024800940074809480400D1202CDAC16AD171244
:0502580003E61A80E638
:01025D00227E
:0401C9008A1A8B1BE8
:1001CD00120404AA1CEAD39400748094804037EA88
:1001DD0024FFFDE434FFFC7F107E001202D7AC1A21
:1001ED00AD1BCFCDCFCECCCE120113EF540FFEC32E
:1001FD00940A74809480EE5004243080022437FFDA
:06020D001203FA1A80BF83
:0102130022C8
:04025E008A1F8B2048
:10026200120404AA21EAFF7E00D3940074809480D1
:100272004026EF24FFFDEE34FFFC7F021202D7ACD2
:100282001FAD20CFCDCFCECCCE120113EF5401241F
:0802920030FF1203FA1A80CDBF
:01029A002241
:10039F008F088C098D0A12048F7FA012029B120402
:1003AF0059AF0812029B120459AF0A12029B120492
:0403BF005902049843
:0202FE008F0867
:1003000012048F7FA012029B120459AF0812029BA5
:1003100012045912048F7FA112029B120459120376
:0D0320002E8F097F01120485120498AF0989
:01032D0022AD
:09048F00D2A0D2A1C2A0C2A12298
:07049800C2A0D2A1D2A022F4
:02029B00AD07AD
:10029D00E4FBEBC394087480948050237E0074803B
:1002AD00A803088006CEA2E713CE13D8F8FFEDF50C
:0F02BD0082EF558224FF92A0D2A1C2A10B80D361
:0102CC00220F
:10032E00E4FFFED2A0EEC39408748094805017D2DE
:10033E00A130A00DA8067480088002C313D8FC4219
:06034E0007C2A10E80DFD2
:010354002286
:0A048500EF24FF92A0D2A1C2A12231
:0B045900D2A0D2A1A2A0E433FFC2A1F8
:010464002275
:0300000002046592
:0C046500787FE4F6D8FD758124020003C6
:1000D400BB010CE58229F582E5833AF583E02250E1
:1000E40006E92582F8E622BBFE06E92582F8E2222B
:0D00F400E58229F582E5833AF583E4932245
:10010100EF8DF0A4A8F0CF8CF0A428CE8DF0A42E12
:02011100FE22CC
:10011300BC000BBE0029EF8DF084FFADF022E4CCD0
:10012300F875F008EF2FFFEE33FEEC33FCEE9DEC99
:10013300984005FCEE9DFE0FD5F0E9E4CEFD22EDDF
:10014300F8F5F0EE8420D21CFEADF075F008EF2F29
:10015300FFED33FD4007985006D5F0F222C398FD1A
:050163000FD5F0EA22B7
:00000001FF
