BL51 BANKED LINKER/LOCATER V6.22.2.0                                                    03/05/2024  15:37:03  PAGE 1


BL51 BANKED LINKER/LOCATER V6.22.2.0, INVOKED BY:
D:\KEIL_V5\C51\BIN\BL51.EXE .\Objects\main.obj TO .\Objects\Project PRINT (.\Listings\Project.m51) RAMSIZE (256)


MEMORY MODEL: SMALL


INPUT MODULES INCLUDED:
  .\Objects\main.obj (MAIN)
  D:\KEIL_V5\C51\LIB\C51S.LIB (?C_STARTUP)


LINK MAP OF MODULE:  .\Objects\Project (MAIN)


            TYPE    BASE      LENGTH    RELOCATION   SEGMENT NAME
            -----------------------------------------------------

            * * * * * * *   D A T A   M E M O R Y   * * * * * * *
            REG     0000H     0008H     ABSOLUTE     "REG BANK 0"
            IDATA   0008H     0001H     UNIT         ?STACK

            * * * * * * *   C O D E   M E M O R Y   * * * * * * *
            CODE    0000H     0003H     ABSOLUTE     
            CODE    0003H     0050H     UNIT         ?PR?MAIN?MAIN
            CODE    0053H     0018H     UNIT         ?PR?_DELAY?MAIN
            CODE    006BH     000CH     UNIT         ?C_C51STARTUP



OVERLAY MAP OF MODULE:   .\Objects\Project (MAIN)


SEGMENT
  +--> CALLED SEGMENT
---------------------
?C_C51STARTUP
  +--> ?PR?MAIN?MAIN

?PR?MAIN?MAIN
  +--> ?PR?_DELAY?MAIN



SYMBOL TABLE OF MODULE:  .\Objects\Project (MAIN)

  VALUE           TYPE          NAME
  ----------------------------------

  -------         MODULE        MAIN
  C:0000H         SYMBOL        _ICE_DUMMY_
  D:00A0H         PUBLIC        P2
  C:0057H         PUBLIC        _delay
  B:00B0H.0       PUBLIC        P3_0
  B:00B0H.1       PUBLIC        P3_1
  C:0003H         PUBLIC        main
  C:0053H         SYMBOL        L?0027
  -------         PROC          L?0026
BL51 BANKED LINKER/LOCATER V6.22.2.0                                                  03/05/2024  15:37:03  PAGE 2


  -------         ENDPROC       L?0026
  C:0053H         SYMBOL        L?0027
  -------         PROC          _DELAY
  D:0006H         SYMBOL        xms
  -------         DO            
  D:0005H         SYMBOL        i
  D:0004H         SYMBOL        j
  -------         ENDDO         
  C:0057H         LINE#         3
  C:0057H         LINE#         4
  C:0057H         LINE#         7
  C:005BH         LINE#         8
  C:005BH         LINE#         9
  C:005DH         LINE#         10
  C:005FH         LINE#         12
  C:005FH         LINE#         13
  C:0061H         LINE#         14
  C:0063H         LINE#         15
  C:0068H         LINE#         16
  C:006AH         LINE#         17
  -------         ENDPROC       _DELAY
  -------         PROC          MAIN
  -------         DO            
  D:0003H         SYMBOL        count
  -------         ENDDO         
  C:0003H         LINE#         20
  C:0003H         LINE#         21
  C:0003H         LINE#         22
  C:0005H         LINE#         24
  C:0008H         LINE#         25
  C:0008H         LINE#         26
  C:0008H         LINE#         27
  C:000BH         LINE#         28
  C:000BH         LINE#         29
  C:000EH         LINE#         30
  C:0011H         LINE#         31
  C:0014H         LINE#         33
  C:0015H         LINE#         34
  C:001FH         LINE#         35
  C:001FH         LINE#         36
  C:0021H         LINE#         37
  C:0021H         LINE#         38
  C:002FH         LINE#         39
  C:002FH         LINE#         41
  C:0032H         LINE#         42
  C:0032H         LINE#         43
  C:0035H         LINE#         44
  C:0038H         LINE#         45
  C:003BH         LINE#         47
  C:003EH         LINE#         48
  C:003EH         LINE#         49
  C:0040H         LINE#         50
  C:0042H         LINE#         52
  C:0042H         LINE#         53
  C:0043H         LINE#         54
  C:0043H         LINE#         55
  C:0051H         LINE#         56
BL51 BANKED LINKER/LOCATER V6.22.2.0                                                  03/05/2024  15:37:03  PAGE 3


  C:0051H         LINE#         57
  -------         ENDPROC       MAIN
  -------         ENDMOD        MAIN

Program Size: data=9.0 xdata=0 code=119
LINK/LOCATE RUN COMPLETE.  0 WARNING(S),  0 ERROR(S)
