:100262001203D11203C512038CEF60521203DA8F0C
:100272001F7E00EF64167002F51EEF640C4E7003D1
:10028200751E01EF64184E7003751E02EF645E4E18
:100292007003751E03E51E7004FF1203D4E51E648D
:1002A2000170057F321203D4E51E640270057F4B94
:1002B2001203D4E51E640370057F641203D4E51EA5
:0A02C200FD7C007F011201F5809C15
:1002CC00E4F52220B1137F14FE12000630B1FD7F3D
:1002DC00147E0012000675220120B0147F147E00DB
:1002EC0012000630B0FD7F147E001200067522024B
:1002FC0020B2147F147E0012000630B2FD7F147EF3
:10030C000012000675220320B3147F147E00120025
:10031C000630B3FD7F147E00120006752204AF2256
:01032C0022AE
:0C037F000A143F065B4F666D7D077F6F20
:1001F500EF14B40800505490020A75F003A4C583A7
:1002050025F0C5837302022202022602022A020297
:100215002E02023202023A02024202024AD2A480AD
:100225000ED2A48012D2A48016D2A4801AC2A4D25F
:10023500A3D2A28016C2A4D2A3C2A2800EC2A4C217
:10024500A3D2A28006C2A4C2A3C2A274142DF8E64A
:0D025500F5807F017E00120006E4F5802296
:10000600EF4E600F7D027CEFDCFEDDFCEF1F70F033
:030016001E80ED5C
:0100190022C4
:1003580053890F438910758BA4758DFFC28FD28E78
:07036800D2ABD2AFC2BA22F2
:0303D100020358CC
:0303D4008F212254
:03001B0002032DB0
:10032D00C0E0C0F0C0D0758BA4758DFF0520E52011
:10033D0075F0648485F020E520C395215004D2909A
:0B034D008002C290D0D0D0F0D0E0328F
:0B03A600D288C289D2A8D2AFD2B82200
:0603C50012036F0203A603
:0D038C00E5086006E4F5087F01227F0022ED
:0D039900E5136006E4F5137F01227F0022CA
:0303D700AF112241
:0303DA00AF10223F
:0300030002001EDA
:10001E00C0E0C0F0C083C082C0D075D000C000C0A8
:10002E0001C002C003C004C005C006C007E50D70C4
:10003E000DFFFE1203B17F011203CB020123E50D6A
:10004E00640170481203BC8E0E8F0FE4FFFE120384
:10005E00B1D3E50F94A6E50E942E400DE50F948EC8
:10006E00E50E94325003020126D3E50F948CE50E73
:10007E0094264015E50F9474E50E942A500B7513D3
:10008E0001E4FF1203CB020126020126E50D6402F4
:10009E0060030201261203BC8E0E8F0FE4FFFE12C8
:1000AE0003B1D3E50F9414E50E9402402BE50F94A3
:1000BE00FCE50E94055021E512131313541F240969
:1000CE00F8C000E6FFE5125407FEF874010880023E
:1000DE00C333D8FCF45F8033D3E50F9426E50E943A
:1000EE0006402FE50F940EE50E940A5025E51213E7
:1000FE001313541F2409F8C000E6FFE5125407FE3F
:10010E00F87401088002C333D8FC4FD000F60512F4
:10011E008006751200750D01C3E51294207480944B
:10012E0080401D751200E50AF4B5090FE50CF4B513
:10013E000B09850911850B10750801E4FF1203CB1D
:10014E00D007D006D005D004D003D002D001D00005
:0B015E00D0D0D082D083D0F0D0E032AF
:10036F005389F0438901E4F58AF58CC28DC28C2242
:0B03B100AD07AC068C8CAF058F8A22D4
:0903BC00AF8CEFFEAD8AEDFF22CB
:0603CB00EF24FF928C22DA
:0300000002016991
:0C016900787FE4F6D8FD7581220201B019
:10017500020262E493A3F8E493A34003F68001F23C
:1001850008DFF48029E493A3F85407240CC8C3338B
:10019500C4540F4420C8834004F456800146F6DF5A
:1001A500E4800B010204081020408090037FE47E68
:1001B500019360BCA3FF543F30E509541FFEE4934F
:1001C500A360010ECF54C025E060A840B8E493A316
:1001D500FAE493A3F8E493A3C8C582C8CAC583CA41
:1001E500F0A3C8C582C8CAC583CADFE9DEE780BEF9
:01038B000071
:00000001FF
