:1007670054656D70657261747572653A002D002B62
:03077700002E0051
:1004620012079B7FE87E0312075312072B7BFF7A4A
:100472000779677D017F0112069412079B12061FFE
:100482008F258E248D238C22E4FFFEFDFCAB25AA52
:1004920024A923A8221201A97BFF50207A0779748C
:1004A2007D017F02120694AF25AE24AD23AC221249
:1004B20002228F258E248D238C22800B7A07797657
:1004C2007D017F02120694AF25AE24AD23AC221229
:1004D2000271AB07AA06750C037D027F0212067039
:1004E2007BFF7A0779787D057F021206947F007E72
:1004F200407D1C7C46AB25AA24A923A82212000316
:10050200120271E47B107A27F9F81203C2750C0407
:0A0512007D067F0212067002047CD1
:06078C00C2A58F80D2A778
:080792007F027EEFDEFEDFFCBA
:01079A00223C
:0A07B400C2A612078CC2A70207922A
:1006D900CFCDCFCECCCE1203317C007D0A120331AF
:0406E900ED2430FFCD
:0A06ED00D2A612078CC2A7020792E2
:1006F700AE07EEFB7A0064017004ED148009EB6429
:0E070700024A7009ED243F4480FF1207B4221D
:10072B007F381207B47F0C1207B47F061207B47F11
:04073B00010207B4FC
:0A07BE00AC031206F7AF040206EDCB
:060694008B088A09890AA7
:10069A001206F7E4FDAB08AA09A90A8D8275830040
:0C06AA001202F2FF60061206ED0D80E95E
:0106B6002221
:0A05EE00EF24FFFDEE34FFFC7F0A4E
:0805F8008E0D8F0E8C0F8D108B
:100600007F017E00E4FBEBC39510E50F6480F87476
:0E0610008098500AAC0DAD0E12031F0B80E84F
:01061E0022B9
:040670008A0A8B0B5C
:100674001206F7AA0CEAFF7E00D3940074809480DB
:0F068400400D1205EEAC0AAD0B1206D91A80E636
:010693002244
:040567008B828A8376
:10056B001206F7C3E58364809480400D7F2B12063F
:10057B00ED85831685821780107F2D1206EDC3E45F
:10058B009582F517E49583F516AA15EAFF7E00D33D
:10059B00940074809480400D1205EEAC16AD1712CA
:0505AB0006D91A80E6EC
:0105B0002228
:04051C008A1A8B1B91
:100520001206F7AA1CEAD39400748094804037EA3C
:1005300024FFFDE434FFFC7F107E001205F8AC1AA6
:10054000AD1BCFCDCFCECCCE120331EF540FFEC3B7
:10055000940A74809480EE5004243080022437FF83
:060560001206ED1A80BF37
:010566002272
:0405B1008A1F8B20F2
:1005B5001206F7AA21EAFF7E00D394007480948086
:1005C5004026EF24FFFDEE34FFFC7F021205F8AC58
:1005D5001FAD20CFCDCFCECCCE120331EF540124A9
:0805E50030FF1206ED1A80CD73
:0105ED0022EB
:0507C800007FE3DFFEED
:0107CD002209
:0507CE00007F1DDFFEAD
:0107D3002203
:0407DA007F02DFFEBD
:0107DE0022F8
:0507D400007F14DFFEB0
:0107D90022FD
:0107DF0022F7
:10071500D2B7C2B71207C8D2B71207CEA2B7E43311
:05072500FE1207C8FFF1
:01072A0022AC
:10077A00AE07C2B71207DAEE24FF92B71207D4D235
:02078A00B72294
:10073F00C2B71207DFD2B71207DFA2B7E433FE1238
:03074F0007D4FFCD
:010752002284
:0206B700AD078D
:1006B900E4FCECC39408748094805013A80474017A
:0F06C900088002C333D8FC5DFF12077A0C80E370
:0106D80022FF
:10064A00E4FDFCEDC3940874809480501612073FB1
:10065A00EF600DA8057401088002C333D8FC420478
:05066A000D80E0AF046B
:01066F002268
:0D079B001207157FCC1206B77F440206B787
:10061F001207157FCC1206B77FBE1206B712064A15
:10062F008F0812064AEFFEE508FFFDAC06EC12023A
:0B063F0038E4FBFA7980784102010CDE
:10075300EF4E600F7D027CEFDCFEDDFCEF1F70F0DF
:030763001E80ED08
:010766002270
:10000300EC4D6011E8497017ED33EC3304600DE4F7
:10001300FCFFFEFD22E933E8330470F80202DD122F
:1000230002A858046009E4CC248150062850090230
:1000330002E72840030202E4C0E0EB4A7044B980BF
:1000430006D0E0FB0202D3EF4E701CBD8008EBFF2D
:10005300EAFEE9FD80EBE98DF0A4FEE5F00200EC99
:10006300E9CDF9EAFEEBFFEF89F0A4FCE5F0CE89D8
:10007300F0A42EFFE435F0CD89F0A42DFEE435F095
:100083008067EF4E7005BD80D780C3EF8BF0A4ACC3
:10009300F0EE8BF0A42CFCE435F0F8EF8AF0A42CFE
:1000A300E5F038FCE433CB8DF0A42CFCE5F03BF811
:1000B300EE8AF0A42CFCE5F038F8E433CF89F0A401
:1000C3002CFCE5F038CF3400CE89F0A42FFFE5F007
:1000D3003EFEE433C98DF0A42EFEE5F039CD8AF05F
:1000E300A42FFFE5F03EFEE43DFD33D0E0FB5007D7
:1000F3000BBB000F0202E7EC2CFCEF33FFEE33FEE9
:06010300ED33FD0202BF16
:100109000202E7EC5D046005E8590470030202DDB0
:100119001202A8580460F6EC4860F2EC7004FDFE87
:10012900FF22C860DB2481C85009C39860025006C9
:100139000202E49850CAF582E9294B4A7005AB825C
:100149000202D375F0007C1A7880C3EF9BEE9AED1A
:1001590099400DC3EF9BFFEE9AFEED99FDE842F041
:10016900DC23ACF0D0E0FFD0E0FED0E0FDAB822094
:10017900E7101BEB60BAEC2CFCEF33FFEE33FEED1E
:1001890033FD0202BFE803F830E705C0F075F0005F
:10019900EF2FFFEE33FEED33FD40B830E7C280AA02
:1001A90074F8CC6480CCC86480C8F58204604FC3FD
:1001B900EB9FF5F0EA9E42F0E99D42F0E89C45F09C
:1001C900603C501DE5825FFFE582D313CB5BCBF426
:1001D9002B5582FB50280ABA002409B9002008804F
:1001E9001DE5825BFBE582D313CF5FCFF4C3132FE9
:1001F9005582FF50090EBE00050DBD00010CC3EB71
:100209009FF5F0EA9E42F0E99D42F0E89C45F060D6
:0902190007CC4820E701B3EC22F8
:10022200ED33EC33600A047003BD8004ECB2E7FCEA
:0102320022A9
:1002330075F020800E75F010800575F0087D007E46
:10024300007F003392D530D503120454EC334010B1
:10025300EF33FFEE33FEED33FDEC33FCD5F0ED224F
:0E026300E5F0247EA2D513CC92E7CDCEFF228B
:10027100EDD2E7CD33EC3392D524814006E4FFFE85
:10028100FDFC22FCE4CFCECDCC24E0501174FF80E4
:10029100EDC3CC13CCCD13CDCE13CECF13CF047081
:0702A100F030D5DE02045429
:1002A800E9D2E7C933E833F892D5EDD2E7CD33EC9C
:0702B80033FC5002B2D52215
:1002BF00EC30E7100FBF000C0EBE00080DBD0004A0
:1002CF000BEB6014A2D5EB13FCED92E7FD2274FF4C
:1002DF00FCFDFEFF22E480F8A2D574FF13FC7D80A5
:0302EF00E480EFB9
:030000000207A84C
:0C07A800787FE4F6D8FD7581250204621C
:1002F200BB010CE58229F582E5833AF583E02250C1
:1003020006E92582F8E622BBFE06E92582F8E2220A
:0D031200E58229F582E5833AF583E4932224
:10031F00EF8DF0A4A8F0CF8CF0A428CE8DF0A42EF2
:02032F00FE22AC
:10033100BC000BBE0029EF8DF084FFADF022E4CCB0
:10034100F875F008EF2FFFEE33FEEC33FCEE9DEC79
:10035100984005FCEE9DFE0FD5F0E9E4CEFD22EDBF
:10036100F8F5F0EE8420D21CFEADF075F008EF2F09
:10037100FFED33FD4007985006D5F0F222C398FDFA
:050381000FD5F0EA2297
:1003860075F008758200EF2FFFEE33FECD33CDCC2E
:1003960033CCC58233C5829BED9AEC99E5829840B1
:1003A6000CF582EE9BFEED9AFDEC99FC0FD5F0D68E
:1003B600E4CEFBE4CDFAE4CCF9A88222B800C1B9B8
:1003C6000059BA002DEC8BF084CFCECDFCE5F0CBF6
:1003D600F97818EF2FFFEE33FEED33FDEC33FCEB2F
:1003E60033FB10D703994004EB99FB0FD8E5E4F9EA
:1003F600FA227818EF2FFFEE33FEED33FDEC33FCD7
:10040600C933C910D7059BE99A4007EC9BFCE99ACA
:10041600F90FD8E0E4C9FAE4CCFB2275F010EF2F0F
:10042600FFEE33FEED33FDCC33CCC833C810D7070F
:100436009BEC9AE899400AED9BFDEC9AFCE899F84A
:0E0446000FD5F0DAE4CDFBE4CCFAE4C8F922DD
:0E045400C3E49FFFE49EFEE49DFDE49CFC22B9
:00000001FF
