:10041100EF4E600F7D027CEFDCFEDDFCEF1F70F024
:030421001E80ED4D
:0104240022B5
:0603A200012900012A0000
:05044D00AF2BE4F52BCC
:010452002287
:1003FB00E4FF20B1010F20B0027F0220B2027F0385
:05040B0020B3027F0494
:0104100022C9
:10028000852A291203FB8F2AAF297E00EF640170B3
:1002900007E52A7003752B01EF64024E7007E52A0B
:1002A0007003752B02E52964037007E52A70037556
:0F02B0002B03E52964047007E52A7003752B04FE
:0102BF00221C
:1003E4005389F0438901758A18758CFCC28DD28CAF
:0703F400D2A9D2AFC2B8226A
:10037E008F2C8C2D8D2E12043B7FA01202F51204B1
:10038E0025AF2C1202F5120425AF2E1202F512041F
:04039E002502000331
:020327008F2C19
:1003290012043B7FA01202F5120425AF2C1202F52C
:1003390012042512043B7FA11202F51204251203AF
:0D034900578F2D7F01120431120003AF2DDC
:010356002284
:09043B00D2A0D2A1C2A0C2A122EC
:07000300C2A0D2A1D2A0228D
:0202F500AD0753
:1002F700E4FBEBC394087480948050237E007480E1
:10030700A803088006CEA2E713CE13D8F8FFEDF5B1
:0F03170082EF558224FF92A0D2A1C2A10B80D306
:0103260022B4
:10035700E4FFFED2A0EEC39408748094805017D2B5
:10036700A130A00DA8067480088002C313D8FC42F0
:0603770007C2A10E80DFA9
:01037D00225D
:0A043100EF24FF92A0D2A1C2A12285
:0B042500D2A0D2A1A2A0E433FFC2A12C
:0104300022A9
:10000E001203E412044D8F277E00EF6401700EE59B
:10001E002870047D0180027D008D288068EF6402C7
:10002E004E700AF526F524F525F5288058E5276447
:10003E00037035E526FD7C00E4FF12037E7F057E0E
:10004E0000120411E524FD7C007F0112037E7F0562
:10005E007E00120411E525FD7C007F0212037E7FD7
:10006E00057E00120411801DE52764047017FF122F
:10007E0003278F267F011203278F247F0212032767
:10008E008F25E4F528E52675F00A84FD7C007F01B6
:10009E00120444E52675F00A84E5F0FD7C007F022B
:1000AE001204447D0B7C007F03120444E52475F09A
:1000BE000A84FD7C007F04120444E52475F00A8452
:1000CE00E5F0FD7C007F051204447D0B7C007F066D
:1000DE00120444E52575F00A84FD7C007F071204A6
:1000EE0044E52575F00A84E5F0FD7C007F081204D6
:0400FE0044020011A7
:1002C000E52860300525D3E525946374809480404B
:1002D00023E4F5250524D3E524943B7480948040E1
:1002E00013E4F5240526D3E526943B7480948040DE
:0502F00003E4F52622E5
:03000B00020102ED
:10010200C0E0C0F0C083C082C0D075D000C000C0C3
:0D01120001C002C003C004C005C006C00744
:10011F00758A18758CFC051FE51F7002051EC394A8
:10012F0014E51E94004009751E00751F0012028011
:10013F000521E52170020520C39402E520940040BB
:10014F00097520007521001203C50523E5237002F0
:10015F000522C3940AE522940040097522007523F5
:04016F00001202C0B8
:10017300D007D006D005D004D003D002D001D000E0
:0B018300D0D0D082D083D0F0D0E0328A
:1003A8000909000A0A0A0A0A0A0A0A0C123F065B25
:0C03B8004F666D7D077F6F00400108015B
:09044400AE0574092FF8A606228A
:10021A00E4F580EF14B40800505490023275F003EC
:10022A00A4C58325F0C5837302024A02024E020264
:10023A005202025602025A02026202026A02027260
:10024A00D2A4800ED2A48012D2A48016D2A4801A7C
:10025A00C2A4D2A3D2A28016C2A4D2A3C2A2800EE2
:10026A00C2A4C2A3D2A28006C2A4C2A3C2A274120A
:06027A002DF8E6F58022DC
:1003C50074092508F8E6FD7C00AF0812021A050835
:0E03D500D3E5089408748094804003750801F5
:0103E30022F7
:0300000002018E6C
:0C018E00787FE4F6D8FD75812E0201D5C3
:10019A0002000EE493A3F8E493A34003F68001F26D
:1001AA0008DFF48029E493A3F85407240CC8C33366
:1001BA00C4540F4420C8834004F456800146F6DF35
:1001CA00E4800B01020408102040809003A2E47E20
:1001DA00019360BCA3FF543F30E509541FFEE4932A
:1001EA00A360010ECF54C025E060A840B8E493A3F1
:1001FA00FAE493A3F8E493A3C8C582C8CAC583CA1C
:10020A00F0A3C8C582C8CAC583CADFE9DEE780BED3
:0103C4000038
:00000001FF
