:100168001201D41201078F14EF640170280512538D
:100178001203AF12FEEF7002F515EF64014E700323
:10018800751532EF64024E700375154BEF64034E1C
:100198007003751564E512FD7C007F0112009A80DA
:0101A800C294
:03000B000201A946
:1001A900C0E0C0F0C0D0758AA4758CFF0513E513B3
:1001B90075F0648485F013E513C395155004D29046
:0B01C9008002C290D0D0D0F0D0E03215
:10010700E4F51620B1137F14FE1201EB30B1FD7F29
:10011700147E001201EB75160120B0147F147E00C7
:100127001201EB30B0FD7F147E001201EB75160251
:1001370020B2147F147E001201EB30B2FD7F147ED3
:10014700001201EB75160320B3147F147E00120111
:10015700EB30B3FD7F147E001201EB751604AF166A
:010167002275
:0C01FF000A083F065B4F666D7D077F6FAE
:10009A00EF14B4080050549000AF75F003A4C58360
:1000AA0025F0C583730200C70200CB0200CF02000D
:1000BA00D30200D70200DF0200E70200EFD2A480D9
:1000CA000ED2A48012D2A48016D2A4801AC2A4D2BC
:1000DA00A3D2A28016C2A4D2A3C2A2800EC2A4C274
:1000EA00A3D2A28006C2A4C2A3C2A274082DF8E6B3
:0D00FA00F5807F017E001201EBE4F580220D
:1001D4005389F0438901758AA4758CFFC28DD28C32
:0701E400D2A9D2AFC2B8227C
:1001EB00EF4E600F7D027CEFDCFEDDFCEF1F70F04D
:0301FB001E80ED76
:0101FE0022DE
:0300000002000EED
:0C000E00787FE4F6D8FD758116020055DD
:10001A00020168E493A3F8E493A34003F68001F293
:10002A0008DFF48029E493A3F85407240CC8C333E7
:10003A00C4540F4420C8834004F456800146F6DFB6
:10004A00E4800B01020408102040809001FFE47E46
:10005A00019360BCA3FF543F30E509541FFEE493AB
:10006A00A360010ECF54C025E060A840B8E493A372
:10007A00FAE493A3F8E493A3C8C582C8CAC583CA9D
:10008A00F0A3C8C582C8CAC583CADFE9DEE780BE55
:01020B0000F2
:00000001FF
