BL51 BANKED LINKER/LOCATER V6.22.2.0                                                    03/11/2024  15:12:06  PAGE 1


BL51 BANKED LINKER/LOCATER V6.22.2.0, INVOKED BY:
D:\KEIL_V5\C51\BIN\BL51.EXE .\Objects\main.obj, .\Objects\LCD1602.obj, .\Objects\timer0.obj TO .\Objects\Project PRINT (
>> .\Listings\Project.m51) RAMSIZE (256) DISABLEWARNING (16)


MEMORY MODEL: SMALL


INPUT MODULES INCLUDED:
  .\Objects\main.obj (MAIN)
  .\Objects\LCD1602.obj (LCD1602)
  .\Objects\timer0.obj (TIMER0)
  D:\KEIL_V5\C51\LIB\C51S.LIB (?C_STARTUP)
  D:\KEIL_V5\C51\LIB\C51S.LIB (?C?CLDOPTR)
  D:\KEIL_V5\C51\LIB\C51S.LIB (?C?IMUL)
  D:\KEIL_V5\C51\LIB\C51S.LIB (?C?UIDIV)
  D:\KEIL_V5\C51\LIB\C51S.LIB (?C_INIT)


LINK MAP OF MODULE:  .\Objects\Project (MAIN)


            TYPE    BASE      LENGTH    RELOCATION   SEGMENT NAME
            -----------------------------------------------------

            * * * * * * *   D A T A   M E M O R Y   * * * * * * *
            REG     0000H     0008H     ABSOLUTE     "REG BANK 0"
            DATA    0008H     0009H     UNIT         _DATA_GROUP_
            DATA    0011H     0007H     UNIT         ?DT?_LCD_SHOWSIGNEDNUM?LCD1602
            DATA    0018H     0005H     UNIT         ?DT?MAIN
            DATA    001DH     0005H     UNIT         ?DT?_LCD_SHOWHEXNUM?LCD1602
            DATA    0022H     0005H     UNIT         ?DT?_LCD_SHOWBINNUM?LCD1602
            IDATA   0027H     0001H     UNIT         ?STACK

            * * * * * * *   C O D E   M E M O R Y   * * * * * * *
            CODE    0000H     0003H     ABSOLUTE     
                    0003H     0008H                  *** GAP ***
            CODE    000BH     0003H     ABSOLUTE     
            CODE    000EH     0094H     UNIT         ?C?LIB_CODE
            CODE    00A2H     008CH     UNIT         ?C_C51STARTUP
            CODE    012EH     0053H     UNIT         ?PR?TIME0_ROUNTINE?MAIN
            CODE    0181H     004FH     UNIT         ?PR?MAIN?MAIN
            CODE    01D0H     004BH     UNIT         ?PR?_LCD_SHOWHEXNUM?LCD1602
            CODE    021BH     004AH     UNIT         ?PR?_LCD_SHOWSIGNEDNUM?LCD1602
            CODE    0265H     003DH     UNIT         ?PR?_LCD_SHOWBINNUM?LCD1602
            CODE    02A2H     0031H     UNIT         ?PR?_LCD_POW?LCD1602
            CODE    02D3H     0024H     UNIT         ?PR?_LCD_SHOWNUM?LCD1602
            CODE    02F7H     0023H     UNIT         ?PR?_LCD_SHOWSTRING?LCD1602
            CODE    031AH     001EH     UNIT         ?PR?_LCD_WRITEDATA?LCD1602
            CODE    0338H     001EH     UNIT         ?PR?_LCD_SETCURSOR?LCD1602
            CODE    0356H     0017H     UNIT         ?PR?TIMER0_INIT?TIMER0
            CODE    036DH     0014H     UNIT         ?PR?LCD_INIT?LCD1602
            CODE    0381H     000FH     UNIT         ?PR?LCD_DELAY?LCD1602
            CODE    0390H     000EH     UNIT         ?CO?MAIN
            CODE    039EH     000AH     UNIT         ?C_INITSEG
            CODE    03A8H     000AH     UNIT         ?PR?_LCD_WRITECOMMAND?LCD1602
            CODE    03B2H     000AH     UNIT         ?PR?_LCD_SHOWCHAR?LCD1602

BL51 BANKED LINKER/LOCATER V6.22.2.0                                                  03/11/2024  15:12:06  PAGE 2




OVERLAY MAP OF MODULE:   .\Objects\Project (MAIN)


SEGMENT                                  DATA_GROUP 
  +--> CALLED SEGMENT                  START    LENGTH
------------------------------------------------------
?C_C51STARTUP                          -----    -----
  +--> ?PR?MAIN?MAIN
  +--> ?C_INITSEG

?PR?MAIN?MAIN                          -----    -----
  +--> ?PR?LCD_INIT?LCD1602
  +--> ?PR?TIMER0_INIT?TIMER0
  +--> ?CO?MAIN
  +--> ?PR?_LCD_SHOWSTRING?LCD1602
  +--> ?PR?_LCD_SHOWNUM?LCD1602

?PR?LCD_INIT?LCD1602                   -----    -----
  +--> ?PR?_LCD_WRITECOMMAND?LCD1602

?PR?_LCD_WRITECOMMAND?LCD1602          -----    -----
  +--> ?PR?LCD_DELAY?LCD1602

?PR?_LCD_SHOWSTRING?LCD1602            0008H    0003H
  +--> ?PR?_LCD_SETCURSOR?LCD1602
  +--> ?PR?_LCD_WRITEDATA?LCD1602

?PR?_LCD_SETCURSOR?LCD1602             -----    -----
  +--> ?PR?_LCD_WRITECOMMAND?LCD1602

?PR?_LCD_WRITEDATA?LCD1602             -----    -----
  +--> ?PR?LCD_DELAY?LCD1602

?PR?_LCD_SHOWNUM?LCD1602               0008H    0005H
  +--> ?PR?_LCD_SETCURSOR?LCD1602
  +--> ?PR?_LCD_POW?LCD1602
  +--> ?PR?_LCD_WRITEDATA?LCD1602

?PR?_LCD_POW?LCD1602                   000DH    0004H



SYMBOL TABLE OF MODULE:  .\Objects\Project (MAIN)

  VALUE           TYPE          NAME
  ----------------------------------

  -------         MODULE        MAIN
  C:0000H         SYMBOL        _ICE_DUMMY_
  D:001AH         PUBLIC        second
  D:001BH         PUBLIC        minute
  C:0181H         PUBLIC        main
  D:001CH         PUBLIC        hour
  D:008CH         PUBLIC        TH0
  D:008AH         PUBLIC        TL0
BL51 BANKED LINKER/LOCATER V6.22.2.0                                                  03/11/2024  15:12:06  PAGE 3


  C:012EH         PUBLIC        Time0_Rountine
  -------         PROC          MAIN
  C:0181H         LINE#         7
  C:0181H         LINE#         8
  C:0181H         LINE#         9
  C:0184H         LINE#         10
  C:0187H         LINE#         12
  C:0194H         LINE#         13
  C:01A1H         LINE#         15
  C:01A1H         LINE#         16
  C:01A1H         LINE#         17
  C:01B0H         LINE#         18
  C:01BFH         LINE#         19
  C:01CEH         LINE#         20
  -------         ENDPROC       MAIN
  -------         PROC          TIME0_ROUNTINE
  -------         DO            
  D:0018H         SYMBOL        t0Count
  -------         ENDDO         
  C:012EH         LINE#         24
  C:0132H         LINE#         27
  C:0135H         LINE#         28
  C:0138H         LINE#         30
  C:0140H         LINE#         32
  C:0149H         LINE#         33
  C:0149H         LINE#         34
  C:014FH         LINE#         35
  C:0151H         LINE#         36
  C:015BH         LINE#         37
  C:015BH         LINE#         38
  C:015EH         LINE#         39
  C:0160H         LINE#         40
  C:016AH         LINE#         41
  C:016AH         LINE#         42
  C:016DH         LINE#         43
  C:016FH         LINE#         44
  C:0179H         LINE#         45
  C:0179H         LINE#         46
  C:017CH         LINE#         47
  C:017CH         LINE#         48
  C:017CH         LINE#         49
  C:017CH         LINE#         50
  C:017CH         LINE#         51
  -------         ENDPROC       TIME0_ROUNTINE
  -------         ENDMOD        MAIN

  -------         MODULE        LCD1602
  C:0000H         SYMBOL        _ICE_DUMMY_
  D:0080H         PUBLIC        P0
  D:00A0H         PUBLIC        P2
  C:03A8H         PUBLIC        _LCD_WriteCommand
  C:02D3H         PUBLIC        _LCD_ShowNum
  C:0265H         PUBLIC        _LCD_ShowBinNum
  C:0387H         PUBLIC        LCD_Delay
  C:01D0H         PUBLIC        _LCD_ShowHexNum
  C:032EH         PUBLIC        _LCD_WriteData
  B:00A0H.7       PUBLIC        LCD_EN
BL51 BANKED LINKER/LOCATER V6.22.2.0                                                  03/11/2024  15:12:06  PAGE 4


  C:036DH         PUBLIC        LCD_Init
  C:02F7H         PUBLIC        _LCD_ShowString
  C:03B2H         PUBLIC        _LCD_ShowChar
  B:00A0H.6       PUBLIC        LCD_RS
  B:00A0H.5       PUBLIC        LCD_RW
  C:0338H         PUBLIC        _LCD_SetCursor
  C:021BH         PUBLIC        _LCD_ShowSignedNum
  C:02ACH         PUBLIC        _LCD_Pow
  -------         PROC          L?0047
  -------         ENDPROC       L?0047
  -------         PROC          LCD_DELAY
  -------         DO            
  D:0007H         SYMBOL        i
  D:0006H         SYMBOL        j
  -------         ENDDO         
  C:0387H         LINE#         15
  C:0387H         LINE#         16
  C:0387H         LINE#         19
  C:0389H         LINE#         20
  C:038BH         LINE#         22
  C:038BH         LINE#         23
  C:038DH         LINE#         24
  C:038FH         LINE#         25
  -------         ENDPROC       LCD_DELAY
  -------         PROC          _LCD_WRITECOMMAND
  D:0007H         SYMBOL        Command
  C:03A8H         LINE#         32
  C:03A8H         LINE#         33
  C:03A8H         LINE#         34
  C:03AAH         LINE#         35
  C:03AAH         LINE#         36
  C:03AAH         LINE#         37
  C:03AAH         LINE#         38
  C:03ADH         LINE#         39
  C:03AFH         LINE#         40
  -------         ENDPROC       _LCD_WRITECOMMAND
  -------         PROC          L?0045
  -------         ENDPROC       L?0045
  -------         PROC          _LCD_WRITEDATA
  D:0007H         SYMBOL        Data
  C:032EH         LINE#         48
  C:032EH         LINE#         49
  C:032EH         LINE#         50
  C:0330H         LINE#         51
  C:0330H         LINE#         52
  C:0330H         LINE#         53
  C:0330H         LINE#         54
  C:0333H         LINE#         55
  C:0335H         LINE#         56
  -------         ENDPROC       _LCD_WRITEDATA
  -------         PROC          _LCD_SETCURSOR
  D:0006H         SYMBOL        Line
  D:0005H         SYMBOL        Column
  C:0338H         LINE#         65
  C:033AH         LINE#         66
  C:033AH         LINE#         67
  C:0342H         LINE#         68
BL51 BANKED LINKER/LOCATER V6.22.2.0                                                  03/11/2024  15:12:06  PAGE 5


  C:0342H         LINE#         69
  C:0344H         LINE#         70
  C:0346H         LINE#         71
  C:034CH         LINE#         72
  C:034CH         LINE#         73
  C:0355H         LINE#         74
  C:0355H         LINE#         75
  -------         ENDPROC       _LCD_SETCURSOR
  -------         PROC          LCD_INIT
  C:036DH         LINE#         82
  C:036DH         LINE#         83
  C:036DH         LINE#         84
  C:0372H         LINE#         85
  C:0377H         LINE#         86
  C:037CH         LINE#         87
  -------         ENDPROC       LCD_INIT
  -------         PROC          _LCD_SHOWCHAR
  D:0006H         SYMBOL        Line
  D:0005H         SYMBOL        Column
  D:0004H         SYMBOL        Char
  C:03B2H         LINE#         97
  C:03B4H         LINE#         98
  C:03B4H         LINE#         99
  C:03B7H         LINE#         100
  -------         ENDPROC       _LCD_SHOWCHAR
  -------         PROC          _LCD_SHOWSTRING
  D:0007H         SYMBOL        Line
  D:0005H         SYMBOL        Column
  D:0008H         SYMBOL        String
  -------         DO            
  D:0005H         SYMBOL        i
  -------         ENDDO         
  C:02F7H         LINE#         110
  C:02FDH         LINE#         111
  C:02FDH         LINE#         113
  C:0300H         LINE#         114
  C:0313H         LINE#         115
  C:0313H         LINE#         116
  C:0316H         LINE#         117
  C:0319H         LINE#         118
  -------         ENDPROC       _LCD_SHOWSTRING
  -------         PROC          L?0046
  -------         ENDPROC       L?0046
  -------         PROC          _LCD_POW
  D:000DH         SYMBOL        X
  D:000FH         SYMBOL        Y
  -------         DO            
  D:0003H         SYMBOL        i
  D:0006H         SYMBOL        Result
  -------         ENDDO         
  C:02ACH         LINE#         123
  C:02B4H         LINE#         124
  C:02B4H         LINE#         126
  C:02B8H         LINE#         127
  C:02C8H         LINE#         128
  C:02C8H         LINE#         129
  C:02CFH         LINE#         130
BL51 BANKED LINKER/LOCATER V6.22.2.0                                                  03/11/2024  15:12:06  PAGE 6


  C:02D2H         LINE#         131
  C:02D2H         LINE#         132
  -------         ENDPROC       _LCD_POW
  -------         PROC          _LCD_SHOWNUM
  D:0007H         SYMBOL        Line
  D:0005H         SYMBOL        Column
  D:000AH         SYMBOL        Number
  D:000CH         SYMBOL        Length
  -------         DO            
  D:0002H         SYMBOL        i
  -------         ENDDO         
  C:02D3H         LINE#         142
  C:02D7H         LINE#         143
  C:02D7H         LINE#         145
  C:02DAH         LINE#         146
  C:02E9H         LINE#         147
  C:02E9H         LINE#         148
  C:02F3H         LINE#         149
  C:02F6H         LINE#         150
  -------         ENDPROC       _LCD_SHOWNUM
  -------         PROC          _LCD_SHOWSIGNEDNUM
  D:0007H         SYMBOL        Line
  D:0005H         SYMBOL        Column
  D:0082H         SYMBOL        Number
  D:0015H         SYMBOL        Length
  -------         DO            
  D:0002H         SYMBOL        i
  D:0016H         SYMBOL        Number1
  -------         ENDDO         
  C:021BH         LINE#         160
  C:021FH         LINE#         161
  C:021FH         LINE#         164
  C:0222H         LINE#         165
  C:022BH         LINE#         166
  C:022BH         LINE#         167
  C:0230H         LINE#         168
  C:0236H         LINE#         169
  C:0238H         LINE#         171
  C:0238H         LINE#         172
  C:023DH         LINE#         173
  C:0248H         LINE#         174
  C:0248H         LINE#         175
  C:0257H         LINE#         176
  C:0257H         LINE#         177
  C:0261H         LINE#         178
  C:0264H         LINE#         179
  -------         ENDPROC       _LCD_SHOWSIGNEDNUM
  -------         PROC          _LCD_SHOWHEXNUM
  D:0007H         SYMBOL        Line
  D:0005H         SYMBOL        Column
  D:001FH         SYMBOL        Number
  D:0021H         SYMBOL        Length
  -------         DO            
  D:0002H         SYMBOL        i
  D:0006H         SYMBOL        SingleNumber
  -------         ENDDO         
  C:01D0H         LINE#         189
BL51 BANKED LINKER/LOCATER V6.22.2.0                                                  03/11/2024  15:12:06  PAGE 7


  C:01D4H         LINE#         190
  C:01D4H         LINE#         192
  C:01D7H         LINE#         193
  C:01E3H         LINE#         194
  C:01E3H         LINE#         195
  C:0203H         LINE#         196
  C:020DH         LINE#         197
  C:020DH         LINE#         198
  C:020FH         LINE#         199
  C:0211H         LINE#         201
  C:0211H         LINE#         202
  C:0217H         LINE#         203
  C:0217H         LINE#         204
  C:021AH         LINE#         205
  -------         ENDPROC       _LCD_SHOWHEXNUM
  -------         PROC          _LCD_SHOWBINNUM
  D:0007H         SYMBOL        Line
  D:0005H         SYMBOL        Column
  D:0024H         SYMBOL        Number
  D:0026H         SYMBOL        Length
  -------         DO            
  D:0002H         SYMBOL        i
  -------         ENDDO         
  C:0265H         LINE#         215
  C:0269H         LINE#         216
  C:0269H         LINE#         218
  C:026CH         LINE#         219
  C:027BH         LINE#         220
  C:027BH         LINE#         221
  C:029EH         LINE#         222
  C:02A1H         LINE#         223
  -------         ENDPROC       _LCD_SHOWBINNUM
  -------         ENDMOD        LCD1602

  -------         MODULE        TIMER0
  C:0000H         SYMBOL        _ICE_DUMMY_
  B:00A8H.7       PUBLIC        EA
  D:0089H         PUBLIC        TMOD
  B:00A8H.1       PUBLIC        ET0
  B:0088H.5       PUBLIC        TF0
  D:008CH         PUBLIC        TH0
  D:008AH         PUBLIC        TL0
  B:0088H.4       PUBLIC        TR0
  B:00B8H.0       PUBLIC        PX0
  C:0356H         PUBLIC        timer0_init
  -------         PROC          TIMER0_INIT
  C:0356H         LINE#         7
  C:0356H         LINE#         8
  C:0356H         LINE#         9
  C:0359H         LINE#         10
  C:035CH         LINE#         11
  C:035FH         LINE#         12
  C:0362H         LINE#         13
  C:0364H         LINE#         14
  C:0366H         LINE#         15
  C:0368H         LINE#         16
  C:036AH         LINE#         17
BL51 BANKED LINKER/LOCATER V6.22.2.0                                                  03/11/2024  15:12:06  PAGE 8


  C:036CH         LINE#         18
  -------         ENDPROC       TIMER0_INIT
  -------         ENDMOD        TIMER0

  -------         MODULE        ?C?CLDOPTR
  C:000EH         PUBLIC        ?C?CLDOPTR
  -------         ENDMOD        ?C?CLDOPTR

  -------         MODULE        ?C?IMUL
  C:003BH         PUBLIC        ?C?IMUL
  -------         ENDMOD        ?C?IMUL

  -------         MODULE        ?C?UIDIV
  C:004DH         PUBLIC        ?C?UIDIV
  -------         ENDMOD        ?C?UIDIV

Program Size: data=40.0 xdata=0 code=948
LINK/LOCATE RUN COMPLETE.  0 WARNING(S),  0 ERROR(S)
