:1005110050617373776F72643A004F4B20004552FC
:02052100520086
:0A0532000123000224000001220052
:10018C001204FD7BFF7A0579117D017F0112048A2F
:10019C001200038F23E52360F7D3940A74809480B4
:1001AC00503BC3E5229404748094805022AE24AF5B
:1001BC00257C007D0A1202708E248F25E52375F0B4
:1001CC000A84E5F02525F525E43524F5240522756A
:1001DC000C04AB25AA247D017F02120466E523647E
:1001EC000B7034E525B4290DE524B409087BFF7A9E
:1001FC0005791B80067BFF7A05791F7D0E7F011226
:10020C00048AE4F524F525F522750C04AB25AA2403
:10021C007D017F02120466E523640C600302019CDD
:10022C00F524F525F522750C04AB25AA247D017F58
:07023C000212046602019C9E
:1004E900EF4E600F7D027CEFDCFEDDFCEF1F70F04C
:0304F9001E80ED75
:0104FC0022DD
:06052300C2A58F80D2A7E3
:080529007F027EEFDEFEDFFC25
:0105310022A7
:0A053D00C2A6120523C2A702052979
:1004AD00CFCDCFCECCCE1202827C007D0A1202823D
:0404BD00ED2430FFFB
:0A04C100D2A6120523C2A7020529E6
:1004CB00AE07EEFB7A0064017004ED148009EB6457
:0E04DB00024A7009ED243F4480FF12053D22C5
:1004FD007F3812053D7F0C12053D7F0612053D7FAD
:04050D000102053DA5
:0A054700AC031204CBAF040204C1A0
:06048A008B088A09890AB3
:100490001204CBE4FDAB08AA09A90A8D827583007A
:0C04A000120243FF60061204C10D80E947
:0104AC00222D
:0A043500EF24FFFDEE34FFFC7F0A08
:08043F008E0D8F0E8C0F8D1045
:100447007F017E00E4FBEBC39510E50F6480F87431
:0E0457008098500AAC0DAD0E1202700B80E8BA
:010465002274
:040466008A0A8B0B68
:10046A001204CBAA0CEAFF7E00D394007480948015
:0F047A00400D120435AC0AAD0B1204AD1A80E62A
:010489002250
:0403AE008B828A8331
:1003B2001204CBC3E58364809480400D7F2B12042A
:1003C200C185831685821780107F2D1204C1C3E474
:1003D2009582F517E49583F516AA15EAFF7E00D3F8
:1003E200940074809480400D120435AC16AD17123F
:0503F20004AD1A80E6D5
:0103F70022E3
:040363008A1A8B1B4C
:100367001204CBAA1CEAD39400748094804037EA25
:1003770024FFFDE434FFFC7F107E0012043FAC1A1B
:10038700AD1BCFCDCFCECCCE120282EF540FFEC322
:10039700940A74809480EE5004243080022437FF3E
:0603A7001204C11A80BF20
:0103AD00222D
:0403F8008A1F8B20AD
:1003FC001204CBAA21EAFF7E00D39400748094806F
:10040C004026EF24FFFDEE34FFFC7F0212043FACCC
:10041C001FAD20CFCDCFCECCCE120282EF54012413
:08042C0030FF1204C11A80CD5B
:0104340022A5
:10000300E4F5087590FFC2932097137F14FE120442
:10001300E93097FD7F147E001204E97508012096EC
:10002300147F147E001204E93096FD7F147E0012C3
:1000330004E97508052095147F147E001204E93045
:1000430095FD7F147E001204E97508092094147F3E
:10005300147E001204E93094FD7F147E001204E93B
:1000630075080D7590FFC2922097147F147E0012BD
:1000730004E93097FD7F147E001204E9750802201D
:1000830096147F147E001204E93096FD7F147E00DF
:100093001204E97508062095147F147E001204E902
:1000A3003095FD7F147E001204E975080A2094142C
:1000B3007F147E001204E93094FD7F147E00120445
:1000C300E975080E7590FFC2912097147F147E0086
:1000D3001204E93097FD7F147E001204E9750803CA
:1000E3002096147F147E001204E93096FD7F147E5F
:1000F300001204E97508072095147F147E0012048A
:10010300E93095FD7F147E001204E975080B2094F5
:10011300147F147E001204E93094FD7F147E0012D4
:1001230004E975080F7590FFC2902097147F147E21
:10013300001204E93097FD7F147E001204E975086C
:10014300042096147F147E001204E93096FD7F1478
:100153007E001204E97508082095147F147E0012AE
:1001630004E93095FD7F147E001204E975080C2024
:1001730094147F147E001204E93094FD7F147E00F2
:080183001204E9750810AF0831
:01018B002251
:030000000202D722
:0C02D700787FE4F6D8FD75812502031E37
:10024300BB010CE58229F582E5833AF583E0225070
:1002530006E92582F8E622BBFE06E92582F8E222BA
:0D026300E58229F582E5833AF583E49322D4
:10027000EF8DF0A4A8F0CF8CF0A428CE8DF0A42EA2
:02028000FE225C
:10028200BC000BBE0029EF8DF084FFADF022E4CC60
:10029200F875F008EF2FFFEE33FEEC33FCEE9DEC29
:1002A200984005FCEE9DFE0FD5F0E9E4CEFD22ED6F
:1002B200F8F5F0EE8420D21CFEADF075F008EF2FB9
:1002C200FFED33FD4007985006D5F0F222C398FDAA
:0502D2000FD5F0EA2247
:1002E30002018CE493A3F8E493A34003F68001F2A4
:1002F30008DFF48029E493A3F85407240CC8C3331C
:10030300C4540F4420C8834004F456800146F6DFEA
:10031300E4800B0102040810204080900532E47E43
:10032300019360BCA3FF543F30E509541FFEE493DF
:10033300A360010ECF54C025E060A840B8E493A3A6
:10034300FAE493A3F8E493A3C8C582C8CAC583CAD1
:10035300F0A3C8C582C8CAC583CADFE9DEE780BE89
:01053C0000BE
:00000001FF
