C51 COMPILER V9.60.0.0   ONEWIRE                                                           03/21/2024 16:00:50 PAGE 1   


C51 COMPILER V9.60.0.0, COMPILATION OF MODULE ONEWIRE
OBJECT MODULE PLACED IN .\Objects\OneWire.obj
COMPILER INVOKED BY: d:\Keil_v5\C51\BIN\C51.EXE OneWire.c OPTIMIZE(8,SPEED) BROWSE DEBUG OBJECTEXTEND PRINT(.\Listings\O
                    -neWire.lst) TABS(2) OBJECT(.\Objects\OneWire.obj)

line level    source

   1          #include <REGX52.H>
   2          #include <INTRINS.H>
   3          
   4          sbit ONEWIRE_DQ = P3^7;
   5          
   6          /** @bref 延迟500us函数
   7            * @param 无
   8            * @retval 无
   9            */
  10          void delay500us()   //@11.0592MHz
  11          {
  12   1        unsigned char i;
  13   1      
  14   1        _nop_();
  15   1        i = 227;
  16   1        while (--i);
  17   1      }
  18          
  19          /** @bref 延迟70us函数
  20            * @param 无
  21            * @retval 无
  22            */
  23          void delay70us()    //@11.0592MHz
  24          {
  25   1        unsigned char i;
  26   1      
  27   1        _nop_();
  28   1        i = 29;
  29   1        while (--i);
  30   1      }
  31          
  32          /** @bref 延迟10us函数
  33            * @param 无
  34            * @retval 无
  35            */
  36          void delay10us()    //@11.0592MHz
  37          {
  38   1        unsigned char i;
  39   1      
  40   1        i = 2;
  41   1        while (--i);
  42   1      }
  43          
  44          /** @bref 延迟50us函数
  45            * @param 无
  46            * @retval 无
  47            */
  48          void delay50us()    //@11.0592MHz
  49          {
  50   1        unsigned char i;
  51   1      
  52   1        _nop_();
  53   1        i = 20;
  54   1        while (--i);
C51 COMPILER V9.60.0.0   ONEWIRE                                                           03/21/2024 16:00:50 PAGE 2   

  55   1      }
  56          
  57          /** @bref 延迟5us函数
  58            * @param 无
  59            * @retval 无
  60            */
  61          void delay5us()   //@11.0592MHz
  62          {
  63   1        
  64   1      }
  65          
  66          /** @bref 单总线初始化
  67            * @param 无
  68            * @retval 从机响应位，0是响应，1是未响应
  69            */
  70          unsigned char OneWire_init()
  71          {
  72   1        unsigned char ack;
  73   1        
  74   1        ONEWIRE_DQ = 1;
  75   1        ONEWIRE_DQ = 0;
  76   1        delay500us();
  77   1        ONEWIRE_DQ = 1;
  78   1        delay70us();
  79   1        ack = ONEWIRE_DQ;
  80   1        delay500us();
  81   1        
  82   1        return ack;
  83   1      }
  84          
  85          /** @bref 单总线发送一位
  86            * @param 要发送的一位数据
  87            * @retval 无
  88            */
  89          void OneWire_sendBit(unsigned char Bit)
  90          {
  91   1        ONEWIRE_DQ = 0;
  92   1        delay10us();
  93   1        ONEWIRE_DQ = Bit;
  94   1        delay50us();
  95   1        ONEWIRE_DQ = 1; 
  96   1      }
  97          
  98          /** @bref 单总线接收一位
  99            * @param 无
 100            * @retval 接收到的一位数据
 101            */
 102          unsigned char OneWire_recevieBit()
 103          {
 104   1        unsigned char Bit;
 105   1        
 106   1        ONEWIRE_DQ = 0;
 107   1        delay5us();
 108   1        ONEWIRE_DQ = 1;
 109   1        delay5us();
 110   1        Bit = ONEWIRE_DQ;
 111   1        delay50us();
 112   1        
 113   1        return Bit;
 114   1      }
 115          
 116          /** @bref 单总线发送一个字节
C51 COMPILER V9.60.0.0   ONEWIRE                                                           03/21/2024 16:00:50 PAGE 3   

 117            * @param 要发送的字节数据
 118            * @retval 无
 119            */
 120          void OneWire_sendByte(unsigned char byte)
 121          {
 122   1        unsigned char i = 0;
 123   1        for(i = 0; i < 8; i++)
 124   1        {
 125   2          OneWire_sendBit(byte & (0x01 << i));
 126   2        }
 127   1      }
 128          
 129          /** @bref 单总线接收一个字节
 130            * @param 无
 131            * @retval 要接收的字节数据
 132            */
 133          unsigned char OneWire_receiveByte()
 134          {
 135   1        unsigned char i = 0;
 136   1        unsigned char byte = 0x00;
 137   1        for(i = 0; i < 8; i++)
 138   1        {
 139   2          if(OneWire_recevieBit())
 140   2          {
 141   3            byte |= 0x01 << i;
 142   3          }
 143   2        }
 144   1        
 145   1        return byte;
 146   1      }


MODULE INFORMATION:   STATIC OVERLAYABLE
   CODE SIZE        =    156    ----
   CONSTANT SIZE    =   ----    ----
   XDATA SIZE       =   ----    ----
   PDATA SIZE       =   ----    ----
   DATA SIZE        =   ----    ----
   IDATA SIZE       =   ----    ----
   BIT SIZE         =   ----    ----
END OF MODULE INFORMATION.


C51 COMPILATION COMPLETE.  0 WARNING(S),  0 ERROR(S)
