:10014F00E4FDFC7F011200F012008F8F12E51260A8
:10015F00F77F647E00120173E512FD7C007F0112B0
:04016F0000F080E438
:0C01A9000A083F065B4F666D7D077F6F04
:1000F000EF14B40800505090010575F003A4C583B7
:1001000025F0C5837302011D02011D0201210201B8
:1001100025020129020131020139020141D2A480E4
:100120000AD2A48016D2A4801AC2A4D2A3D2A280DA
:1001300016C2A4D2A3C2A2800EC2A4C2A3D2A2801D
:0F01400006C2A4C2A3C2A274082DF8E6F580225D
:10008F00E4F51320B1137F14FE12019530B1FD7FFB
:10009F00147E0012019575130120B0147F147E0099
:1000AF0012019530B0FD7F147E0012019575130279
:1000BF0020B2147F147E0012019530B2FD7F147EA2
:1000CF000012019575130320B3147F147E001201E3
:1000DF009530B3FD7F147E00120195751304AF1395
:0100EF0022EE
:0501B600007FE3DFFE05
:0101BB002221
:04017300AD07AC0622
:10017700E4FBFAED25E0FFEC33FEC3EB9FEA9E506C
:0D0187000CB2A51201B60BBB00010A80E608
:010194002248
:10019500EF4E600F7D027CEFDCFEDDFCEF1F70F0A3
:0301A5001E80EDCC
:0101A8002234
:03000000020003F8
:0C000300787FE4F6D8FD75811302004AF6
:10000F0002014FE493A3F8E493A34003F68001F2B7
:10001F0008DFF48029E493A3F85407240CC8C333F2
:10002F00C4540F4420C8834004F456800146F6DFC1
:10003F00E4800B01020408102040809001A9E47EA7
:10004F00019360BCA3FF543F30E509541FFEE493B6
:10005F00A360010ECF54C025E060A840B8E493A37D
:10006F00FAE493A3F8E493A3C8C582C8CAC583CAA8
:10007F00F0A3C8C582C8CAC583CADFE9DEE780BE60
:0101B5000049
:00000001FF
