:0C00EE000A083F065C4F555D7D077F5FF0
:10008F00EF14B4080050509000A475F003A4C5837A
:10009F0025F0C583730200BC0200BC0200C0020041
:1000AF00C40200C80200D00200D80200E0D2A4802F
:1000BF000AD2A48016D2A4801AC2A4D2A3D2A2803C
:1000CF0016C2A4D2A3C2A2800EC2A4C2A3D2A2807F
:0F00DF0006C2A4C2A3C2A274082DF8E6F58022BF
:0A00FB00E4FDFC7F0812008F80FE78
:03000000020003F8
:0C000300787FE4F6D8FD75811102004AF8
:10000F000200FBE493A3F8E493A34003F68001F20C
:10001F0008DFF48029E493A3F85407240CC8C333F2
:10002F00C4540F4420C8834004F456800146F6DFC1
:10003F00E4800B01020408102040809000EEE47E63
:10004F00019360BCA3FF543F30E509541FFEE493B6
:10005F00A360010ECF54C025E060A840B8E493A37D
:10006F00FAE493A3F8E493A3C8C582C8CAC583CAA8
:10007F00F0A3C8C582C8CAC583CADFE9DEE780BE60
:0100FA000005
:00000001FF
