BL51 BANKED LINKER/LOCATER V6.22.2.0                                                    03/15/2024  15:41:27  PAGE 1


BL51 BANKED LINKER/LOCATER V6.22.2.0, INVOKED BY:
D:\KEIL_V5\C51\BIN\BL51.EXE .\Objects\main.obj, .\Objects\LCD1602.obj, .\Objects\DS1302.obj TO .\Objects\Project PRINT (
>> .\Listings\Project.m51) RAMSIZE (256) DISABLEWARNING (16)


MEMORY MODEL: SMALL


INPUT MODULES INCLUDED:
  .\Objects\main.obj (MAIN)
  .\Objects\LCD1602.obj (LCD1602)
  .\Objects\DS1302.obj (DS1302)
  D:\KEIL_V5\C51\LIB\C51S.LIB (?C_STARTUP)
  D:\KEIL_V5\C51\LIB\C51S.LIB (?C?CLDPTR)
  D:\KEIL_V5\C51\LIB\C51S.LIB (?C?CLDOPTR)
  D:\KEIL_V5\C51\LIB\C51S.LIB (?C?CSTPTR)
  D:\KEIL_V5\C51\LIB\C51S.LIB (?C?CSTOPTR)
  D:\KEIL_V5\C51\LIB\C51S.LIB (?C?IMUL)
  D:\KEIL_V5\C51\LIB\C51S.LIB (?C?UIDIV)
  D:\KEIL_V5\C51\LIB\C51S.LIB (?C_INIT)


LINK MAP OF MODULE:  .\Objects\Project (MAIN)


            TYPE    BASE      LENGTH    RELOCATION   SEGMENT NAME
            -----------------------------------------------------

            * * * * * * *   D A T A   M E M O R Y   * * * * * * *
            REG     0000H     0008H     ABSOLUTE     "REG BANK 0"
            DATA    0008H     0009H     UNIT         _DATA_GROUP_
            DATA    0011H     0007H     UNIT         ?DT?MAIN
            DATA    0018H     0007H     UNIT         ?DT?_LCD_SHOWSIGNEDNUM?LCD1602
            DATA    001FH     0005H     UNIT         ?DT?_LCD_SHOWHEXNUM?LCD1602
            DATA    0024H     0005H     UNIT         ?DT?_LCD_SHOWBINNUM?LCD1602
            IDATA   0029H     0001H     UNIT         ?STACK

            * * * * * * *   C O D E   M E M O R Y   * * * * * * *
            CODE    0000H     0003H     ABSOLUTE     
            CODE    0003H     00E1H     UNIT         ?C?LIB_CODE
            CODE    00E4H     0090H     UNIT         ?PR?_DS1302_GETTIME?DS1302
            CODE    0174H     008FH     UNIT         ?PR?_DS1302_SETTIME?DS1302
            CODE    0203H     008EH     UNIT         ?PR?MAIN?MAIN
            CODE    0291H     008CH     UNIT         ?C_C51STARTUP
            CODE    031DH     0069H     UNIT         ?PR?_DS1302_WRITEBYTE?DS1302
            CODE    0386H     0060H     UNIT         ?PR?_DS1302_READBYTE?DS1302
            CODE    03E6H     004BH     UNIT         ?PR?_LCD_SHOWHEXNUM?LCD1602
            CODE    0431H     004AH     UNIT         ?PR?_LCD_SHOWSIGNEDNUM?LCD1602
            CODE    047BH     003DH     UNIT         ?PR?_LCD_SHOWBINNUM?LCD1602
            CODE    04B8H     0031H     UNIT         ?PR?_LCD_POW?LCD1602
            CODE    04E9H     0024H     UNIT         ?PR?_LCD_SHOWNUM?LCD1602
            CODE    050DH     0023H     UNIT         ?PR?_LCD_SHOWSTRING?LCD1602
            CODE    0530H     001EH     UNIT         ?PR?_LCD_WRITEDATA?LCD1602
            CODE    054EH     001EH     UNIT         ?PR?_LCD_SETCURSOR?LCD1602
            CODE    056CH     001DH     UNIT         ?PR?_GETBCDFROMDEC?DS1302
            CODE    0589H     0014H     UNIT         ?PR?LCD_INIT?LCD1602
            CODE    059DH     0012H     UNIT         ?CO?MAIN
            CODE    05AFH     0012H     UNIT         ?PR?_GETDECFROMBCD?DS1302
BL51 BANKED LINKER/LOCATER V6.22.2.0                                                  03/15/2024  15:41:27  PAGE 2


            CODE    05C1H     000FH     UNIT         ?PR?LCD_DELAY?LCD1602
            CODE    05D0H     000AH     UNIT         ?C_INITSEG
            CODE    05DAH     000AH     UNIT         ?PR?_LCD_WRITECOMMAND?LCD1602
            CODE    05E4H     000AH     UNIT         ?PR?_LCD_SHOWCHAR?LCD1602
            CODE    05EEH     0005H     UNIT         ?PR?DS1302_INIT?DS1302



OVERLAY MAP OF MODULE:   .\Objects\Project (MAIN)


SEGMENT                                  DATA_GROUP 
  +--> CALLED SEGMENT                  START    LENGTH
------------------------------------------------------
?C_C51STARTUP                          -----    -----
  +--> ?PR?MAIN?MAIN
  +--> ?C_INITSEG

?PR?MAIN?MAIN                          -----    -----
  +--> ?PR?LCD_INIT?LCD1602
  +--> ?PR?DS1302_INIT?DS1302
  +--> ?PR?_DS1302_SETTIME?DS1302
  +--> ?CO?MAIN
  +--> ?PR?_LCD_SHOWSTRING?LCD1602
  +--> ?PR?_DS1302_GETTIME?DS1302
  +--> ?PR?_LCD_SHOWNUM?LCD1602

?PR?LCD_INIT?LCD1602                   -----    -----
  +--> ?PR?_LCD_WRITECOMMAND?LCD1602

?PR?_LCD_WRITECOMMAND?LCD1602          -----    -----
  +--> ?PR?LCD_DELAY?LCD1602

?PR?_DS1302_SETTIME?DS1302             0008H    0003H
  +--> ?PR?_DS1302_WRITEBYTE?DS1302
  +--> ?PR?_GETBCDFROMDEC?DS1302

?PR?_DS1302_WRITEBYTE?DS1302           000BH    0002H

?PR?_LCD_SHOWSTRING?LCD1602            0008H    0003H
  +--> ?PR?_LCD_SETCURSOR?LCD1602
  +--> ?PR?_LCD_WRITEDATA?LCD1602

?PR?_LCD_SETCURSOR?LCD1602             -----    -----
  +--> ?PR?_LCD_WRITECOMMAND?LCD1602

?PR?_LCD_WRITEDATA?LCD1602             -----    -----
  +--> ?PR?LCD_DELAY?LCD1602

?PR?_DS1302_GETTIME?DS1302             0008H    0003H
  +--> ?PR?_GETDECFROMBCD?DS1302
  +--> ?PR?_DS1302_READBYTE?DS1302

?PR?_GETDECFROMBCD?DS1302              -----    -----
  +--> ?PR?_DS1302_READBYTE?DS1302

?PR?_LCD_SHOWNUM?LCD1602               0008H    0005H
BL51 BANKED LINKER/LOCATER V6.22.2.0                                                  03/15/2024  15:41:27  PAGE 3


  +--> ?PR?_LCD_SETCURSOR?LCD1602
  +--> ?PR?_LCD_POW?LCD1602
  +--> ?PR?_LCD_WRITEDATA?LCD1602

?PR?_LCD_POW?LCD1602                   000DH    0004H



SYMBOL TABLE OF MODULE:  .\Objects\Project (MAIN)

  VALUE           TYPE          NAME
  ----------------------------------

  -------         MODULE        MAIN
  C:0000H         SYMBOL        _ICE_DUMMY_
  D:0011H         PUBLIC        DS1302_timeArr
  C:0203H         PUBLIC        main
  -------         PROC          MAIN
  C:0203H         LINE#         8
  C:0203H         LINE#         9
  C:0203H         LINE#         10
  C:0206H         LINE#         11
  C:0209H         LINE#         14
  C:0212H         LINE#         16
  C:021FH         LINE#         17
  C:022CH         LINE#         19
  C:022CH         LINE#         20
  C:022CH         LINE#         22
  C:0235H         LINE#         24
  C:0244H         LINE#         25
  C:0253H         LINE#         26
  C:0262H         LINE#         27
  C:0271H         LINE#         28
  C:0280H         LINE#         29
  C:028FH         LINE#         30
  -------         ENDPROC       MAIN
  -------         ENDMOD        MAIN

  -------         MODULE        LCD1602
  C:0000H         SYMBOL        _ICE_DUMMY_
  D:0080H         PUBLIC        P0
  D:00A0H         PUBLIC        P2
  C:05DAH         PUBLIC        _LCD_WriteCommand
  C:04E9H         PUBLIC        _LCD_ShowNum
  C:047BH         PUBLIC        _LCD_ShowBinNum
  C:05C7H         PUBLIC        LCD_Delay
  C:03E6H         PUBLIC        _LCD_ShowHexNum
  C:0544H         PUBLIC        _LCD_WriteData
  B:00A0H.7       PUBLIC        LCD_EN
  C:0589H         PUBLIC        LCD_Init
  C:050DH         PUBLIC        _LCD_ShowString
  C:05E4H         PUBLIC        _LCD_ShowChar
  B:00A0H.6       PUBLIC        LCD_RS
  B:00A0H.5       PUBLIC        LCD_RW
  C:054EH         PUBLIC        _LCD_SetCursor
  C:0431H         PUBLIC        _LCD_ShowSignedNum
  C:04C2H         PUBLIC        _LCD_Pow
BL51 BANKED LINKER/LOCATER V6.22.2.0                                                  03/15/2024  15:41:27  PAGE 4


  -------         PROC          L?0047
  -------         ENDPROC       L?0047
  -------         PROC          LCD_DELAY
  -------         DO            
  D:0007H         SYMBOL        i
  D:0006H         SYMBOL        j
  -------         ENDDO         
  C:05C7H         LINE#         15
  C:05C7H         LINE#         16
  C:05C7H         LINE#         19
  C:05C9H         LINE#         20
  C:05CBH         LINE#         22
  C:05CBH         LINE#         23
  C:05CDH         LINE#         24
  C:05CFH         LINE#         25
  -------         ENDPROC       LCD_DELAY
  -------         PROC          _LCD_WRITECOMMAND
  D:0007H         SYMBOL        Command
  C:05DAH         LINE#         32
  C:05DAH         LINE#         33
  C:05DAH         LINE#         34
  C:05DCH         LINE#         35
  C:05DCH         LINE#         36
  C:05DCH         LINE#         37
  C:05DCH         LINE#         38
  C:05DFH         LINE#         39
  C:05E1H         LINE#         40
  -------         ENDPROC       _LCD_WRITECOMMAND
  -------         PROC          L?0045
  -------         ENDPROC       L?0045
  -------         PROC          _LCD_WRITEDATA
  D:0007H         SYMBOL        Data
  C:0544H         LINE#         48
  C:0544H         LINE#         49
  C:0544H         LINE#         50
  C:0546H         LINE#         51
  C:0546H         LINE#         52
  C:0546H         LINE#         53
  C:0546H         LINE#         54
  C:0549H         LINE#         55
  C:054BH         LINE#         56
  -------         ENDPROC       _LCD_WRITEDATA
  -------         PROC          _LCD_SETCURSOR
  D:0006H         SYMBOL        Line
  D:0005H         SYMBOL        Column
  C:054EH         LINE#         65
  C:0550H         LINE#         66
  C:0550H         LINE#         67
  C:0558H         LINE#         68
  C:0558H         LINE#         69
  C:055AH         LINE#         70
  C:055CH         LINE#         71
  C:0562H         LINE#         72
  C:0562H         LINE#         73
  C:056BH         LINE#         74
  C:056BH         LINE#         75
  -------         ENDPROC       _LCD_SETCURSOR
BL51 BANKED LINKER/LOCATER V6.22.2.0                                                  03/15/2024  15:41:27  PAGE 5


  -------         PROC          LCD_INIT
  C:0589H         LINE#         82
  C:0589H         LINE#         83
  C:0589H         LINE#         84
  C:058EH         LINE#         85
  C:0593H         LINE#         86
  C:0598H         LINE#         87
  -------         ENDPROC       LCD_INIT
  -------         PROC          _LCD_SHOWCHAR
  D:0006H         SYMBOL        Line
  D:0005H         SYMBOL        Column
  D:0004H         SYMBOL        Char
  C:05E4H         LINE#         97
  C:05E6H         LINE#         98
  C:05E6H         LINE#         99
  C:05E9H         LINE#         100
  -------         ENDPROC       _LCD_SHOWCHAR
  -------         PROC          _LCD_SHOWSTRING
  D:0007H         SYMBOL        Line
  D:0005H         SYMBOL        Column
  D:0008H         SYMBOL        String
  -------         DO            
  D:0005H         SYMBOL        i
  -------         ENDDO         
  C:050DH         LINE#         110
  C:0513H         LINE#         111
  C:0513H         LINE#         113
  C:0516H         LINE#         114
  C:0529H         LINE#         115
  C:0529H         LINE#         116
  C:052CH         LINE#         117
  C:052FH         LINE#         118
  -------         ENDPROC       _LCD_SHOWSTRING
  -------         PROC          L?0046
  -------         ENDPROC       L?0046
  -------         PROC          _LCD_POW
  D:000DH         SYMBOL        X
  D:000FH         SYMBOL        Y
  -------         DO            
  D:0003H         SYMBOL        i
  D:0006H         SYMBOL        Result
  -------         ENDDO         
  C:04C2H         LINE#         123
  C:04CAH         LINE#         124
  C:04CAH         LINE#         126
  C:04CEH         LINE#         127
  C:04DEH         LINE#         128
  C:04DEH         LINE#         129
  C:04E5H         LINE#         130
  C:04E8H         LINE#         131
  C:04E8H         LINE#         132
  -------         ENDPROC       _LCD_POW
  -------         PROC          _LCD_SHOWNUM
  D:0007H         SYMBOL        Line
  D:0005H         SYMBOL        Column
  D:000AH         SYMBOL        Number
  D:000CH         SYMBOL        Length
BL51 BANKED LINKER/LOCATER V6.22.2.0                                                  03/15/2024  15:41:27  PAGE 6


  -------         DO            
  D:0002H         SYMBOL        i
  -------         ENDDO         
  C:04E9H         LINE#         142
  C:04EDH         LINE#         143
  C:04EDH         LINE#         145
  C:04F0H         LINE#         146
  C:04FFH         LINE#         147
  C:04FFH         LINE#         148
  C:0509H         LINE#         149
  C:050CH         LINE#         150
  -------         ENDPROC       _LCD_SHOWNUM
  -------         PROC          _LCD_SHOWSIGNEDNUM
  D:0007H         SYMBOL        Line
  D:0005H         SYMBOL        Column
  D:0082H         SYMBOL        Number
  D:001CH         SYMBOL        Length
  -------         DO            
  D:0002H         SYMBOL        i
  D:001DH         SYMBOL        Number1
  -------         ENDDO         
  C:0431H         LINE#         160
  C:0435H         LINE#         161
  C:0435H         LINE#         164
  C:0438H         LINE#         165
  C:0441H         LINE#         166
  C:0441H         LINE#         167
  C:0446H         LINE#         168
  C:044CH         LINE#         169
  C:044EH         LINE#         171
  C:044EH         LINE#         172
  C:0453H         LINE#         173
  C:045EH         LINE#         174
  C:045EH         LINE#         175
  C:046DH         LINE#         176
  C:046DH         LINE#         177
  C:0477H         LINE#         178
  C:047AH         LINE#         179
  -------         ENDPROC       _LCD_SHOWSIGNEDNUM
  -------         PROC          _LCD_SHOWHEXNUM
  D:0007H         SYMBOL        Line
  D:0005H         SYMBOL        Column
  D:0021H         SYMBOL        Number
  D:0023H         SYMBOL        Length
  -------         DO            
  D:0002H         SYMBOL        i
  D:0006H         SYMBOL        SingleNumber
  -------         ENDDO         
  C:03E6H         LINE#         189
  C:03EAH         LINE#         190
  C:03EAH         LINE#         192
  C:03EDH         LINE#         193
  C:03F9H         LINE#         194
  C:03F9H         LINE#         195
  C:0419H         LINE#         196
  C:0423H         LINE#         197
  C:0423H         LINE#         198
BL51 BANKED LINKER/LOCATER V6.22.2.0                                                  03/15/2024  15:41:27  PAGE 7


  C:0425H         LINE#         199
  C:0427H         LINE#         201
  C:0427H         LINE#         202
  C:042DH         LINE#         203
  C:042DH         LINE#         204
  C:0430H         LINE#         205
  -------         ENDPROC       _LCD_SHOWHEXNUM
  -------         PROC          _LCD_SHOWBINNUM
  D:0007H         SYMBOL        Line
  D:0005H         SYMBOL        Column
  D:0026H         SYMBOL        Number
  D:0028H         SYMBOL        Length
  -------         DO            
  D:0002H         SYMBOL        i
  -------         ENDDO         
  C:047BH         LINE#         215
  C:047FH         LINE#         216
  C:047FH         LINE#         218
  C:0482H         LINE#         219
  C:0491H         LINE#         220
  C:0491H         LINE#         221
  C:04B4H         LINE#         222
  C:04B7H         LINE#         223
  -------         ENDPROC       _LCD_SHOWBINNUM
  -------         ENDMOD        LCD1602

  -------         MODULE        DS1302
  C:0000H         SYMBOL        _ICE_DUMMY_
  D:00B0H         PUBLIC        P3
  C:031DH         PUBLIC        _DS1302_writeByte
  C:00E4H         PUBLIC        _DS1302_getTime
  C:0174H         PUBLIC        _DS1302_setTime
  C:05B2H         PUBLIC        _getDecFromBCD
  C:0576H         PUBLIC        _getBCDFromDec
  B:00B0H.5       PUBLIC        DS1302_CE
  B:00B0H.4       PUBLIC        DS1302_IO
  B:00B0H.6       PUBLIC        DS1302_SCLK
  C:0386H         PUBLIC        _DS1302_readByte
  C:05EEH         PUBLIC        DS1302_init
  -------         PROC          DS1302_INIT
  C:05EEH         LINE#         12
  C:05EEH         LINE#         13
  C:05EEH         LINE#         14
  C:05F0H         LINE#         15
  C:05F2H         LINE#         16
  -------         ENDPROC       DS1302_INIT
  -------         PROC          _DS1302_WRITEBYTE
  D:0003H         SYMBOL        command
  D:000BH         SYMBOL        byte
  -------         DO            
  D:0005H         SYMBOL        i
  -------         ENDDO         
  C:031DH         LINE#         23
  C:0323H         LINE#         24
  C:0323H         LINE#         25
  C:0325H         LINE#         26
  C:0327H         LINE#         28
BL51 BANKED LINKER/LOCATER V6.22.2.0                                                  03/15/2024  15:41:27  PAGE 8


  C:0331H         LINE#         29
  C:0331H         LINE#         31
  C:034CH         LINE#         32
  C:034EH         LINE#         33
  C:0350H         LINE#         34
  C:0353H         LINE#         35
  C:035FH         LINE#         36
  C:035FH         LINE#         38
  C:037CH         LINE#         39
  C:037EH         LINE#         40
  C:0380H         LINE#         41
  C:0383H         LINE#         42
  C:0385H         LINE#         43
  -------         ENDPROC       _DS1302_WRITEBYTE
  -------         PROC          _DS1302_READBYTE
  D:0005H         SYMBOL        command
  -------         DO            
  D:0001H         SYMBOL        byte
  D:0003H         SYMBOL        i
  -------         ENDDO         
  C:0386H         LINE#         49
  C:0388H         LINE#         50
  C:0388H         LINE#         51
  C:038AH         LINE#         52
  C:038BH         LINE#         53
  C:038DH         LINE#         55
  C:0390H         LINE#         57
  C:039AH         LINE#         58
  C:039AH         LINE#         60
  C:03B5H         LINE#         61
  C:03B7H         LINE#         62
  C:03B9H         LINE#         63
  C:03BCH         LINE#         64
  C:03C8H         LINE#         65
  C:03C8H         LINE#         66
  C:03CAH         LINE#         67
  C:03CCH         LINE#         69
  C:03CFH         LINE#         70
  C:03CFH         LINE#         72
  C:03DCH         LINE#         73
  C:03DCH         LINE#         74
  C:03DFH         LINE#         75
  C:03E1H         LINE#         76
  C:03E3H         LINE#         78
  C:03E5H         LINE#         79
  -------         ENDPROC       _DS1302_READBYTE
  C:0572H         SYMBOL        L?0030
  -------         PROC          L?0029
  -------         ENDPROC       L?0029
  C:0572H         SYMBOL        L?0030
  -------         PROC          _GETBCDFROMDEC
  D:0007H         SYMBOL        dec
  C:0576H         LINE#         85
  C:0576H         LINE#         86
  C:0576H         LINE#         87
  C:0588H         LINE#         88
  -------         ENDPROC       _GETBCDFROMDEC
BL51 BANKED LINKER/LOCATER V6.22.2.0                                                  03/15/2024  15:41:27  PAGE 9


  -------         PROC          L?0031
  -------         ENDPROC       L?0031
  -------         PROC          _GETDECFROMBCD
  D:0007H         SYMBOL        bcd
  C:05B2H         LINE#         94
  C:05B2H         LINE#         95
  C:05B2H         LINE#         96
  C:05C0H         LINE#         97
  -------         ENDPROC       _GETDECFROMBCD
  -------         PROC          _DS1302_SETTIME
  D:0008H         SYMBOL        DS1302_timeArr
  C:0174H         LINE#         103
  C:017AH         LINE#         104
  C:017AH         LINE#         106
  C:0182H         LINE#         109
  C:0196H         LINE#         110
  C:01A3H         LINE#         111
  C:01B0H         LINE#         112
  C:01C3H         LINE#         113
  C:01D6H         LINE#         114
  C:01E9H         LINE#         115
  C:01FCH         LINE#         117
  -------         ENDPROC       _DS1302_SETTIME
  -------         PROC          _DS1302_GETTIME
  D:0008H         SYMBOL        DS1302_timeArr
  C:00E4H         LINE#         124
  C:00EAH         LINE#         125
  C:00EAH         LINE#         127
  C:00F9H         LINE#         128
  C:010BH         LINE#         129
  C:0120H         LINE#         130
  C:0135H         LINE#         131
  C:014AH         LINE#         132
  C:015FH         LINE#         133
  -------         ENDPROC       _DS1302_GETTIME
  -------         ENDMOD        DS1302

  -------         MODULE        ?C?CLDPTR
  C:0003H         PUBLIC        ?C?CLDPTR
  -------         ENDMOD        ?C?CLDPTR

  -------         MODULE        ?C?CLDOPTR
  C:001CH         PUBLIC        ?C?CLDOPTR
  -------         ENDMOD        ?C?CLDOPTR

  -------         MODULE        ?C?CSTPTR
  C:0049H         PUBLIC        ?C?CSTPTR
  -------         ENDMOD        ?C?CSTPTR

  -------         MODULE        ?C?CSTOPTR
  C:005BH         PUBLIC        ?C?CSTOPTR
  -------         ENDMOD        ?C?CSTOPTR

  -------         MODULE        ?C?IMUL
  C:007DH         PUBLIC        ?C?IMUL
  -------         ENDMOD        ?C?IMUL

BL51 BANKED LINKER/LOCATER V6.22.2.0                                                  03/15/2024  15:41:27  PAGE 10


  -------         MODULE        ?C?UIDIV
  C:008FH         PUBLIC        ?C?UIDIV
  -------         ENDMOD        ?C?UIDIV

Program Size: data=42.0 xdata=0 code=1523
LINK/LOCATE RUN COMPLETE.  0 WARNING(S),  0 ERROR(S)
