:0D031D0041444A20204E5443202047520006
:100102001202FA7BFF7A03791D7D017F01120287B9
:100112007F9C1200978E228F23750C03AB23AA2299
:100122007D017F021202637FDC1200978E228F23F1
:10013200750C03AB23AA227D067F021202637FACF9
:100142001200978E228F23750C03AB23AA227D0BFC
:0E0152007F021202637F647E001202E680B21A
:1002E600EF4E600F7D027CEFDCFEDDFCEF1F70F051
:0302F6001E80ED7A
:0102F90022E2
:06030E00C2A58F80D2A7FA
:080314007F027EEFDEFEDFFC3C
:01031C0022BE
:0A033600C2A612030EC2A7020314B0
:1002AA00CFCDCFCECCCE1200427C007D0A120042C6
:0402BA00ED2430FF00
:0A02BE00D2A612030EC2A702031419
:1002C800AE07EEFB7A0064017004ED148009EB645C
:0E02D800024A7009ED243F4480FF12033622D3
:1002FA007F381203367F0C1203367F061203367FCD
:04030A0001020336B3
:0A034000AC031202C8AF040202BEB3
:060287008B088A09890AB8
:10028D001202C8E4FDAB08AA09A90A8D8275830084
:0C029D00120003FF60061202BE0D80E993
:0102A9002232
:0A023200EF24FFFDEE34FFFC7F0A0D
:08023C008E0D8F0E8C0F8D104A
:100244007F017E00E4FBEBC39510E50F6480F87436
:0E0254008098500AAC0DAD0E1200300B80E801
:010262002279
:040263008A0A8B0B6D
:100267001202C8AA0CEAFF7E00D39400748094801F
:0F027700400D120232AC0AAD0B1202AA1A80E639
:010286002255
:0401AB008B828A8336
:1001AF001202C8C3E58364809480400D7F2B120236
:1001BF00BE85831685821780107F2D1202BEC3E481
:1001CF009582F517E49583F516AA15EAFF7E00D3FD
:1001DF00940074809480400D120232AC16AD171249
:0501EF0002AA1A80E6DF
:0101F40022E8
:040160008A1A8B1B51
:100164001202C8AA1CEAD39400748094804037EA2F
:1001740024FFFDE434FFFC7F107E0012023CAC1A25
:10018400AD1BCFCDCFCECCCE120042EF540FFEC369
:10019400940A74809480EE5004243080022437FF43
:0601A4001202BE1A80BF2A
:0101AA002232
:0401F5008A1F8B20B2
:1001F9001202C8AA21EAFF7E00D394007480948079
:100209004026EF24FFFDEE34FFFC7F0212023CACD6
:100219001FAD20CFCDCFCECCCE120042EF5401245A
:0802290030FF1202BE1A80CD65
:0102310022AA
:02009700AD07B3
:10009900E4FBF508F509C2B6C2B5EBC39408748050
:1000A900948050237E007480A803088006CEA2E7BE
:1000B90013CE13D8F8FFEDF582EF558224FF92B4E1
:1000C900D2B6C2B60B80D3E4FBEBC3941074809410
:1000D90080501ED2B6C2B630B7147E80E4A8030899
:1000E9008005CEC313CE13D8F94209EE42080B801E
:0800F900D8D2B5E508FF7E0036
:0101010022DB
:0300000002032ACE
:0C032A00787FE4F6D8FD75812302010203
:10000300BB010CE58229F582E5833AF583E02250B2
:1000130006E92582F8E622BBFE06E92582F8E222FC
:0D002300E58229F582E5833AF583E4932216
:10003000EF8DF0A4A8F0CF8CF0A428CE8DF0A42EE4
:02004000FE229E
:10004200BC000BBE0029EF8DF084FFADF022E4CCA2
:10005200F875F008EF2FFFEE33FEEC33FCEE9DEC6B
:10006200984005FCEE9DFE0FD5F0E9E4CEFD22EDB1
:10007200F8F5F0EE8420D21CFEADF075F008EF2FFB
:10008200FFED33FD4007985006D5F0F222C398FDEC
:050092000FD5F0EA2289
:00000001FF
