BL51 BANKED LINKER/LOCATER V6.22.2.0                                                    03/06/2024  14:03:08  PAGE 1


BL51 BANKED LINKER/LOCATER V6.22.2.0, INVOKED BY:
D:\KEIL_V5\C51\BIN\BL51.EXE .\Objects\main.obj TO .\Objects\Project PRINT (.\Listings\Project.m51) RAMSIZE (256)


MEMORY MODEL: SMALL


INPUT MODULES INCLUDED:
  .\Objects\main.obj (MAIN)
  D:\KEIL_V5\C51\LIB\C51S.LIB (?C_STARTUP)
  D:\KEIL_V5\C51\LIB\C51S.LIB (?C_INIT)


LINK MAP OF MODULE:  .\Objects\Project (MAIN)


            TYPE    BASE      LENGTH    RELOCATION   SEGMENT NAME
            -----------------------------------------------------

            * * * * * * *   D A T A   M E M O R Y   * * * * * * *
            REG     0000H     0008H     ABSOLUTE     "REG BANK 0"
            DATA    0008H     000AH     UNIT         ?DT?MAIN
            IDATA   0012H     0001H     UNIT         ?STACK

            * * * * * * *   C O D E   M E M O R Y   * * * * * * *
            CODE    0000H     0003H     ABSOLUTE     
            CODE    0003H     008CH     UNIT         ?C_C51STARTUP
            CODE    008FH     005FH     UNIT         ?PR?_NIXIETUBE?MAIN
            CODE    00EEH     000DH     UNIT         ?C_INITSEG
            CODE    00FBH     000AH     UNIT         ?PR?MAIN?MAIN



OVERLAY MAP OF MODULE:   .\Objects\Project (MAIN)


SEGMENT
  +--> CALLED SEGMENT
---------------------
?C_C51STARTUP
  +--> ?PR?MAIN?MAIN
  +--> ?C_INITSEG

?PR?MAIN?MAIN
  +--> ?PR?_NIXIETUBE?MAIN



SYMBOL TABLE OF MODULE:  .\Objects\Project (MAIN)

  VALUE           TYPE          NAME
  ----------------------------------

  -------         MODULE        MAIN
  C:0000H         SYMBOL        _ICE_DUMMY_
  D:0080H         PUBLIC        P0
  B:00A0H.2       PUBLIC        P2_2
  B:00A0H.3       PUBLIC        P2_3
BL51 BANKED LINKER/LOCATER V6.22.2.0                                                  03/06/2024  14:03:08  PAGE 2


  B:00A0H.4       PUBLIC        P2_4
  C:00FBH         PUBLIC        main
  C:008FH         PUBLIC        _nixieTube
  D:0008H         PUBLIC        arr
  -------         PROC          _NIXIETUBE
  D:0007H         SYMBOL        location
  D:0004H         SYMBOL        number
  C:008FH         LINE#         7
  C:008FH         LINE#         8
  C:008FH         LINE#         10
  C:00BCH         LINE#         11
  C:00BCH         LINE#         12
  C:00BCH         LINE#         13
  C:00BCH         LINE#         14
  C:00C0H         LINE#         16
  C:00C0H         LINE#         17
  C:00C4H         LINE#         18
  C:00C4H         LINE#         19
  C:00C8H         LINE#         20
  C:00C8H         LINE#         21
  C:00D0H         LINE#         22
  C:00D0H         LINE#         23
  C:00D8H         LINE#         24
  C:00D8H         LINE#         25
  C:00E0H         LINE#         26
  C:00E0H         LINE#         27
  C:00E6H         LINE#         28
  C:00E6H         LINE#         30
  C:00EDH         LINE#         31
  -------         ENDPROC       _NIXIETUBE
  -------         PROC          MAIN
  C:00FBH         LINE#         33
  C:00FBH         LINE#         34
  C:00FBH         LINE#         35
  C:0103H         LINE#         36
  C:0103H         LINE#         37
  C:0103H         LINE#         39
  -------         ENDPROC       MAIN
  -------         ENDMOD        MAIN

Program Size: data=19.0 xdata=0 code=261
LINK/LOCATE RUN COMPLETE.  0 WARNING(S),  0 ERROR(S)
