BL51 BANKED LINKER/LOCATER V6.22.2.0                                                    03/23/2024  15:33:57  PAGE 1


BL51 BANKED LINKER/LOCATER V6.22.2.0, INVOKED BY:
D:\KEIL_V5\C51\BIN\BL51.EXE .\Objects\main.obj TO .\Objects\Project PRINT (.\Listings\Project.m51) RAMSIZE (256)


MEMORY MODEL: SMALL


INPUT MODULES INCLUDED:
  .\Objects\main.obj (MAIN)
  D:\KEIL_V5\C51\LIB\C51S.LIB (?C_STARTUP)


LINK MAP OF MODULE:  .\Objects\Project (MAIN)


            TYPE    BASE      LENGTH    RELOCATION   SEGMENT NAME
            -----------------------------------------------------

            * * * * * * *   D A T A   M E M O R Y   * * * * * * *
            REG     0000H     0008H     ABSOLUTE     "REG BANK 0"
            IDATA   0008H     0001H     UNIT         ?STACK

            * * * * * * *   C O D E   M E M O R Y   * * * * * * *
            CODE    0000H     0003H     ABSOLUTE     
            CODE    0003H     0042H     UNIT         ?PR?MAIN?MAIN
            CODE    0045H     0022H     UNIT         ?PR?_DELAY?MAIN
            CODE    0067H     000CH     UNIT         ?C_C51STARTUP



OVERLAY MAP OF MODULE:   .\Objects\Project (MAIN)


SEGMENT
  +--> CALLED SEGMENT
---------------------
?C_C51STARTUP
  +--> ?PR?MAIN?MAIN

?PR?MAIN?MAIN
  +--> ?PR?_DELAY?MAIN



SYMBOL TABLE OF MODULE:  .\Objects\Project (MAIN)

  VALUE           TYPE          NAME
  ----------------------------------

  -------         MODULE        MAIN
  C:0000H         SYMBOL        _ICE_DUMMY_
  D:00A0H         PUBLIC        P2
  C:005BH         PUBLIC        _delay
  C:0003H         PUBLIC        main
  B:00A0H.0       PUBLIC        LED
  -------         PROC          L?0020
  -------         ENDPROC       L?0020
  -------         PROC          _DELAY
BL51 BANKED LINKER/LOCATER V6.22.2.0                                                  03/23/2024  15:33:57  PAGE 2


  D:0006H         SYMBOL        t
  C:005BH         LINE#         5
  C:005BH         LINE#         6
  C:005BH         LINE#         7
  C:005FH         LINE#         8
  C:005FH         LINE#         9
  C:0064H         LINE#         10
  C:0066H         LINE#         11
  -------         ENDPROC       _DELAY
  -------         PROC          MAIN
  -------         DO            
  D:0004H         SYMBOL        time
  D:0005H         SYMBOL        i
  -------         ENDDO         
  C:0003H         LINE#         13
  C:0003H         LINE#         14
  C:0003H         LINE#         16
  C:0003H         LINE#         17
  C:0003H         LINE#         19
  C:000FH         LINE#         20
  C:000FH         LINE#         22
  C:001BH         LINE#         23
  C:001BH         LINE#         24
  C:001BH         LINE#         25
  C:001BH         LINE#         26
  C:001BH         LINE#         27
  C:001EH         LINE#         28
  C:0021H         LINE#         29
  C:0024H         LINE#         32
  C:0030H         LINE#         33
  C:0030H         LINE#         35
  C:003CH         LINE#         36
  C:003CH         LINE#         37
  C:003CH         LINE#         38
  C:003CH         LINE#         39
  C:003CH         LINE#         40
  C:003FH         LINE#         41
  C:0042H         LINE#         42
  -------         ENDPROC       MAIN
  -------         ENDMOD        MAIN

Program Size: data=9.0 xdata=0 code=115
LINK/LOCATE RUN COMPLETE.  0 WARNING(S),  0 ERROR(S)
