:10098D0020200020202D20202D20200020203A2066
:05099D00203A202000BB
:0909EB00070B18030F0E143A0566
:100673007B007A00790B1203FAE50BFB7A007519FC
:10068300027D017F011208D6E50CFB7A0075190281
:100693007D047F011208D6E50DFB7A007519027DF2
:1006A300077F011208D6E50EFB7A007519027D015A
:1006B3007F021208D6E50FFB7A007519027D047FCD
:1006C300021208D6E510FB7A007519027D077F0236
:0306D3000208D644
:10000E00AF147E00EF6402700C050AE50A75F00667
:10001E008485F00A22EF64034E6003020131740BF3
:10002E00250AF806D3E50B9463748094804003E4AC
:10003E00F50BD3E50C940C748094804003750C0181
:10004E00AF0CEF6401601EEF64036019EF6405608E
:10005E0014EF6407600FEF6408600AEF640A60052E
:10006E00EF640C7010D3E50D941F748094805003D0
:10007E00020103807DAF0CEF6404600FEF64066035
:10008E000AEF64096005EF640B700DD3E50D941E45
:10009E0074809480405F805AE50C64027057E50BC3
:1000AE0054037017E50B75F06484E5F0600DD3E52D
:1000BE000D941D74809480403C8037E50BFB7C01D1
:1000CE007D90FF7E001203A5ED4C701B7C0C7D8095
:1000DE00AF03FE1203A5ED4C600DD3E50D941D7418
:1000EE008094804010800BD3E50D941C7480948016
:1000FE004003750D01D3E50E941774809480400370
:10010E00E4F50ED3E50F943B748094804003E4F540
:10011E000FD3E510943B748094805003020318E4CF
:10012E00F51022E51464046003020318740B250A0B
:10013E00F816C3748094805003750B63C374809457
:10014E00805003750C0CAF0CEF6401601EEF64035E
:10015E006019EF64056014EF6407600FEF640860C8
:10016E000AEF640A6005EF640C700FC3748094800C
:10017E004003020202750D1F807AAF0CEF6404601B
:10018E000FEF6406600AEF64096005EF640B700CF4
:10019E00C374809480505D750D1E8058E50C64020A
:1001AE007052E50B54037013E50B75F06484E5F0A3
:1001BE006009C374809480503B8026E50BFB7C0164
:1001CE007D90FF7E001203A5ED4C701A7C0C7D8095
:1001DE00AF03FE1203A5ED4C600CC37480948050E7
:1001EE0013750D1D800ED3E50D941C748094804004
:1001FE0003750D01C3748094805003750E17C3747C
:10020E008094805003750F3BC374809480500375A7
:10021E00103BE50A7015E5126401700F7BFF7A0939
:10022E00798D7D017F011208FA800FE50BFB7A00B4
:10023E007519027D017F011208D6E50A6401701559
:10024E00E5126401700F7BFF7A09798D7D047F01C1
:10025E001208FA800FE50CFB7A007519027D047FF7
:10026E00011208D6E50A64027015E5126401700FDA
:10027E007BFF7A09798D7D077F011208FA800FE5E1
:10028E000DFB7A007519027D077F011208D6E50A6B
:10029E0064037015E5126401700F7BFF7A09798D86
:1002AE007D017F021208FA800FE50EFB7A007519A8
:1002BE00027D017F021208D6E50A64047015E5126C
:1002CE006401700F7BFF7A09798D7D047F0212081D
:1002DE00FA800FE50FFB7A007519027D047F02127A
:1002EE0008D6E50A64057013E5126401700D7BFFF4
:1002FE007A09798D7D077F020208FAE510FB7A00F4
:0B030E007519027D077F021208D6223D
:10060E001209A21200031209767BFF7A0979907DF6
:10061E00017F011208FA7BFF7A0979997D017F0229
:10062E001208FA7B007A00790B12048A1206D68F12
:10063E0014EF6401701DAF13FEEF7007751301F513
:10064E000A8010EF64014E700AF513FB7A00790BE5
:10065E0012048AE5131460080470D112067380CC5C
:05066E0012000E80C720
:03000B000208697F
:09086900C0E0C0D075D000C0074A
:10087200758A18758CFC0509E50970020508C39490
:10088200F4E5089401401575080075090075A0018A
:0C089200E51270047F0180027F008F12CD
:07089E00D007D0D0D0E032FA
:0609DC00C2A58F80D2A726
:0809E2007F027EEFDEFEDFFC68
:0109EA0022EA
:0A09F500C2A61209DCC2A70209E243
:10091D00CFCDCFCECCCE1203A57C007D0A1203A580
:04092D00ED2430FF86
:0A093100D2A61209DCC2A70209E2F7
:10093B00AE07EEFB7A0064017004ED148009EB64E2
:0E094B00024A7009ED243F4480FF1209F52294
:1009A2007F381209F57F0C1209F57F061209F57FCF
:0409B200010209F540
:0A09FF00AC0312093BAF04020931FA
:0608FA008B158A16891718
:1009000012093BE4FDAB15AA16A9178D8275830069
:0C091000120332FF60061209310D80E96D
:01091C0022B8
:0A08A500EF24FFFDEE34FFFC7F0A94
:0808AF008E1A8F1B8C1C8D1D9D
:1008B7007F017E00E4FBEBC3951DE51C6480F874A3
:0E08C7008098500AAC1AAD1B1203930B80E808
:0108D5002200
:0408D6008A178B18DA
:1008DA0012093BAA19EAFF7E00D39400748094801F
:0F08EA00400D1208A5AC17AD1812091D1A80E6B3
:0108F90022DC
:0407E2008B828A83F9
:1007E60012093BC3E58364809480400D7F2B120978
:1007F6003185832385822480107F2D120931C3E43D
:100806009582F524E49583F523AA22EAFF7E00D398
:10081600940074809480400D1208A5AC23AD241278
:05082600091D1A80E627
:01082B0022AA
:040797008A278B28FA
:10079B0012093BAA29EAD39400748094804037EA6B
:1007AB0024FFFDE434FFFC7F107E001208AFAC2762
:1007BB00AD28CFCDCFCECCCE1203A5EF540FFEC3B9
:1007CB00940A74809480EE5004243080022437FF06
:0607DB001209311A80BF73
:0107E10022F5
:04082C008A2C8B2D5A
:1008300012093BAA2EEAFF7E00D3940074809480B4
:100840004026EF24FFFDEE34FFFC7F021208AFAC20
:100850002CAD2DCFCDCFCECCCE1203A5EF5401249D
:0808600030FF1209311A80CDAE
:01086800226D
:05000300C2B5C2B622E7
:0605A5008C188D19AB0754
:1005AB00E4FDD2B5EDC394087480948050227E0094
:1005BB007401A805088005C333CE33CED8F9FFEB01
:1005CB00F582EF558224FF92B4D2B6C2B60D80D419
:1005DB00E4FDEDC394087480948050247E00740174
:1005EB00A805088005C333CE33CED8F9FFE5185ED6
:1005FB00FEE5195F4E24FF92B4D2B6C2B60D80D27F
:02060B00C2B576
:01060D0022CA
:02073700AD070C
:10073900E4F9FBD2B5430501EBC3940874809480B6
:1007490050227E007401A803088005C333CE33CE3E
:10075900D8F9FFEDF582EF558224FF92B4C2B6D2E3
:10076900B60B80D4E4FBEBC39408748094805017D3
:10077900D2B6C2B630B40DA8037401088002C333DF
:0D078900D8FC42010B80DFC2B5C2B4AF0145
:010796002240
:0A095900AB15AA16A917120332FF0E
:10096300EF75F00A84C454F0FEEF75F00A84EE25A7
:03097300F0FF2270
:0309CA00120737DA
:0F09CD00EFC4540F75F00AA4FEEF540F2EFF2253
:10048A008B158A168917E4FDFC7F8E1205A5AB151C
:10049A00AA16A917120319FF120963EFFD7F8C121E
:1004AA0005A5900001120959EFFD7F881205A59054
:1004BA000002120959EFFD7F861205A5AB15AA168F
:1004CA00A91790000312095FEFFD7F841205A5ABFF
:1004DA0015AA16A91790000412095FEFFD7F821270
:1004EA0005A5AB15AA16A91790000512095FEFFD1D
:1004FA007F801205A5AB15AA16A917900006120946
:0F050A005FEFFD7F8A1205A57D017F8E0205A59B
:1003FA008B158A1689177F8C1209CAAB15AA16A9FA
:10040A0017EF12035F7F881209CAAB15AA16A9173C
:10041A00900001EF1203717F861207371209CDABE4
:10042A0015AA16A917900002EF1203717F8412070A
:10043A00371209CDAB15AA16A917900003EF1203BC
:10044A00717F821207371209CDAB15AA16A9179028
:10045A000004EF1203717F801207371209CDAB1522
:10046A00AA16A917900005EF1203717F8A1207379F
:10047A001209CDAB15AA16A917900006EF0203714F
:1009B600EF4E600F7D027CEFDCFEDDFCEF1F70F07A
:0309C6001E80EDA3
:0109C900220B
:1006D600E4F51520B1137F14FE1209B630B1FD7F83
:1006E600147E001209B675150120B0147F147E0021
:1006F6001209B630B0FD7F147E001209B6751502D8
:1007060020B2147F147E001209B630B2FD7F147E2B
:10071600001209B675150320B3147F147E00120962
:10072600B630B3FD7F147E001209B6751504AF15F9
:0107360022A0
:100976005389F0438901758A18758CFCC28DD28C17
:07098600D2A9D2AFC2B822D2
:03000000020519DD
:0C051900787FE4F6D8FD75812E020560A5
:10031900BB010689828A83E0225002E722BBFE02E2
:09032900E32289828A83E4932215
:10033200BB010CE58229F582E5833AF583E0225080
:1003420006E92582F8E622BBFE06E92582F8E222CA
:0D035200E58229F582E5833AF583E49322E4
:10035F00BB010689828A83F0225002F722BBFE017D
:02036F00F32277
:10037100F8BB010DE58229F582E5833AF583E8F0C2
:10038100225006E92582C8F622BBFE05E92582C86E
:02039100F22256
:10039300EF8DF0A4A8F0CF8CF0A428CE8DF0A42E7E
:0203A300FE2238
:1003A500BC000BBE0029EF8DF084FFADF022E4CC3C
:1003B500F875F008EF2FFFEE33FEEC33FCEE9DEC05
:1003C500984005FCEE9DFE0FD5F0E9E4CEFD22ED4B
:1003D500F8F5F0EE8420D21CFEADF075F008EF2F95
:1003E500FFED33FD4007985006D5F0F222C398FD86
:0503F5000FD5F0EA2223
:1005250002060EE493A3F8E493A34003F68001F2D8
:1005350008DFF48029E493A3F85407240CC8C333D7
:10054500C4540F4420C8834004F456800146F6DFA6
:10055500E4800B01020408102040809009EBE47E42
:10056500019360BCA3FF543F30E509541FFEE4939B
:10057500A360010ECF54C025E060A840B8E493A362
:10058500FAE493A3F8E493A3C8C582C8CAC583CA8D
:10059500F0A3C8C582C8CAC583CADFE9DEE780BE45
:0109F4000002
:00000001FF
