:0E039000436C6F636B3A0020203A20203A0045
:09039E00011A37011B3B011C1779
:1001810012036D1203567BFF7A0379907D017F0183
:100191001202F77BFF7A0379977D017F021202F742
:1001A100E51CFB7A00750C027D017F021202D3E58A
:1001B1001BFB7A00750C027D047F021202D3E51A43
:0F01C100FB7A00750C027D077F021202D380D1FA
:03000B0002012EC1
:04012E00C0E0C0D09D
:10013200758A18758CFC0519E51970020518C394A7
:10014200E8E51894034033751800751900051AE59F
:100152001A943C748094804021751A00051BE51B9B
:10016200943C748094804012751B00051CE51C941D
:0A01720018748094804003751C008F
:05017C00D0D0D0E032FC
:06038100C2A58F80D2A787
:080387007F027EEFDEFEDFFCC9
:01038F00224B
:0A03A800C2A6120381C2A702038758
:10031A00CFCDCFCECCCE12004D7C007D0A12004D3F
:04032A00ED2430FF8F
:0A032E00D2A6120381C2A7020387C2
:10033800AE07EEFB7A0064017004ED148009EB64EB
:0E034800024A7009ED243F4480FF1203A822F0
:10036D007F381203A87F0C1203A87F061203A87F03
:04037D00010203A8CE
:0A03B200AC03120338AF0402032E5F
:0602F7008B088A09890A48
:1002FD00120338E4FDAB08AA09A90A8D82758300A3
:0C030D0012000EFF600612032E0D80E9A6
:0103190022C1
:0A02A200EF24FFFDEE34FFFC7F0A9D
:0802AC008E0D8F0E8C0F8D10DA
:1002B4007F017E00E4FBEBC39510E50F6480F874C6
:0E02C4008098500AAC0DAD0E12003B0B80E886
:0102D2002209
:0402D3008A0A8B0BFD
:1002D700120338AA0CEAFF7E00D39400748094803E
:0F02E700400D1202A2AC0AAD0B12031A1A80E6E8
:0102F60022E5
:04021B008B828A83C5
:10021F00120338C3E58364809480400D7F2B120353
:10022F002E85831685821780107F2D12032EC3E42F
:10023F009582F517E49583F516AA15EAFF7E00D38C
:10024F00940074809480400D1202A2AC16AD171268
:05025F00031A1A80E6FD
:010264002277
:0401D0008A1F8B20D7
:1001D400120338AA21EAD39400748094804037EA49
:1001E40024FFFDE434FFFC7F107E001202ACAC1F40
:1001F400AD20CFCDCFCECCCE12004DEF540FFEC3E9
:10020400940A74809480EE5004243080022437FFD2
:0602140012032E1A80BF48
:01021A0022C1
:040265008A248B2537
:10026900120338AA26EAFF7E00D394007480948092
:100279004026EF24FFFDEE34FFFC7F021202ACACF6
:1002890024AD25CFCDCFCECCCE12004DEF540124D5
:0802990030FF12032E1A80CD84
:0102A100223A
:100356005389F0438901758A18758CFCC28DD28C3D
:07036600D2A9D2AFC2B822F8
:030000000200A259
:0C00A200787FE4F6D8FD7581260200E9A5
:10000E00BB010CE58229F582E5833AF583E02250A7
:10001E0006E92582F8E622BBFE06E92582F8E222F1
:0D002E00E58229F582E5833AF583E493220B
:10003B00EF8DF0A4A8F0CF8CF0A428CE8DF0A42ED9
:02004B00FE2293
:10004D00BC000BBE0029EF8DF084FFADF022E4CC97
:10005D00F875F008EF2FFFEE33FEEC33FCEE9DEC60
:10006D00984005FCEE9DFE0FD5F0E9E4CEFD22EDA6
:10007D00F8F5F0EE8420D21CFEADF075F008EF2FF0
:10008D00FFED33FD4007985006D5F0F222C398FDE1
:05009D000FD5F0EA227E
:1000AE00020181E493A3F8E493A34003F68001F2E6
:1000BE0008DFF48029E493A3F85407240CC8C33353
:1000CE00C4540F4420C8834004F456800146F6DF22
:1000DE00E4800B010204081020408090039EE47E11
:1000EE00019360BCA3FF543F30E509541FFEE49317
:1000FE00A360010ECF54C025E060A840B8E493A3DE
:10010E00FAE493A3F8E493A3C8C582C8CAC583CA08
:10011E00F0A3C8C582C8CAC583CADFE9DEE780BEC0
:0103A7000055
:00000001FF
