BL51 BANKED LINKER/LOCATER V6.22.2.0                                                    03/16/2024  16:04:33  PAGE 1


BL51 BANKED LINKER/LOCATER V6.22.2.0, INVOKED BY:
D:\KEIL_V5\C51\BIN\BL51.EXE .\Objects\main.obj, .\Objects\nixie.obj, .\Objects\key.obj, .\Objects\buzzer.obj, .\Objects\
>> delay.obj TO .\Objects\Project PRINT (.\Listings\Project.m51) RAMSIZE (256)


MEMORY MODEL: SMALL


INPUT MODULES INCLUDED:
  .\Objects\main.obj (MAIN)
  .\Objects\nixie.obj (NIXIE)
  .\Objects\key.obj (KEY)
  .\Objects\buzzer.obj (BUZZER)
  .\Objects\delay.obj (DELAY)
  D:\KEIL_V5\C51\LIB\C51S.LIB (?C_STARTUP)
  D:\KEIL_V5\C51\LIB\C51S.LIB (?C_INIT)


LINK MAP OF MODULE:  .\Objects\Project (MAIN)


            TYPE    BASE      LENGTH    RELOCATION   SEGMENT NAME
            -----------------------------------------------------

            * * * * * * *   D A T A   M E M O R Y   * * * * * * *
            REG     0000H     0008H     ABSOLUTE     "REG BANK 0"
            DATA    0008H     000AH     UNIT         ?DT?NIXIE
            DATA    0012H     0001H     UNIT         ?DT?MAIN
            DATA    0013H     0001H     UNIT         _DATA_GROUP_
            IDATA   0014H     0001H     UNIT         ?STACK

            * * * * * * *   C O D E   M E M O R Y   * * * * * * *
            CODE    0000H     0003H     ABSOLUTE     
            CODE    0003H     008CH     UNIT         ?C_C51STARTUP
            CODE    008FH     0061H     UNIT         ?PR?GETKEYNUMBER?KEY
            CODE    00F0H     005FH     UNIT         ?PR?_NIXIETUBE?NIXIE
            CODE    014FH     0024H     UNIT         ?PR?MAIN?MAIN
            CODE    0173H     0022H     UNIT         ?PR?_BUZZER_SOUND?BUZZER
            CODE    0195H     0014H     UNIT         ?PR?_DELAY?DELAY
            CODE    01A9H     000DH     UNIT         ?C_INITSEG
            CODE    01B6H     0006H     UNIT         ?PR?BUZZER_DELAY500US?BUZZER



OVERLAY MAP OF MODULE:   .\Objects\Project (MAIN)


SEGMENT                                DATA_GROUP 
  +--> CALLED SEGMENT                START    LENGTH
----------------------------------------------------
?C_C51STARTUP                        -----    -----
  +--> ?PR?MAIN?MAIN
  +--> ?C_INITSEG

?PR?MAIN?MAIN                        -----    -----
  +--> ?PR?_NIXIETUBE?NIXIE
  +--> ?PR?GETKEYNUMBER?KEY
  +--> ?PR?_BUZZER_SOUND?BUZZER
BL51 BANKED LINKER/LOCATER V6.22.2.0                                                  03/16/2024  16:04:33  PAGE 2



?PR?GETKEYNUMBER?KEY                 0013H    0001H
  +--> ?PR?_DELAY?DELAY

?PR?_BUZZER_SOUND?BUZZER             -----    -----
  +--> ?PR?BUZZER_DELAY500US?BUZZER



SYMBOL TABLE OF MODULE:  .\Objects\Project (MAIN)

  VALUE           TYPE          NAME
  ----------------------------------

  -------         MODULE        MAIN
  C:0000H         SYMBOL        _ICE_DUMMY_
  C:014FH         PUBLIC        main
  D:0012H         PUBLIC        keyNumber
  -------         PROC          MAIN
  C:014FH         LINE#         8
  C:014FH         LINE#         9
  C:014FH         LINE#         10
  C:0157H         LINE#         11
  C:0157H         LINE#         12
  C:0157H         LINE#         13
  C:015CH         LINE#         14
  C:0160H         LINE#         15
  C:0160H         LINE#         16
  C:0167H         LINE#         17
  C:0171H         LINE#         18
  C:0171H         LINE#         19
  -------         ENDPROC       MAIN
  -------         ENDMOD        MAIN

  -------         MODULE        NIXIE
  C:0000H         SYMBOL        _ICE_DUMMY_
  D:0080H         PUBLIC        P0
  B:00A0H.2       PUBLIC        P2_2
  B:00A0H.3       PUBLIC        P2_3
  B:00A0H.4       PUBLIC        P2_4
  C:00F0H         PUBLIC        _nixieTube
  D:0008H         PUBLIC        arr
  -------         PROC          _NIXIETUBE
  D:0007H         SYMBOL        location
  D:0004H         SYMBOL        number
  C:00F0H         LINE#         8
  C:00F0H         LINE#         9
  C:00F0H         LINE#         11
  C:011DH         LINE#         12
  C:011DH         LINE#         13
  C:011DH         LINE#         14
  C:011DH         LINE#         15
  C:0121H         LINE#         17
  C:0121H         LINE#         18
  C:0125H         LINE#         19
  C:0125H         LINE#         20
  C:0129H         LINE#         21
BL51 BANKED LINKER/LOCATER V6.22.2.0                                                  03/16/2024  16:04:33  PAGE 3


  C:0129H         LINE#         22
  C:0131H         LINE#         23
  C:0131H         LINE#         24
  C:0139H         LINE#         25
  C:0139H         LINE#         26
  C:0141H         LINE#         27
  C:0141H         LINE#         28
  C:0147H         LINE#         29
  C:0147H         LINE#         31
  C:014EH         LINE#         35
  -------         ENDPROC       _NIXIETUBE
  -------         ENDMOD        NIXIE

  -------         MODULE        KEY
  C:0000H         SYMBOL        _ICE_DUMMY_
  B:00B0H.0       PUBLIC        P3_0
  B:00B0H.1       PUBLIC        P3_1
  B:00B0H.2       PUBLIC        P3_2
  B:00B0H.3       PUBLIC        P3_3
  C:008FH         PUBLIC        getKeyNumber
  -------         PROC          GETKEYNUMBER
  -------         DO            
  D:0013H         SYMBOL        keyNumber
  -------         ENDDO         
  C:008FH         LINE#         8
  C:008FH         LINE#         9
  C:008FH         LINE#         10
  C:0092H         LINE#         12
  C:00A8H         LINE#         13
  C:00BFH         LINE#         14
  C:00D6H         LINE#         15
  C:00EDH         LINE#         17
  C:00EFH         LINE#         18
  -------         ENDPROC       GETKEYNUMBER
  -------         ENDMOD        KEY

  -------         MODULE        BUZZER
  C:0000H         SYMBOL        _ICE_DUMMY_
  D:00A0H         PUBLIC        P2
  B:00A0H.5       PUBLIC        Buzzer
  C:0173H         PUBLIC        _Buzzer_sound
  C:01B6H         PUBLIC        Buzzer_delay500us
  -------         PROC          BUZZER_DELAY500US
  -------         DO            
  D:0007H         SYMBOL        i
  -------         ENDDO         
  C:01B6H         LINE#         11
  C:01B6H         LINE#         12
  C:01B6H         LINE#         15
  C:01B7H         LINE#         16
  C:01B9H         LINE#         17
  C:01BBH         LINE#         18
  -------         ENDPROC       BUZZER_DELAY500US
  -------         PROC          _BUZZER_SOUND
  D:0004H         SYMBOL        ms
  -------         DO            
  D:0002H         SYMBOL        i
BL51 BANKED LINKER/LOCATER V6.22.2.0                                                  03/16/2024  16:04:33  PAGE 4


  -------         ENDDO         
  C:0173H         LINE#         20
  C:0177H         LINE#         21
  C:0177H         LINE#         22
  C:017AH         LINE#         23
  C:0188H         LINE#         24
  C:0188H         LINE#         26
  C:018AH         LINE#         27
  C:018DH         LINE#         28
  C:0194H         LINE#         29
  -------         ENDPROC       _BUZZER_SOUND
  -------         ENDMOD        BUZZER

  -------         MODULE        DELAY
  C:0000H         SYMBOL        _ICE_DUMMY_
  C:0195H         PUBLIC        _delay
  -------         PROC          _DELAY
  D:0006H         SYMBOL        xms
  -------         DO            
  D:0005H         SYMBOL        i
  D:0004H         SYMBOL        j
  -------         ENDDO         
  C:0195H         LINE#         1
  C:0195H         LINE#         2
  C:0195H         LINE#         5
  C:0199H         LINE#         6
  C:0199H         LINE#         7
  C:019BH         LINE#         8
  C:019DH         LINE#         10
  C:019DH         LINE#         11
  C:019FH         LINE#         12
  C:01A1H         LINE#         13
  C:01A6H         LINE#         14
  C:01A8H         LINE#         15
  -------         ENDPROC       _DELAY
  -------         ENDMOD        DELAY

Program Size: data=21.0 xdata=0 code=444
LINK/LOCATE RUN COMPLETE.  0 WARNING(S),  0 ERROR(S)
