:10059D0020202D20202D20200020203A20203A2020
:0205AD0020002C
:0905D000071118030F0E143A057F
:100203001205891205EE7B007A0079111201747BC5
:10021300FF7A05799D7D017F0112050D7BFF7A052C
:1002230079A67D017F0212050D7B007A00791112F8
:1002330000E4E511FB7A00750C027D017F011204D5
:10024300E9E512FB7A00750C027D047F011204E9D3
:10025300E513FB7A00750C027D077F011204E9E5C3
:1002630014FB7A00750C027D017F021204E9E51587
:10027300FB7A00750C027D047F021204E9E516FB8C
:0E0283007A00750C027D077F021204E9809B51
:0605C100C2A58F80D2A745
:0805C7007F027EEFDEFEDFFC87
:0105CF002209
:0A05DA00C2A61205C1C2A70205C7A0
:10053000CFCDCFCECCCE12008F7C007D0A12008FA3
:04054000ED2430FF77
:0A054400D2A61205C1C2A70205C726
:10054E00AE07EEFB7A0064017004ED148009EB64D3
:0E055E00024A7009ED243F4480FF1205DA22A4
:100589007F381205DA7F0C1205DA7F061205DA7F49
:04059900010205DA7C
:0A05E400AC0312054EAF04020544FB
:06050D008B088A09890A2F
:1005130012054EE4FDAB08AA09A90A8D8275830072
:0C05230012001CFF60061205440D80E968
:01052F0022A9
:0A04B800EF24FFFDEE34FFFC7F0A85
:0804C2008E0D8F0E8C0F8D10C2
:1004CA007F017E00E4FBEBC39510E50F6480F874AE
:0E04DA008098500AAC0DAD0E12007D0B80E82C
:0104E80022F1
:0404E9008A0A8B0BE5
:1004ED0012054EAA0CEAFF7E00D39400748094800E
:0F04FD00400D1204B8AC0AAD0B1205301A80E6A0
:01050C0022CC
:040431008B828A83AD
:1004350012054EC3E58364809480400D7F2B120521
:100445004485831D85821E80107F2D120544C3E4DB
:100455009582F51EE49583F51DAA1CEAFF7E00D35F
:10046500940074809480400D1204B8AC1DAD1E122A
:0504750005301A80E6CD
:01047A00225F
:0403E6008A218B22BB
:1003EA0012054EAA23EAD39400748094804037EA17
:1003FA0024FFFDE434FFFC7F107E001204C2AC210E
:10040A00AD22CFCDCFCECCCE12008FEF540FFEC38C
:10041A00940A74809480EE5004243080022437FFBA
:06042A001205441A80BF18
:0104300022A9
:04047B008A268B271B
:10047F0012054EAA28EAFF7E00D394007480948060
:10048F004026EF24FFFDEE34FFFC7F021204C2ACC6
:10049F0026AD27CFCDCFCECCCE12008FEF54012477
:0804AF0030FF1205441A80CD54
:0104B7002222
:0505EE00C2B5C2B622F7
:06031D008C0B8D0CAB07F8
:10032300E4FDD2B5EDC394087480948050227E001E
:100333007401A805088005C333CE33CED8F9FFEB8B
:10034300F582EF558224FF92B4D2B6C2B60D80D4A3
:10035300E4FDEDC394087480948050247E007401FE
:10036300A805088005C333CE33CED8F9FFE50B5E6D
:10037300FEE50C5F4E24FF92B4D2B6C2B60D80D216
:02038300C2B501
:010385002255
:02038600AD07C1
:10038800E4F9FBD2B5430501EBC39408748094806B
:1003980050227E007401A803088005C333CE33CEF3
:1003A800D8F9FFEDF582EF558224FF92B4C2B6D298
:1003B800B60B80D4E4FBEBC3940874809480501788
:1003C800D2B6C2B630B40DA8037401088002C33394
:0D03D800D8FC42010B80DFC2B5C2B4AF01FA
:0103E50022F5
:0A056C00AB08AA09A90A12001CFF3F
:10057600EF75F00A84C454F0FEEF75F00A84EE2598
:03058600F0FF2261
:0305AF00120386AE
:0F05B200EFC4540F75F00AA4FEEF540F2EFF2272
:100174008B088A09890AE4FDFC7F8E12031DAB08F3
:10018400AA09A90A120003FF120576EFFD7F8C125B
:10019400031D90000112056CEFFD7F8812031D9072
:1001A400000212056CEFFD7F8612031DAB08AA093D
:1001B400A90A900003120572EFFD7F8412031DABA0
:1001C40008AA09A90A900004120572EFFD7F8212A1
:1001D400031DAB08AA09A90A900005120572EFFDD8
:1001E4007F8012031DAB08AA09A90A900006120514
:0F01F40072EFFD7F8A12031D7D017F8E02031DB6
:1000E4008B088A09890A7F8C1205AFAB08AA09A973
:1000F4000AEF1200497F881205AFAB08AA09A90AC2
:10010400900001EF12005B7F861203861205B2ABEA
:1001140008AA09A90A900002EF12005B7F84120367
:10012400861205B2AB08AA09A90A900003EF1200CF
:100134005B7F821203861205B2AB08AA09A90A9052
:100144000004EF12005B7F801203861205B2AB0835
:10015400AA09A90A900005EF12005B7F8A120386A0
:100164001205B2AB08AA09A90A900006EF02005BC7
:0300000002029168
:0C029100787FE4F6D8FD7581280202D8C1
:10000300BB010689828A83E0225002E722BBFE02FB
:09001300E32289828A83E493222E
:10001C00BB010CE58229F582E5833AF583E0225099
:10002C0006E92582F8E622BBFE06E92582F8E222E3
:0D003C00E58229F582E5833AF583E49322FD
:10004900BB010689828A83F0225002F722BBFE0196
:02005900F32290
:10005B00F8BB010DE58229F582E5833AF583E8F0DB
:10006B00225006E92582C8F622BBFE05E92582C887
:02007B00F2226F
:10007D00EF8DF0A4A8F0CF8CF0A428CE8DF0A42E97
:02008D00FE2251
:10008F00BC000BBE0029EF8DF084FFADF022E4CC55
:10009F00F875F008EF2FFFEE33FEEC33FCEE9DEC1E
:1000AF00984005FCEE9DFE0FD5F0E9E4CEFD22ED64
:1000BF00F8F5F0EE8420D21CFEADF075F008EF2FAE
:1000CF00FFED33FD4007985006D5F0F222C398FD9F
:0500DF000FD5F0EA223C
:10029D00020203E493A3F8E493A34003F68001F272
:1002AD0008DFF48029E493A3F85407240CC8C33362
:1002BD00C4540F4420C8834004F456800146F6DF31
:1002CD00E4800B01020408102040809005D0E47EEC
:1002DD00019360BCA3FF543F30E509541FFEE49326
:1002ED00A360010ECF54C025E060A840B8E493A3ED
:1002FD00FAE493A3F8E493A3C8C582C8CAC583CA18
:10030D00F0A3C8C582C8CAC583CADFE9DEE780BECF
:0105D9000021
:00000001FF
