BL51 BANKED LINKER/LOCATER V6.22.2.0                                                    03/09/2024  13:15:51  PAGE 1


BL51 BANKED LINKER/LOCATER V6.22.2.0, INVOKED BY:
D:\KEIL_V5\C51\BIN\BL51.EXE .\Objects\main.obj, .\Objects\delay.obj, .\Objects\LCD1602.obj, .\Objects\MatrixKey.obj TO .
>> \Objects\Project PRINT (.\Listings\Project.m51) RAMSIZE (256) DISABLEWARNING (16)


MEMORY MODEL: SMALL


INPUT MODULES INCLUDED:
  .\Objects\main.obj (MAIN)
  .\Objects\delay.obj (DELAY)
  .\Objects\LCD1602.obj (LCD1602)
  .\Objects\MatrixKey.obj (MATRIXKEY)
  D:\KEIL_V5\C51\LIB\C51S.LIB (?C_STARTUP)
  D:\KEIL_V5\C51\LIB\C51S.LIB (?C?CLDOPTR)
  D:\KEIL_V5\C51\LIB\C51S.LIB (?C?IMUL)
  D:\KEIL_V5\C51\LIB\C51S.LIB (?C?UIDIV)
  D:\KEIL_V5\C51\LIB\C51S.LIB (?C_INIT)


LINK MAP OF MODULE:  .\Objects\Project (MAIN)


            TYPE    BASE      LENGTH    RELOCATION   SEGMENT NAME
            -----------------------------------------------------

            * * * * * * *   D A T A   M E M O R Y   * * * * * * *
            REG     0000H     0008H     ABSOLUTE     "REG BANK 0"
            DATA    0008H     0009H     UNIT         _DATA_GROUP_
            DATA    0011H     0007H     UNIT         ?DT?_LCD_SHOWSIGNEDNUM?LCD1602
            DATA    0018H     0005H     UNIT         ?DT?_LCD_SHOWHEXNUM?LCD1602
            DATA    001DH     0005H     UNIT         ?DT?_LCD_SHOWBINNUM?LCD1602
            DATA    0022H     0004H     UNIT         ?DT?MAIN
            IDATA   0026H     0001H     UNIT         ?STACK

            * * * * * * *   C O D E   M E M O R Y   * * * * * * *
            CODE    0000H     0003H     ABSOLUTE     
            CODE    0003H     0189H     UNIT         ?PR?GETMATRIXKEY?MATRIXKEY
            CODE    018CH     00B7H     UNIT         ?PR?MAIN?MAIN
            CODE    0243H     0094H     UNIT         ?C?LIB_CODE
            CODE    02D7H     008CH     UNIT         ?C_C51STARTUP
            CODE    0363H     004BH     UNIT         ?PR?_LCD_SHOWHEXNUM?LCD1602
            CODE    03AEH     004AH     UNIT         ?PR?_LCD_SHOWSIGNEDNUM?LCD1602
            CODE    03F8H     003DH     UNIT         ?PR?_LCD_SHOWBINNUM?LCD1602
            CODE    0435H     0031H     UNIT         ?PR?_LCD_POW?LCD1602
            CODE    0466H     0024H     UNIT         ?PR?_LCD_SHOWNUM?LCD1602
            CODE    048AH     0023H     UNIT         ?PR?_LCD_SHOWSTRING?LCD1602
            CODE    04ADH     001EH     UNIT         ?PR?_LCD_WRITEDATA?LCD1602
            CODE    04CBH     001EH     UNIT         ?PR?_LCD_SETCURSOR?LCD1602
            CODE    04E9H     0014H     UNIT         ?PR?_DELAY?DELAY
            CODE    04FDH     0014H     UNIT         ?PR?LCD_INIT?LCD1602
            CODE    0511H     0012H     UNIT         ?CO?MAIN
            CODE    0523H     000FH     UNIT         ?PR?LCD_DELAY?LCD1602
            CODE    0532H     000BH     UNIT         ?C_INITSEG
            CODE    053DH     000AH     UNIT         ?PR?_LCD_WRITECOMMAND?LCD1602
            CODE    0547H     000AH     UNIT         ?PR?_LCD_SHOWCHAR?LCD1602


BL51 BANKED LINKER/LOCATER V6.22.2.0                                                  03/09/2024  13:15:51  PAGE 2



OVERLAY MAP OF MODULE:   .\Objects\Project (MAIN)


SEGMENT                                  DATA_GROUP 
  +--> CALLED SEGMENT                  START    LENGTH
------------------------------------------------------
?C_C51STARTUP                          -----    -----
  +--> ?PR?MAIN?MAIN
  +--> ?C_INITSEG

?PR?MAIN?MAIN                          -----    -----
  +--> ?PR?LCD_INIT?LCD1602
  +--> ?CO?MAIN
  +--> ?PR?_LCD_SHOWSTRING?LCD1602
  +--> ?PR?GETMATRIXKEY?MATRIXKEY
  +--> ?PR?_LCD_SHOWNUM?LCD1602

?PR?LCD_INIT?LCD1602                   -----    -----
  +--> ?PR?_LCD_WRITECOMMAND?LCD1602

?PR?_LCD_WRITECOMMAND?LCD1602          -----    -----
  +--> ?PR?LCD_DELAY?LCD1602

?PR?_LCD_SHOWSTRING?LCD1602            0008H    0003H
  +--> ?PR?_LCD_SETCURSOR?LCD1602
  +--> ?PR?_LCD_WRITEDATA?LCD1602

?PR?_LCD_SETCURSOR?LCD1602             -----    -----
  +--> ?PR?_LCD_WRITECOMMAND?LCD1602

?PR?_LCD_WRITEDATA?LCD1602             -----    -----
  +--> ?PR?LCD_DELAY?LCD1602

?PR?GETMATRIXKEY?MATRIXKEY             0008H    0001H
  +--> ?PR?_DELAY?DELAY

?PR?_LCD_SHOWNUM?LCD1602               0008H    0005H
  +--> ?PR?_LCD_SETCURSOR?LCD1602
  +--> ?PR?_LCD_POW?LCD1602
  +--> ?PR?_LCD_WRITEDATA?LCD1602

?PR?_LCD_POW?LCD1602                   000DH    0004H



SYMBOL TABLE OF MODULE:  .\Objects\Project (MAIN)

  VALUE           TYPE          NAME
  ----------------------------------

  -------         MODULE        MAIN
  C:0000H         SYMBOL        _ICE_DUMMY_
  C:018CH         PUBLIC        main
  D:0022H         PUBLIC        count
  D:0023H         PUBLIC        keyNumber
  D:0024H         PUBLIC        password
BL51 BANKED LINKER/LOCATER V6.22.2.0                                                  03/09/2024  13:15:51  PAGE 3


  -------         PROC          MAIN
  C:018CH         LINE#         9
  C:018CH         LINE#         10
  C:018CH         LINE#         11
  C:018FH         LINE#         12
  C:019CH         LINE#         14
  C:019CH         LINE#         15
  C:019CH         LINE#         16
  C:01A1H         LINE#         17
  C:01A5H         LINE#         18
  C:01A5H         LINE#         20
  C:01AEH         LINE#         21
  C:01AEH         LINE#         23
  C:01B9H         LINE#         24
  C:01B9H         LINE#         25
  C:01C8H         LINE#         26
  C:01D9H         LINE#         27
  C:01DBH         LINE#         28
  C:01DBH         LINE#         29
  C:01E9H         LINE#         30
  C:01E9H         LINE#         32
  C:01EFH         LINE#         33
  C:01EFH         LINE#         34
  C:01F9H         LINE#         35
  C:01F9H         LINE#         36
  C:01FFH         LINE#         37
  C:0201H         LINE#         39
  C:0201H         LINE#         40
  C:020EH         LINE#         41
  C:020EH         LINE#         42
  C:0213H         LINE#         43
  C:0215H         LINE#         44
  C:0223H         LINE#         45
  C:0223H         LINE#         47
  C:022CH         LINE#         48
  C:022CH         LINE#         49
  C:0230H         LINE#         50
  C:0232H         LINE#         51
  C:0240H         LINE#         52
  C:0240H         LINE#         53
  C:0240H         LINE#         55
  -------         ENDPROC       MAIN
  -------         ENDMOD        MAIN

  -------         MODULE        DELAY
  C:0000H         SYMBOL        _ICE_DUMMY_
  C:04E9H         PUBLIC        _delay
  -------         PROC          _DELAY
  D:0006H         SYMBOL        xms
  -------         DO            
  D:0005H         SYMBOL        i
  D:0004H         SYMBOL        j
  -------         ENDDO         
  C:04E9H         LINE#         1
  C:04E9H         LINE#         2
  C:04E9H         LINE#         5
  C:04EDH         LINE#         6
BL51 BANKED LINKER/LOCATER V6.22.2.0                                                  03/09/2024  13:15:51  PAGE 4


  C:04EDH         LINE#         7
  C:04EFH         LINE#         8
  C:04F1H         LINE#         10
  C:04F1H         LINE#         11
  C:04F3H         LINE#         12
  C:04F5H         LINE#         13
  C:04FAH         LINE#         14
  C:04FCH         LINE#         15
  -------         ENDPROC       _DELAY
  -------         ENDMOD        DELAY

  -------         MODULE        LCD1602
  C:0000H         SYMBOL        _ICE_DUMMY_
  D:0080H         PUBLIC        P0
  D:00A0H         PUBLIC        P2
  C:053DH         PUBLIC        _LCD_WriteCommand
  C:0466H         PUBLIC        _LCD_ShowNum
  C:03F8H         PUBLIC        _LCD_ShowBinNum
  C:0529H         PUBLIC        LCD_Delay
  C:0363H         PUBLIC        _LCD_ShowHexNum
  C:04C1H         PUBLIC        _LCD_WriteData
  B:00A0H.7       PUBLIC        LCD_EN
  C:04FDH         PUBLIC        LCD_Init
  C:048AH         PUBLIC        _LCD_ShowString
  C:0547H         PUBLIC        _LCD_ShowChar
  B:00A0H.6       PUBLIC        LCD_RS
  B:00A0H.5       PUBLIC        LCD_RW
  C:04CBH         PUBLIC        _LCD_SetCursor
  C:03AEH         PUBLIC        _LCD_ShowSignedNum
  C:043FH         PUBLIC        _LCD_Pow
  -------         PROC          L?0047
  -------         ENDPROC       L?0047
  -------         PROC          LCD_DELAY
  -------         DO            
  D:0007H         SYMBOL        i
  D:0006H         SYMBOL        j
  -------         ENDDO         
  C:0529H         LINE#         15
  C:0529H         LINE#         16
  C:0529H         LINE#         19
  C:052BH         LINE#         20
  C:052DH         LINE#         22
  C:052DH         LINE#         23
  C:052FH         LINE#         24
  C:0531H         LINE#         25
  -------         ENDPROC       LCD_DELAY
  -------         PROC          _LCD_WRITECOMMAND
  D:0007H         SYMBOL        Command
  C:053DH         LINE#         32
  C:053DH         LINE#         33
  C:053DH         LINE#         34
  C:053FH         LINE#         35
  C:053FH         LINE#         36
  C:053FH         LINE#         37
  C:053FH         LINE#         38
  C:0542H         LINE#         39
  C:0544H         LINE#         40
BL51 BANKED LINKER/LOCATER V6.22.2.0                                                  03/09/2024  13:15:51  PAGE 5


  -------         ENDPROC       _LCD_WRITECOMMAND
  -------         PROC          L?0045
  -------         ENDPROC       L?0045
  -------         PROC          _LCD_WRITEDATA
  D:0007H         SYMBOL        Data
  C:04C1H         LINE#         48
  C:04C1H         LINE#         49
  C:04C1H         LINE#         50
  C:04C3H         LINE#         51
  C:04C3H         LINE#         52
  C:04C3H         LINE#         53
  C:04C3H         LINE#         54
  C:04C6H         LINE#         55
  C:04C8H         LINE#         56
  -------         ENDPROC       _LCD_WRITEDATA
  -------         PROC          _LCD_SETCURSOR
  D:0006H         SYMBOL        Line
  D:0005H         SYMBOL        Column
  C:04CBH         LINE#         65
  C:04CDH         LINE#         66
  C:04CDH         LINE#         67
  C:04D5H         LINE#         68
  C:04D5H         LINE#         69
  C:04D7H         LINE#         70
  C:04D9H         LINE#         71
  C:04DFH         LINE#         72
  C:04DFH         LINE#         73
  C:04E8H         LINE#         74
  C:04E8H         LINE#         75
  -------         ENDPROC       _LCD_SETCURSOR
  -------         PROC          LCD_INIT
  C:04FDH         LINE#         82
  C:04FDH         LINE#         83
  C:04FDH         LINE#         84
  C:0502H         LINE#         85
  C:0507H         LINE#         86
  C:050CH         LINE#         87
  -------         ENDPROC       LCD_INIT
  -------         PROC          _LCD_SHOWCHAR
  D:0006H         SYMBOL        Line
  D:0005H         SYMBOL        Column
  D:0004H         SYMBOL        Char
  C:0547H         LINE#         97
  C:0549H         LINE#         98
  C:0549H         LINE#         99
  C:054CH         LINE#         100
  -------         ENDPROC       _LCD_SHOWCHAR
  -------         PROC          _LCD_SHOWSTRING
  D:0007H         SYMBOL        Line
  D:0005H         SYMBOL        Column
  D:0008H         SYMBOL        String
  -------         DO            
  D:0005H         SYMBOL        i
  -------         ENDDO         
  C:048AH         LINE#         110
  C:0490H         LINE#         111
  C:0490H         LINE#         113
BL51 BANKED LINKER/LOCATER V6.22.2.0                                                  03/09/2024  13:15:51  PAGE 6


  C:0493H         LINE#         114
  C:04A6H         LINE#         115
  C:04A6H         LINE#         116
  C:04A9H         LINE#         117
  C:04ACH         LINE#         118
  -------         ENDPROC       _LCD_SHOWSTRING
  -------         PROC          L?0046
  -------         ENDPROC       L?0046
  -------         PROC          _LCD_POW
  D:000DH         SYMBOL        X
  D:000FH         SYMBOL        Y
  -------         DO            
  D:0003H         SYMBOL        i
  D:0006H         SYMBOL        Result
  -------         ENDDO         
  C:043FH         LINE#         123
  C:0447H         LINE#         124
  C:0447H         LINE#         126
  C:044BH         LINE#         127
  C:045BH         LINE#         128
  C:045BH         LINE#         129
  C:0462H         LINE#         130
  C:0465H         LINE#         131
  C:0465H         LINE#         132
  -------         ENDPROC       _LCD_POW
  -------         PROC          _LCD_SHOWNUM
  D:0007H         SYMBOL        Line
  D:0005H         SYMBOL        Column
  D:000AH         SYMBOL        Number
  D:000CH         SYMBOL        Length
  -------         DO            
  D:0002H         SYMBOL        i
  -------         ENDDO         
  C:0466H         LINE#         142
  C:046AH         LINE#         143
  C:046AH         LINE#         145
  C:046DH         LINE#         146
  C:047CH         LINE#         147
  C:047CH         LINE#         148
  C:0486H         LINE#         149
  C:0489H         LINE#         150
  -------         ENDPROC       _LCD_SHOWNUM
  -------         PROC          _LCD_SHOWSIGNEDNUM
  D:0007H         SYMBOL        Line
  D:0005H         SYMBOL        Column
  D:0082H         SYMBOL        Number
  D:0015H         SYMBOL        Length
  -------         DO            
  D:0002H         SYMBOL        i
  D:0016H         SYMBOL        Number1
  -------         ENDDO         
  C:03AEH         LINE#         160
  C:03B2H         LINE#         161
  C:03B2H         LINE#         164
  C:03B5H         LINE#         165
  C:03BEH         LINE#         166
  C:03BEH         LINE#         167
BL51 BANKED LINKER/LOCATER V6.22.2.0                                                  03/09/2024  13:15:51  PAGE 7


  C:03C3H         LINE#         168
  C:03C9H         LINE#         169
  C:03CBH         LINE#         171
  C:03CBH         LINE#         172
  C:03D0H         LINE#         173
  C:03DBH         LINE#         174
  C:03DBH         LINE#         175
  C:03EAH         LINE#         176
  C:03EAH         LINE#         177
  C:03F4H         LINE#         178
  C:03F7H         LINE#         179
  -------         ENDPROC       _LCD_SHOWSIGNEDNUM
  -------         PROC          _LCD_SHOWHEXNUM
  D:0007H         SYMBOL        Line
  D:0005H         SYMBOL        Column
  D:001AH         SYMBOL        Number
  D:001CH         SYMBOL        Length
  -------         DO            
  D:0002H         SYMBOL        i
  D:0006H         SYMBOL        SingleNumber
  -------         ENDDO         
  C:0363H         LINE#         189
  C:0367H         LINE#         190
  C:0367H         LINE#         192
  C:036AH         LINE#         193
  C:0376H         LINE#         194
  C:0376H         LINE#         195
  C:0396H         LINE#         196
  C:03A0H         LINE#         197
  C:03A0H         LINE#         198
  C:03A2H         LINE#         199
  C:03A4H         LINE#         201
  C:03A4H         LINE#         202
  C:03AAH         LINE#         203
  C:03AAH         LINE#         204
  C:03ADH         LINE#         205
  -------         ENDPROC       _LCD_SHOWHEXNUM
  -------         PROC          _LCD_SHOWBINNUM
  D:0007H         SYMBOL        Line
  D:0005H         SYMBOL        Column
  D:001FH         SYMBOL        Number
  D:0021H         SYMBOL        Length
  -------         DO            
  D:0002H         SYMBOL        i
  -------         ENDDO         
  C:03F8H         LINE#         215
  C:03FCH         LINE#         216
  C:03FCH         LINE#         218
  C:03FFH         LINE#         219
  C:040EH         LINE#         220
  C:040EH         LINE#         221
  C:0431H         LINE#         222
  C:0434H         LINE#         223
  -------         ENDPROC       _LCD_SHOWBINNUM
  -------         ENDMOD        LCD1602

  -------         MODULE        MATRIXKEY
BL51 BANKED LINKER/LOCATER V6.22.2.0                                                  03/09/2024  13:15:51  PAGE 8


  C:0000H         SYMBOL        _ICE_DUMMY_
  D:0090H         PUBLIC        P1
  B:0090H.0       PUBLIC        P1_0
  B:0090H.1       PUBLIC        P1_1
  B:0090H.2       PUBLIC        P1_2
  B:0090H.3       PUBLIC        P1_3
  B:0090H.4       PUBLIC        P1_4
  B:0090H.5       PUBLIC        P1_5
  B:0090H.6       PUBLIC        P1_6
  B:0090H.7       PUBLIC        P1_7
  C:0003H         PUBLIC        getMatrixKey
  -------         PROC          GETMATRIXKEY
  -------         DO            
  D:0008H         SYMBOL        keyNumber
  -------         ENDDO         
  C:0003H         LINE#         8
  C:0003H         LINE#         9
  C:0003H         LINE#         10
  C:0006H         LINE#         13
  C:0009H         LINE#         15
  C:000BH         LINE#         16
  C:000EH         LINE#         17
  C:000EH         LINE#         18
  C:0021H         LINE#         19
  C:0021H         LINE#         20
  C:0024H         LINE#         21
  C:0024H         LINE#         22
  C:0038H         LINE#         23
  C:0038H         LINE#         24
  C:003BH         LINE#         25
  C:003BH         LINE#         26
  C:004FH         LINE#         27
  C:004FH         LINE#         28
  C:0052H         LINE#         29
  C:0052H         LINE#         30
  C:0066H         LINE#         31
  C:0066H         LINE#         34
  C:0069H         LINE#         36
  C:006BH         LINE#         37
  C:006EH         LINE#         38
  C:006EH         LINE#         39
  C:0082H         LINE#         40
  C:0082H         LINE#         41
  C:0085H         LINE#         42
  C:0085H         LINE#         43
  C:0099H         LINE#         44
  C:0099H         LINE#         45
  C:009CH         LINE#         46
  C:009CH         LINE#         47
  C:00B0H         LINE#         48
  C:00B0H         LINE#         49
  C:00B3H         LINE#         50
  C:00B3H         LINE#         51
  C:00C7H         LINE#         52
  C:00C7H         LINE#         55
  C:00CAH         LINE#         57
  C:00CCH         LINE#         58
BL51 BANKED LINKER/LOCATER V6.22.2.0                                                  03/09/2024  13:15:51  PAGE 9


  C:00CFH         LINE#         59
  C:00CFH         LINE#         60
  C:00E3H         LINE#         61
  C:00E3H         LINE#         62
  C:00E6H         LINE#         63
  C:00E6H         LINE#         64
  C:00FAH         LINE#         65
  C:00FAH         LINE#         66
  C:00FDH         LINE#         67
  C:00FDH         LINE#         68
  C:0111H         LINE#         69
  C:0111H         LINE#         70
  C:0114H         LINE#         71
  C:0114H         LINE#         72
  C:0128H         LINE#         73
  C:0128H         LINE#         76
  C:012BH         LINE#         78
  C:012DH         LINE#         79
  C:0130H         LINE#         80
  C:0130H         LINE#         81
  C:0144H         LINE#         82
  C:0144H         LINE#         83
  C:0147H         LINE#         84
  C:0147H         LINE#         85
  C:015BH         LINE#         86
  C:015BH         LINE#         87
  C:015EH         LINE#         88
  C:015EH         LINE#         89
  C:0172H         LINE#         90
  C:0172H         LINE#         91
  C:0175H         LINE#         92
  C:0175H         LINE#         93
  C:0189H         LINE#         94
  C:0189H         LINE#         96
  C:018BH         LINE#         97
  -------         ENDPROC       GETMATRIXKEY
  -------         ENDMOD        MATRIXKEY

  -------         MODULE        ?C?CLDOPTR
  C:0243H         PUBLIC        ?C?CLDOPTR
  -------         ENDMOD        ?C?CLDOPTR

  -------         MODULE        ?C?IMUL
  C:0270H         PUBLIC        ?C?IMUL
  -------         ENDMOD        ?C?IMUL

  -------         MODULE        ?C?UIDIV
  C:0282H         PUBLIC        ?C?UIDIV
  -------         ENDMOD        ?C?UIDIV

Program Size: data=39.0 xdata=0 code=1361
LINK/LOCATE RUN COMPLETE.  0 WARNING(S),  0 ERROR(S)
